{
  "address": "0x1Af306d5bB8eB20c321C733274DC45cf5f0B67a9",
  "abi": [
    {
      "inputs": [],
      "stateMutability": "nonpayable",
      "type": "constructor"
    },
    {
      "inputs": [],
      "name": "InvalidDelegate",
      "type": "error"
    },
    {
      "inputs": [],
      "name": "InvalidEndpointCall",
      "type": "error"
    },
    {
      "inputs": [],
      "name": "InvalidInitialization",
      "type": "error"
    },
    {
      "inputs": [
        {
          "internalType": "bytes",
          "name": "options",
          "type": "bytes"
        }
      ],
      "name": "InvalidOptions",
      "type": "error"
    },
    {
      "inputs": [],
      "name": "LzTokenUnavailable",
      "type": "error"
    },
    {
      "inputs": [
        {
          "internalType": "uint32",
          "name": "eid",
          "type": "uint32"
        }
      ],
      "name": "NoPeer",
      "type": "error"
    },
    {
      "inputs": [
        {
          "internalType": "uint256",
          "name": "msgValue",
          "type": "uint256"
        }
      ],
      "name": "NotEnoughNative",
      "type": "error"
    },
    {
      "inputs": [],
      "name": "NotInitializing",
      "type": "error"
    },
    {
      "inputs": [
        {
          "internalType": "address",
          "name": "addr",
          "type": "address"
        }
      ],
      "name": "OnlyEndpoint",
      "type": "error"
    },
    {
      "inputs": [
        {
          "internalType": "uint32",
          "name": "eid",
          "type": "uint32"
        },
        {
          "internalType": "bytes32",
          "name": "sender",
          "type": "bytes32"
        }
      ],
      "name": "OnlyPeer",
      "type": "error"
    },
    {
      "inputs": [
        {
          "internalType": "address",
          "name": "owner",
          "type": "address"
        }
      ],
      "name": "OwnableInvalidOwner",
      "type": "error"
    },
    {
      "inputs": [
        {
          "internalType": "address",
          "name": "account",
          "type": "address"
        }
      ],
      "name": "OwnableUnauthorizedAccount",
      "type": "error"
    },
    {
      "inputs": [
        {
          "internalType": "uint8",
          "name": "bits",
          "type": "uint8"
        },
        {
          "internalType": "uint256",
          "name": "value",
          "type": "uint256"
        }
      ],
      "name": "SafeCastOverflowedUintDowncast",
      "type": "error"
    },
    {
      "inputs": [
        {
          "internalType": "address",
          "name": "token",
          "type": "address"
        }
      ],
      "name": "SafeERC20FailedOperation",
      "type": "error"
    },
    {
      "anonymous": false,
      "inputs": [
        {
          "indexed": false,
          "internalType": "uint256",
          "name": "data",
          "type": "uint256"
        }
      ],
      "name": "DataReceived",
      "type": "event"
    },
    {
      "anonymous": false,
      "inputs": [
        {
          "components": [
            {
              "internalType": "uint32",
              "name": "eid",
              "type": "uint32"
            },
            {
              "internalType": "uint16",
              "name": "msgType",
              "type": "uint16"
            },
            {
              "internalType": "bytes",
              "name": "options",
              "type": "bytes"
            }
          ],
          "indexed": false,
          "internalType": "struct EnforcedOptionParam[]",
          "name": "_enforcedOptions",
          "type": "tuple[]"
        }
      ],
      "name": "EnforcedOptionSet",
      "type": "event"
    },
    {
      "anonymous": false,
      "inputs": [
        {
          "indexed": false,
          "internalType": "uint64",
          "name": "version",
          "type": "uint64"
        }
      ],
      "name": "Initialized",
      "type": "event"
    },
    {
      "anonymous": false,
      "inputs": [
        {
          "indexed": true,
          "internalType": "address",
          "name": "previousOwner",
          "type": "address"
        },
        {
          "indexed": true,
          "internalType": "address",
          "name": "newOwner",
          "type": "address"
        }
      ],
      "name": "OwnershipTransferred",
      "type": "event"
    },
    {
      "anonymous": false,
      "inputs": [
        {
          "indexed": false,
          "internalType": "uint32",
          "name": "eid",
          "type": "uint32"
        },
        {
          "indexed": false,
          "internalType": "bytes32",
          "name": "peer",
          "type": "bytes32"
        }
      ],
      "name": "PeerSet",
      "type": "event"
    },
    {
      "inputs": [],
      "name": "READ_CHANNEL",
      "outputs": [
        {
          "internalType": "uint32",
          "name": "",
          "type": "uint32"
        }
      ],
      "stateMutability": "view",
      "type": "function"
    },
    {
      "inputs": [],
      "name": "READ_TYPE",
      "outputs": [
        {
          "internalType": "uint16",
          "name": "",
          "type": "uint16"
        }
      ],
      "stateMutability": "view",
      "type": "function"
    },
    {
      "inputs": [
        {
          "internalType": "address",
          "name": "_endpoint",
          "type": "address"
        },
        {
          "internalType": "address",
          "name": "_delegate",
          "type": "address"
        }
      ],
      "name": "__OAppCore_init",
      "outputs": [],
      "stateMutability": "nonpayable",
      "type": "function"
    },
    {
      "inputs": [
        {
          "internalType": "address",
          "name": "_endpoint",
          "type": "address"
        },
        {
          "internalType": "address",
          "name": "_delegate",
          "type": "address"
        }
      ],
      "name": "__OAppRead_init",
      "outputs": [],
      "stateMutability": "nonpayable",
      "type": "function"
    },
    {
      "inputs": [
        {
          "internalType": "address",
          "name": "_endpoint",
          "type": "address"
        },
        {
          "internalType": "address",
          "name": "_delegate",
          "type": "address"
        }
      ],
      "name": "__OAppUpgradeable_init",
      "outputs": [],
      "stateMutability": "nonpayable",
      "type": "function"
    },
    {
      "inputs": [
        {
          "components": [
            {
              "internalType": "uint32",
              "name": "srcEid",
              "type": "uint32"
            },
            {
              "internalType": "bytes32",
              "name": "sender",
              "type": "bytes32"
            },
            {
              "internalType": "uint64",
              "name": "nonce",
              "type": "uint64"
            }
          ],
          "internalType": "struct Origin",
          "name": "origin",
          "type": "tuple"
        }
      ],
      "name": "allowInitializePath",
      "outputs": [
        {
          "internalType": "bool",
          "name": "",
          "type": "bool"
        }
      ],
      "stateMutability": "view",
      "type": "function"
    },
    {
      "inputs": [
        {
          "internalType": "uint32",
          "name": "_eid",
          "type": "uint32"
        },
        {
          "internalType": "uint16",
          "name": "_msgType",
          "type": "uint16"
        },
        {
          "internalType": "bytes",
          "name": "_extraOptions",
          "type": "bytes"
        }
      ],
      "name": "combineOptions",
      "outputs": [
        {
          "internalType": "bytes",
          "name": "",
          "type": "bytes"
        }
      ],
      "stateMutability": "view",
      "type": "function"
    },
    {
      "inputs": [],
      "name": "endpoint",
      "outputs": [
        {
          "internalType": "contract ILayerZeroEndpointV2",
          "name": "",
          "type": "address"
        }
      ],
      "stateMutability": "view",
      "type": "function"
    },
    {
      "inputs": [
        {
          "internalType": "uint32",
          "name": "eid",
          "type": "uint32"
        },
        {
          "internalType": "uint16",
          "name": "msgType",
          "type": "uint16"
        }
      ],
      "name": "enforcedOptions",
      "outputs": [
        {
          "internalType": "bytes",
          "name": "enforcedOption",
          "type": "bytes"
        }
      ],
      "stateMutability": "view",
      "type": "function"
    },
    {
      "inputs": [
        {
          "internalType": "address",
          "name": "_endpoint",
          "type": "address"
        },
        {
          "internalType": "address",
          "name": "_delegate",
          "type": "address"
        },
        {
          "internalType": "uint32",
          "name": "_readChannel",
          "type": "uint32"
        }
      ],
      "name": "initialize",
      "outputs": [],
      "stateMutability": "nonpayable",
      "type": "function"
    },
    {
      "inputs": [
        {
          "components": [
            {
              "internalType": "uint32",
              "name": "srcEid",
              "type": "uint32"
            },
            {
              "internalType": "bytes32",
              "name": "sender",
              "type": "bytes32"
            },
            {
              "internalType": "uint64",
              "name": "nonce",
              "type": "uint64"
            }
          ],
          "internalType": "struct Origin",
          "name": "",
          "type": "tuple"
        },
        {
          "internalType": "bytes",
          "name": "",
          "type": "bytes"
        },
        {
          "internalType": "address",
          "name": "_sender",
          "type": "address"
        }
      ],
      "name": "isComposeMsgSender",
      "outputs": [
        {
          "internalType": "bool",
          "name": "",
          "type": "bool"
        }
      ],
      "stateMutability": "view",
      "type": "function"
    },
    {
      "inputs": [
        {
          "components": [
            {
              "internalType": "uint32",
              "name": "srcEid",
              "type": "uint32"
            },
            {
              "internalType": "bytes32",
              "name": "sender",
              "type": "bytes32"
            },
            {
              "internalType": "uint64",
              "name": "nonce",
              "type": "uint64"
            }
          ],
          "internalType": "struct Origin",
          "name": "_origin",
          "type": "tuple"
        },
        {
          "internalType": "bytes32",
          "name": "_guid",
          "type": "bytes32"
        },
        {
          "internalType": "bytes",
          "name": "_message",
          "type": "bytes"
        },
        {
          "internalType": "address",
          "name": "_executor",
          "type": "address"
        },
        {
          "internalType": "bytes",
          "name": "_extraData",
          "type": "bytes"
        }
      ],
      "name": "lzReceive",
      "outputs": [],
      "stateMutability": "payable",
      "type": "function"
    },
    {
      "inputs": [
        {
          "internalType": "uint32",
          "name": "",
          "type": "uint32"
        },
        {
          "internalType": "bytes32",
          "name": "",
          "type": "bytes32"
        }
      ],
      "name": "nextNonce",
      "outputs": [
        {
          "internalType": "uint64",
          "name": "nonce",
          "type": "uint64"
        }
      ],
      "stateMutability": "view",
      "type": "function"
    },
    {
      "inputs": [],
      "name": "oAppVersion",
      "outputs": [
        {
          "internalType": "uint64",
          "name": "senderVersion",
          "type": "uint64"
        },
        {
          "internalType": "uint64",
          "name": "receiverVersion",
          "type": "uint64"
        }
      ],
      "stateMutability": "pure",
      "type": "function"
    },
    {
      "inputs": [],
      "name": "owner",
      "outputs": [
        {
          "internalType": "address",
          "name": "",
          "type": "address"
        }
      ],
      "stateMutability": "view",
      "type": "function"
    },
    {
      "inputs": [
        {
          "internalType": "uint32",
          "name": "eid",
          "type": "uint32"
        }
      ],
      "name": "peers",
      "outputs": [
        {
          "internalType": "bytes32",
          "name": "peer",
          "type": "bytes32"
        }
      ],
      "stateMutability": "view",
      "type": "function"
    },
    {
      "inputs": [
        {
          "internalType": "address",
          "name": "_targetContractAddress",
          "type": "address"
        },
        {
          "internalType": "uint32",
          "name": "_targetEid",
          "type": "uint32"
        },
        {
          "internalType": "bytes",
          "name": "_extraOptions",
          "type": "bytes"
        }
      ],
      "name": "quoteReadFee",
      "outputs": [
        {
          "components": [
            {
              "internalType": "uint256",
              "name": "nativeFee",
              "type": "uint256"
            },
            {
              "internalType": "uint256",
              "name": "lzTokenFee",
              "type": "uint256"
            }
          ],
          "internalType": "struct MessagingFee",
          "name": "fee",
          "type": "tuple"
        }
      ],
      "stateMutability": "view",
      "type": "function"
    },
    {
      "inputs": [
        {
          "internalType": "address",
          "name": "_targetContractAddress",
          "type": "address"
        },
        {
          "internalType": "uint32",
          "name": "_targetEid",
          "type": "uint32"
        },
        {
          "internalType": "bytes",
          "name": "_extraOptions",
          "type": "bytes"
        }
      ],
      "name": "readData",
      "outputs": [
        {
          "components": [
            {
              "internalType": "bytes32",
              "name": "guid",
              "type": "bytes32"
            },
            {
              "internalType": "uint64",
              "name": "nonce",
              "type": "uint64"
            },
            {
              "components": [
                {
                  "internalType": "uint256",
                  "name": "nativeFee",
                  "type": "uint256"
                },
                {
                  "internalType": "uint256",
                  "name": "lzTokenFee",
                  "type": "uint256"
                }
              ],
              "internalType": "struct MessagingFee",
              "name": "fee",
              "type": "tuple"
            }
          ],
          "internalType": "struct MessagingReceipt",
          "name": "receipt",
          "type": "tuple"
        }
      ],
      "stateMutability": "payable",
      "type": "function"
    },
    {
      "inputs": [],
      "name": "renounceOwnership",
      "outputs": [],
      "stateMutability": "nonpayable",
      "type": "function"
    },
    {
      "inputs": [
        {
          "internalType": "address",
          "name": "_delegate",
          "type": "address"
        }
      ],
      "name": "setDelegate",
      "outputs": [],
      "stateMutability": "nonpayable",
      "type": "function"
    },
    {
      "inputs": [
        {
          "components": [
            {
              "internalType": "uint32",
              "name": "eid",
              "type": "uint32"
            },
            {
              "internalType": "uint16",
              "name": "msgType",
              "type": "uint16"
            },
            {
              "internalType": "bytes",
              "name": "options",
              "type": "bytes"
            }
          ],
          "internalType": "struct EnforcedOptionParam[]",
          "name": "_enforcedOptions",
          "type": "tuple[]"
        }
      ],
      "name": "setEnforcedOptions",
      "outputs": [],
      "stateMutability": "nonpayable",
      "type": "function"
    },
    {
      "inputs": [
        {
          "internalType": "uint32",
          "name": "_eid",
          "type": "uint32"
        },
        {
          "internalType": "bytes32",
          "name": "_peer",
          "type": "bytes32"
        }
      ],
      "name": "setPeer",
      "outputs": [],
      "stateMutability": "nonpayable",
      "type": "function"
    },
    {
      "inputs": [
        {
          "internalType": "uint32",
          "name": "_channelId",
          "type": "uint32"
        },
        {
          "internalType": "bool",
          "name": "_active",
          "type": "bool"
        }
      ],
      "name": "setReadChannel",
      "outputs": [],
      "stateMutability": "nonpayable",
      "type": "function"
    },
    {
      "inputs": [
        {
          "internalType": "address",
          "name": "newOwner",
          "type": "address"
        }
      ],
      "name": "transferOwnership",
      "outputs": [],
      "stateMutability": "nonpayable",
      "type": "function"
    }
  ],
  "transactionHash": "0xb814c0ae2313e5e211f22bab67068a262bb5ff7648dce162f764108b42a4dd02",
  "args": [],
  "numDeployments": 3,
  "solcInputHash": "38347324aae0e4b2e485463389b7db6d",
  "bytecode": "0x60806040523480156200001157600080fd5b50620000226200005860201b60201c565b620000326200005860201b60201c565b620000426200005860201b60201c565b620000526200005860201b60201c565b620001eb565b60006200006a6200016260201b60201c565b90508060000160089054906101000a900460ff1615620000b6576040517ff92ee8a900000000000000000000000000000000000000000000000000000000815260040160405180910390fd5b67ffffffffffffffff80168160000160009054906101000a900467ffffffffffffffff1667ffffffffffffffff16146200015f5767ffffffffffffffff8160000160006101000a81548167ffffffffffffffff021916908367ffffffffffffffff1602179055507fc7f505b2f371ae2175ee4913f4499e1f2633a7b5936321eed1cdaeb6115181d267ffffffffffffffff604051620001569190620001ce565b60405180910390a15b50565b600080620001756200017e60201b60201c565b90508091505090565b60007ff0c57e16840df040f15088dc2f81fe391c3923bec73e23a9662efc9c229c6a0060001b905090565b600067ffffffffffffffff82169050919050565b620001c881620001a9565b82525050565b6000602082019050620001e56000830184620001bd565b92915050565b61375880620001fb6000396000f3fe60806040526004361061014b5760003560e01c80637f55dfe3116100b6578063ca5eb5e11161006f578063ca5eb5e114610489578063dd5f02b1146104b2578063e5361ee8146104db578063f0a9e48114610518578063f2fde38b14610541578063ff7bd03d1461056a5761014b565b80637f55dfe31461034e57806382413eac1461037e5780638da5cb5b146103bb578063b98bd070146103e6578063bb0b6a531461040f578063bc70b3541461044c5761014b565b806346f98a971161010857806346f98a97146102405780635535d461146102695780635e280f11146102a65780636ecf2b22146102d1578063715018a6146102fa5780637d25a05e146103115761014b565b806313137d651461015057806317442b701461016c5780632865860b1461019857806331cf1297146101c15780633400288b146101ec5780633859d93714610215575b600080fd5b61016a60048036038101906101659190611f66565b6105a7565b005b34801561017857600080fd5b506101816106c9565b60405161018f929190612045565b60405180910390f35b3480156101a457600080fd5b506101bf60048036038101906101ba919061206e565b6106d8565b005b3480156101cd57600080fd5b506101d66106ee565b6040516101e391906120cb565b60405180910390f35b3480156101f857600080fd5b50610213600480360381019061020e9190612122565b6106f3565b005b34801561022157600080fd5b5061022a610709565b6040516102379190612171565b60405180910390f35b34801561024c57600080fd5b506102676004803603810190610262919061206e565b61071f565b005b34801561027557600080fd5b50610290600480360381019061028b91906121b8565b610735565b60405161029d9190612288565b60405180910390f35b3480156102b257600080fd5b506102bb6107e2565b6040516102c89190612309565b60405180910390f35b3480156102dd57600080fd5b506102f860048036038101906102f39190612324565b610806565b005b34801561030657600080fd5b5061030f6109cb565b005b34801561031d57600080fd5b5061033860048036038101906103339190612122565b6109df565b6040516103459190612377565b60405180910390f35b61036860048036038101906103639190612392565b6109e7565b60405161037591906124ae565b60405180910390f35b34801561038a57600080fd5b506103a560048036038101906103a091906124c9565b610a5a565b6040516103b29190612558565b60405180910390f35b3480156103c757600080fd5b506103d0610a95565b6040516103dd9190612582565b60405180910390f35b3480156103f257600080fd5b5061040d600480360381019061040891906125f3565b610acd565b005b34801561041b57600080fd5b5061043660048036038101906104319190612640565b610aee565b604051610443919061267c565b60405180910390f35b34801561045857600080fd5b50610473600480360381019061046e9190612697565b610b06565b6040516104809190612288565b60405180910390f35b34801561049557600080fd5b506104b060048036038101906104ab919061270b565b610d13565b005b3480156104be57600080fd5b506104d960048036038101906104d4919061206e565b610da9565b005b3480156104e757600080fd5b5061050260048036038101906104fd9190612392565b610ef6565b60405161050f9190612767565b60405180910390f35b34801561052457600080fd5b5061053f600480360381019061053a91906127ae565b610f4e565b005b34801561054d57600080fd5b506105686004803603810190610563919061270b565b610f9c565b005b34801561057657600080fd5b50610591600480360381019061058c91906127ee565b611022565b60405161059e9190612558565b60405180910390f35b3373ffffffffffffffffffffffffffffffffffffffff1660008054906101000a900473ffffffffffffffffffffffffffffffffffffffff1673ffffffffffffffffffffffffffffffffffffffff161461063757336040517f91ac5e4f00000000000000000000000000000000000000000000000000000000815260040161062e9190612582565b60405180910390fd5b86602001356106578860000160208101906106529190612640565b611063565b146106b15786600001602081019061066f9190612640565b87602001356040517fc26bebcc0000000000000000000000000000000000000000000000000000000081526004016106a892919061281b565b60405180910390fd5b6106c0878787878787876110d8565b50505050505050565b60008060016002915091509091565b6106e061112c565b6106ea828261071f565b5050565b600181565b6106fb61116c565b61070582826111f3565b5050565b600360009054906101000a900463ffffffff1681565b61072761112c565b6107318282610da9565b5050565b600260205281600052604060002060205280600052604060002060009150915050805461076190612873565b80601f016020809104026020016040519081016040528092919081815260200182805461078d90612873565b80156107da5780601f106107af576101008083540402835291602001916107da565b820191906000526020600020905b8154815290600101906020018083116107bd57829003601f168201915b505050505081565b60008054906101000a900473ffffffffffffffffffffffffffffffffffffffff1681565b6000610810611254565b905060008160000160089054906101000a900460ff1615905060008260000160009054906101000a900467ffffffffffffffff1690506000808267ffffffffffffffff1614801561085e5750825b9050600060018367ffffffffffffffff16148015610893575060003073ffffffffffffffffffffffffffffffffffffffff163b145b9050811580156108a1575080155b156108d8576040517ff92ee8a900000000000000000000000000000000000000000000000000000000815260040160405180910390fd5b60018560000160006101000a81548167ffffffffffffffff021916908367ffffffffffffffff16021790555083156109285760018560000160086101000a81548160ff0219169083151502179055505b61093288886106d8565b85600360006101000a81548163ffffffff021916908363ffffffff1602179055506109658661096030611268565b6111f3565b83156109c15760008560000160086101000a81548160ff0219169083151502179055507fc7f505b2f371ae2175ee4913f4499e1f2633a7b5936321eed1cdaeb6115181d260016040516109b891906128df565b60405180910390a15b5050505050505050565b6109d361116c565b6109dd600061128b565b565b600092915050565b6109ef611d7a565b60006109fb8686611362565b9050610a4f600360009054906101000a900463ffffffff1682610a33600360009054906101000a900463ffffffff1660018989610b06565b60405180604001604052803481526020016000815250336114c6565b915050949350505050565b60003073ffffffffffffffffffffffffffffffffffffffff168273ffffffffffffffffffffffffffffffffffffffff16149050949350505050565b600080610aa06115e2565b90508060000160009054906101000a900473ffffffffffffffffffffffffffffffffffffffff1691505090565b610ad561116c565b610aea828290610ae59190612b67565b61160a565b5050565b60016020528060005260406000206000915090505481565b60606000600260008763ffffffff1663ffffffff16815260200190815260200160002060008661ffff1661ffff1681526020019081526020016000208054610b4d90612873565b80601f0160208091040260200160405190810160405280929190818152602001828054610b7990612873565b8015610bc65780601f10610b9b57610100808354040283529160200191610bc6565b820191906000526020600020905b815481529060010190602001808311610ba957829003601f168201915b505050505090506000815103610c235783838080601f016020809104026020016040519081016040528093929190818152602001838380828437600081840152601f19601f82011690508083019250505050505050915050610d0b565b60008484905003610c375780915050610d0b565b60028484905010610ccc57610c8f84848080601f016020809104026020016040519081016040528093929190818152602001838380828437600081840152601f19601f82011690508083019250505050505050611725565b8084846002908092610ca393929190612b86565b604051602001610cb593929190612c22565b604051602081830303815290604052915050610d0b565b83836040517f9a6d49cd000000000000000000000000000000000000000000000000000000008152600401610d02929190612c75565b60405180910390fd5b949350505050565b610d1b61116c565b60008054906101000a900473ffffffffffffffffffffffffffffffffffffffff1673ffffffffffffffffffffffffffffffffffffffff1663ca5eb5e1826040518263ffffffff1660e01b8152600401610d749190612582565b600060405180830381600087803b158015610d8e57600080fd5b505af1158015610da2573d6000803e3d6000fd5b5050505050565b610db161112c565b816000806101000a81548173ffffffffffffffffffffffffffffffffffffffff021916908373ffffffffffffffffffffffffffffffffffffffff160217905550600073ffffffffffffffffffffffffffffffffffffffff168173ffffffffffffffffffffffffffffffffffffffff1603610e57576040517fb586360400000000000000000000000000000000000000000000000000000000815260040160405180910390fd5b60008054906101000a900473ffffffffffffffffffffffffffffffffffffffff1673ffffffffffffffffffffffffffffffffffffffff1663ca5eb5e1826040518263ffffffff1660e01b8152600401610eb09190612582565b600060405180830381600087803b158015610eca57600080fd5b505af1158015610ede573d6000803e3d6000fd5b50505050610ef2610eed61177f565b611787565b5050565b610efe611dae565b610f44600360009054906101000a900463ffffffff16610f1e8787611362565b610f3d600360009054906101000a900463ffffffff1660018888610b06565b600061179b565b9050949350505050565b610f5661116c565b610f778282610f68576000801b610f72565b610f7130611268565b5b6111f3565b81600360006101000a81548163ffffffff021916908363ffffffff1602179055505050565b610fa461116c565b600073ffffffffffffffffffffffffffffffffffffffff168173ffffffffffffffffffffffffffffffffffffffff16036110165760006040517f1e4fbdf700000000000000000000000000000000000000000000000000000000815260040161100d9190612582565b60405180910390fd5b61101f8161128b565b50565b60008160200135600160008460000160208101906110409190612640565b63ffffffff1663ffffffff16815260200190815260200160002054149050919050565b600080600160008463ffffffff1663ffffffff1681526020019081526020016000205490506000801b81036110cf57826040517ff6ff4fb70000000000000000000000000000000000000000000000000000000081526004016110c69190612171565b60405180910390fd5b80915050919050565b600085858101906110e99190612cc5565b90507ffb904851c5333a05398ce41f0fd2e5189b8afbcce9eea6cbf76e5b0f082846c98160405161111a9190612d01565b60405180910390a15050505050505050565b61113461187e565b61116a576040517fd7e6bcf800000000000000000000000000000000000000000000000000000000815260040160405180910390fd5b565b61117461177f565b73ffffffffffffffffffffffffffffffffffffffff16611192610a95565b73ffffffffffffffffffffffffffffffffffffffff16146111f1576111b561177f565b6040517f118cdaa70000000000000000000000000000000000000000000000000000000081526004016111e89190612582565b60405180910390fd5b565b80600160008463ffffffff1663ffffffff168152602001908152602001600020819055507f238399d427b947898edb290f5ff0f9109849b1c3ba196a42e35f00c50a54b98b828260405161124892919061281b565b60405180910390a15050565b60008061125f61189e565b90508091505090565b60008173ffffffffffffffffffffffffffffffffffffffff1660001b9050919050565b60006112956115e2565b905060008160000160009054906101000a900473ffffffffffffffffffffffffffffffffffffffff169050828260000160006101000a81548173ffffffffffffffffffffffffffffffffffffffff021916908373ffffffffffffffffffffffffffffffffffffffff1602179055508273ffffffffffffffffffffffffffffffffffffffff168173ffffffffffffffffffffffffffffffffffffffff167f8be0079c531659141344cd1fd0a4f28419497f9722a3daafe3b4186f6b6457e060405160405180910390a3505050565b606060006398d5fdca60e01b604051602401604051602081830303815290604052907bffffffffffffffffffffffffffffffffffffffffffffffffffffffff19166020820180517bffffffffffffffffffffffffffffffffffffffffffffffffffffffff838183161783525050505090506000600167ffffffffffffffff8111156113f0576113ef6128fa565b5b60405190808252806020026020018201604052801561142957816020015b611416611dc8565b81526020019060019003908161140e5790505b5090506040518060e00160405280600161ffff1681526020018563ffffffff1681526020016000151581526020014267ffffffffffffffff168152602001600f61ffff1681526020018673ffffffffffffffffffffffffffffffffffffffff16815260200183815250816000815181106114a6576114a5612d1c565b5b60200260200101819052506114bc6000826118c9565b9250505092915050565b6114ce611d7a565b60006114dd8460000151611947565b90506000846020015111156114fa576114f98460200151611995565b5b60008054906101000a900473ffffffffffffffffffffffffffffffffffffffff1673ffffffffffffffffffffffffffffffffffffffff16632637a450826040518060a001604052808b63ffffffff1681526020016115578c611063565b81526020018a815260200189815260200160008960200151111515815250866040518463ffffffff1660e01b8152600401611593929190612e30565b60806040518083038185885af11580156115b1573d6000803e3d6000fd5b50505050506040513d601f19601f820116820180604052508101906115d69190612f6a565b91505095945050505050565b60007f9016d09d72d40fdae2fd8ceac6b6234c7706214fd39c1cd1e609a0528c199300905090565b60005b81518110156116ea5761163d82828151811061162c5761162b612d1c565b5b602002602001015160400151611725565b8181815181106116505761164f612d1c565b5b6020026020010151604001516002600084848151811061167357611672612d1c565b5b60200260200101516000015163ffffffff1663ffffffff16815260200190815260200160002060008484815181106116ae576116ad612d1c565b5b60200260200101516020015161ffff1661ffff16815260200190815260200160002090816116dc9190613139565b50808060010191505061160d565b507fbe4864a8e820971c0247f5992e2da559595f7bf076a21cb5928d443d2a13b6748160405161171a919061332c565b60405180910390a150565b600060028201519050600361ffff168161ffff161461177b57816040517f9a6d49cd0000000000000000000000000000000000000000000000000000000081526004016117729190612288565b60405180910390fd5b5050565b600033905090565b61178f61112c565b61179881611ae0565b50565b6117a3611dae565b60008054906101000a900473ffffffffffffffffffffffffffffffffffffffff1673ffffffffffffffffffffffffffffffffffffffff1663ddc28c586040518060a001604052808863ffffffff1681526020016117ff89611063565b8152602001878152602001868152602001851515815250306040518363ffffffff1660e01b8152600401611834929190612e30565b6040805180830381865afa158015611850573d6000803e3d6000fd5b505050506040513d601f19601f82011682018060405250810190611874919061334e565b9050949350505050565b6000611888611254565b60000160089054906101000a900460ff16905090565b60007ff0c57e16840df040f15088dc2f81fe391c3923bec73e23a9662efc9c229c6a0060001b905090565b606060006001846118da8551611b66565b6040516020016118ec939291906133b1565b604051602081830303815290604052905060005b835181101561193c5761192d828583815181106119205761191f612d1c565b5b6020026020010151611bbc565b91508080600101915050611900565b508091505092915050565b600081341461198d57346040517f9f7041200000000000000000000000000000000000000000000000000000000081526004016119849190612d01565b60405180910390fd5b819050919050565b60008060009054906101000a900473ffffffffffffffffffffffffffffffffffffffff1673ffffffffffffffffffffffffffffffffffffffff1663e4fe1d946040518163ffffffff1660e01b8152600401602060405180830381865afa158015611a03573d6000803e3d6000fd5b505050506040513d601f19601f82011682018060405250810190611a279190613403565b9050600073ffffffffffffffffffffffffffffffffffffffff168173ffffffffffffffffffffffffffffffffffffffff1603611a8f576040517f5373352a00000000000000000000000000000000000000000000000000000000815260040160405180910390fd5b611adc3360008054906101000a900473ffffffffffffffffffffffffffffffffffffffff16848473ffffffffffffffffffffffffffffffffffffffff16611c56909392919063ffffffff16565b5050565b611ae861112c565b600073ffffffffffffffffffffffffffffffffffffffff168173ffffffffffffffffffffffffffffffffffffffff1603611b5a5760006040517f1e4fbdf7000000000000000000000000000000000000000000000000000000008152600401611b519190612582565b60405180910390fd5b611b638161128b565b50565b600061ffff8016821115611bb4576010826040517f6dfcc650000000000000000000000000000000000000000000000000000000008152600401611bab929190613478565b60405180910390fd5b819050919050565b6060600083600184600001516001611be460238860c0015151611bdf91906134d0565b611b66565b8760200151604051602001611bfe96959493929190613570565b6040516020818303038152906040529050808360400151846060015185608001518660a001518760c00151604051602001611c3e96959493929190613683565b60405160208183030381529060405291505092915050565b611cd2848573ffffffffffffffffffffffffffffffffffffffff166323b872dd868686604051602401611c8b939291906136eb565b604051602081830303815290604052915060e01b6020820180517bffffffffffffffffffffffffffffffffffffffffffffffffffffffff8381831617835250505050611cd8565b50505050565b600080602060008451602086016000885af180611cfb576040513d6000823e3d81fd5b3d925060005191505060008214611d16576001811415611d32565b60008473ffffffffffffffffffffffffffffffffffffffff163b145b15611d7457836040517f5274afe7000000000000000000000000000000000000000000000000000000008152600401611d6b9190612582565b60405180910390fd5b50505050565b604051806060016040528060008019168152602001600067ffffffffffffffff168152602001611da8611dae565b81525090565b604051806040016040528060008152602001600081525090565b6040518060e00160405280600061ffff168152602001600063ffffffff168152602001600015158152602001600067ffffffffffffffff168152602001600061ffff168152602001600073ffffffffffffffffffffffffffffffffffffffff168152602001606081525090565b6000604051905090565b600080fd5b600080fd5b600080fd5b600060608284031215611e6457611e63611e49565b5b81905092915050565b6000819050919050565b611e8081611e6d565b8114611e8b57600080fd5b50565b600081359050611e9d81611e77565b92915050565b600080fd5b600080fd5b600080fd5b60008083601f840112611ec857611ec7611ea3565b5b8235905067ffffffffffffffff811115611ee557611ee4611ea8565b5b602083019150836001820283011115611f0157611f00611ead565b5b9250929050565b600073ffffffffffffffffffffffffffffffffffffffff82169050919050565b6000611f3382611f08565b9050919050565b611f4381611f28565b8114611f4e57600080fd5b50565b600081359050611f6081611f3a565b92915050565b600080600080600080600060e0888a031215611f8557611f84611e3f565b5b6000611f938a828b01611e4e565b9750506060611fa48a828b01611e8e565b965050608088013567ffffffffffffffff811115611fc557611fc4611e44565b5b611fd18a828b01611eb2565b955095505060a0611fe48a828b01611f51565b93505060c088013567ffffffffffffffff81111561200557612004611e44565b5b6120118a828b01611eb2565b925092505092959891949750929550565b600067ffffffffffffffff82169050919050565b61203f81612022565b82525050565b600060408201905061205a6000830185612036565b6120676020830184612036565b9392505050565b6000806040838503121561208557612084611e3f565b5b600061209385828601611f51565b92505060206120a485828601611f51565b9150509250929050565b600061ffff82169050919050565b6120c5816120ae565b82525050565b60006020820190506120e060008301846120bc565b92915050565b600063ffffffff82169050919050565b6120ff816120e6565b811461210a57600080fd5b50565b60008135905061211c816120f6565b92915050565b6000806040838503121561213957612138611e3f565b5b60006121478582860161210d565b925050602061215885828601611e8e565b9150509250929050565b61216b816120e6565b82525050565b60006020820190506121866000830184612162565b92915050565b612195816120ae565b81146121a057600080fd5b50565b6000813590506121b28161218c565b92915050565b600080604083850312156121cf576121ce611e3f565b5b60006121dd8582860161210d565b92505060206121ee858286016121a3565b9150509250929050565b600081519050919050565b600082825260208201905092915050565b60005b83811015612232578082015181840152602081019050612217565b60008484015250505050565b6000601f19601f8301169050919050565b600061225a826121f8565b6122648185612203565b9350612274818560208601612214565b61227d8161223e565b840191505092915050565b600060208201905081810360008301526122a2818461224f565b905092915050565b6000819050919050565b60006122cf6122ca6122c584611f08565b6122aa565b611f08565b9050919050565b60006122e1826122b4565b9050919050565b60006122f3826122d6565b9050919050565b612303816122e8565b82525050565b600060208201905061231e60008301846122fa565b92915050565b60008060006060848603121561233d5761233c611e3f565b5b600061234b86828701611f51565b935050602061235c86828701611f51565b925050604061236d8682870161210d565b9150509250925092565b600060208201905061238c6000830184612036565b92915050565b600080600080606085870312156123ac576123ab611e3f565b5b60006123ba87828801611f51565b94505060206123cb8782880161210d565b935050604085013567ffffffffffffffff8111156123ec576123eb611e44565b5b6123f887828801611eb2565b925092505092959194509250565b61240f81611e6d565b82525050565b61241e81612022565b82525050565b6000819050919050565b61243781612424565b82525050565b604082016000820151612453600085018261242e565b506020820151612466602085018261242e565b50505050565b6080820160008201516124826000850182612406565b5060208201516124956020850182612415565b5060408201516124a8604085018261243d565b50505050565b60006080820190506124c3600083018461246c565b92915050565b60008060008060a085870312156124e3576124e2611e3f565b5b60006124f187828801611e4e565b945050606085013567ffffffffffffffff81111561251257612511611e44565b5b61251e87828801611eb2565b9350935050608061253187828801611f51565b91505092959194509250565b60008115159050919050565b6125528161253d565b82525050565b600060208201905061256d6000830184612549565b92915050565b61257c81611f28565b82525050565b60006020820190506125976000830184612573565b92915050565b60008083601f8401126125b3576125b2611ea3565b5b8235905067ffffffffffffffff8111156125d0576125cf611ea8565b5b6020830191508360208202830111156125ec576125eb611ead565b5b9250929050565b6000806020838503121561260a57612609611e3f565b5b600083013567ffffffffffffffff81111561262857612627611e44565b5b6126348582860161259d565b92509250509250929050565b60006020828403121561265657612655611e3f565b5b60006126648482850161210d565b91505092915050565b61267681611e6d565b82525050565b6000602082019050612691600083018461266d565b92915050565b600080600080606085870312156126b1576126b0611e3f565b5b60006126bf8782880161210d565b94505060206126d0878288016121a3565b935050604085013567ffffffffffffffff8111156126f1576126f0611e44565b5b6126fd87828801611eb2565b925092505092959194509250565b60006020828403121561272157612720611e3f565b5b600061272f84828501611f51565b91505092915050565b60408201600082015161274e600085018261242e565b506020820151612761602085018261242e565b50505050565b600060408201905061277c6000830184612738565b92915050565b61278b8161253d565b811461279657600080fd5b50565b6000813590506127a881612782565b92915050565b600080604083850312156127c5576127c4611e3f565b5b60006127d38582860161210d565b92505060206127e485828601612799565b9150509250929050565b60006060828403121561280457612803611e3f565b5b600061281284828501611e4e565b91505092915050565b60006040820190506128306000830185612162565b61283d602083018461266d565b9392505050565b7f4e487b7100000000000000000000000000000000000000000000000000000000600052602260045260246000fd5b6000600282049050600182168061288b57607f821691505b60208210810361289e5761289d612844565b5b50919050565b6000819050919050565b60006128c96128c46128bf846128a4565b6122aa565b612022565b9050919050565b6128d9816128ae565b82525050565b60006020820190506128f460008301846128d0565b92915050565b7f4e487b7100000000000000000000000000000000000000000000000000000000600052604160045260246000fd5b6129328261223e565b810181811067ffffffffffffffff82111715612951576129506128fa565b5b80604052505050565b6000612964611e35565b90506129708282612929565b919050565b600067ffffffffffffffff8211156129905761298f6128fa565b5b602082029050602081019050919050565b600080fd5b600080fd5b600080fd5b600067ffffffffffffffff8211156129cb576129ca6128fa565b5b6129d48261223e565b9050602081019050919050565b82818337600083830152505050565b6000612a036129fe846129b0565b61295a565b905082815260208101848484011115612a1f57612a1e6129ab565b5b612a2a8482856129e1565b509392505050565b600082601f830112612a4757612a46611ea3565b5b8135612a578482602086016129f0565b91505092915050565b600060608284031215612a7657612a756129a1565b5b612a80606061295a565b90506000612a908482850161210d565b6000830152506020612aa4848285016121a3565b602083015250604082013567ffffffffffffffff811115612ac857612ac76129a6565b5b612ad484828501612a32565b60408301525092915050565b6000612af3612aee84612975565b61295a565b90508083825260208201905060208402830185811115612b1657612b15611ead565b5b835b81811015612b5d57803567ffffffffffffffff811115612b3b57612b3a611ea3565b5b808601612b488982612a60565b85526020850194505050602081019050612b18565b5050509392505050565b6000612b74368484612ae0565b905092915050565b600080fd5b600080fd5b60008085851115612b9a57612b99612b7c565b5b83861115612bab57612baa612b81565b5b6001850283019150848603905094509492505050565b600081905092915050565b6000612bd7826121f8565b612be18185612bc1565b9350612bf1818560208601612214565b80840191505092915050565b6000612c098385612bc1565b9350612c168385846129e1565b82840190509392505050565b6000612c2e8286612bcc565b9150612c3b828486612bfd565b9150819050949350505050565b6000612c548385612203565b9350612c618385846129e1565b612c6a8361223e565b840190509392505050565b60006020820190508181036000830152612c90818486612c48565b90509392505050565b612ca281612424565b8114612cad57600080fd5b50565b600081359050612cbf81612c99565b92915050565b600060208284031215612cdb57612cda611e3f565b5b6000612ce984828501612cb0565b91505092915050565b612cfb81612424565b82525050565b6000602082019050612d166000830184612cf2565b92915050565b7f4e487b7100000000000000000000000000000000000000000000000000000000600052603260045260246000fd5b612d54816120e6565b82525050565b600082825260208201905092915050565b6000612d76826121f8565b612d808185612d5a565b9350612d90818560208601612214565b612d998161223e565b840191505092915050565b612dad8161253d565b82525050565b600060a083016000830151612dcb6000860182612d4b565b506020830151612dde6020860182612406565b5060408301518482036040860152612df68282612d6b565b91505060608301518482036060860152612e108282612d6b565b9150506080830151612e256080860182612da4565b508091505092915050565b60006040820190508181036000830152612e4a8185612db3565b9050612e596020830184612573565b9392505050565b600081519050612e6f81611e77565b92915050565b612e7e81612022565b8114612e8957600080fd5b50565b600081519050612e9b81612e75565b92915050565b600081519050612eb081612c99565b92915050565b600060408284031215612ecc57612ecb6129a1565b5b612ed6604061295a565b90506000612ee684828501612ea1565b6000830152506020612efa84828501612ea1565b60208301525092915050565b600060808284031215612f1c57612f1b6129a1565b5b612f26606061295a565b90506000612f3684828501612e60565b6000830152506020612f4a84828501612e8c565b6020830152506040612f5e84828501612eb6565b60408301525092915050565b600060808284031215612f8057612f7f611e3f565b5b6000612f8e84828501612f06565b91505092915050565b60008190508160005260206000209050919050565b60006020601f8301049050919050565b600082821b905092915050565b600060088302612ff97fffffffffffffffffffffffffffffffffffffffffffffffffffffffffffffffff82612fbc565b6130038683612fbc565b95508019841693508086168417925050509392505050565b600061303661303161302c84612424565b6122aa565b612424565b9050919050565b6000819050919050565b6130508361301b565b61306461305c8261303d565b848454612fc9565b825550505050565b600090565b61307961306c565b613084818484613047565b505050565b5b818110156130a85761309d600082613071565b60018101905061308a565b5050565b601f8211156130ed576130be81612f97565b6130c784612fac565b810160208510156130d6578190505b6130ea6130e285612fac565b830182613089565b50505b505050565b600082821c905092915050565b6000613110600019846008026130f2565b1980831691505092915050565b600061312983836130ff565b9150826002028217905092915050565b613142826121f8565b67ffffffffffffffff81111561315b5761315a6128fa565b5b6131658254612873565b6131708282856130ac565b600060209050601f8311600181146131a35760008415613191578287015190505b61319b858261311d565b865550613203565b601f1984166131b186612f97565b60005b828110156131d9578489015182556001820191506020850194506020810190506131b4565b868310156131f657848901516131f2601f8916826130ff565b8355505b6001600288020188555050505b505050505050565b600081519050919050565b600082825260208201905092915050565b6000819050602082019050919050565b613240816120ae565b82525050565b600060608301600083015161325e6000860182612d4b565b5060208301516132716020860182613237565b50604083015184820360408601526132898282612d6b565b9150508091505092915050565b60006132a28383613246565b905092915050565b6000602082019050919050565b60006132c28261320b565b6132cc8185613216565b9350836020820285016132de85613227565b8060005b8581101561331a57848403895281516132fb8582613296565b9450613306836132aa565b925060208a019950506001810190506132e2565b50829750879550505050505092915050565b6000602082019050818103600083015261334681846132b7565b905092915050565b60006040828403121561336457613363611e3f565b5b600061337284828501612eb6565b91505092915050565b60008160f01b9050919050565b60006133938261337b565b9050919050565b6133ab6133a6826120ae565b613388565b82525050565b60006133bd828661339a565b6002820191506133cd828561339a565b6002820191506133dd828461339a565b600282019150819050949350505050565b6000815190506133fd81611f3a565b92915050565b60006020828403121561341957613418611e3f565b5b6000613427848285016133ee565b91505092915050565b6000819050919050565b600060ff82169050919050565b600061346261345d61345884613430565b6122aa565b61343a565b9050919050565b61347281613447565b82525050565b600060408201905061348d6000830185613469565b61349a6020830184612cf2565b9392505050565b7f4e487b7100000000000000000000000000000000000000000000000000000000600052601160045260246000fd5b60006134db82612424565b91506134e683612424565b92508282019050808211156134fe576134fd6134a1565b5b92915050565b60008160f81b9050919050565b600061351c82613504565b9050919050565b61353461352f8261343a565b613511565b82525050565b60008160e01b9050919050565b60006135528261353a565b9050919050565b61356a613565826120e6565b613547565b82525050565b600061357c8289612bcc565b91506135888288613523565b600182019150613598828761339a565b6002820191506135a8828661339a565b6002820191506135b8828561339a565b6002820191506135c88284613559565b600482019150819050979650505050505050565b60006135e782613511565b9050919050565b6135ff6135fa8261253d565b6135dc565b82525050565b60008160c01b9050919050565b600061361d82613605565b9050919050565b61363561363082612022565b613612565b82525050565b60008160601b9050919050565b60006136538261363b565b9050919050565b600061366582613648565b9050919050565b61367d61367882611f28565b61365a565b82525050565b600061368f8289612bcc565b915061369b82886135ee565b6001820191506136ab8287613624565b6008820191506136bb828661339a565b6002820191506136cb828561366c565b6014820191506136db8284612bcc565b9150819050979650505050505050565b60006060820190506137006000830186612573565b61370d6020830185612573565b61371a6040830184612cf2565b94935050505056fea26469706673582212209bf314199577946fe5a1e1029a9cddc6ac94847baa708c94a4c6ccb0a8f1db3764736f6c63430008160033",
  "devdoc": {
    "errors": {
      "InvalidInitialization()": [
        {
          "details": "The contract is already initialized."
        }
      ],
      "NotInitializing()": [
        {
          "details": "The contract is not initializing."
        }
      ],
      "OwnableInvalidOwner(address)": [
        {
          "details": "The owner is not a valid owner account. (eg. `address(0)`)"
        }
      ],
      "OwnableUnauthorizedAccount(address)": [
        {
          "details": "The caller account is not authorized to perform an operation."
        }
      ],
      "SafeCastOverflowedUintDowncast(uint8,uint256)": [
        {
          "details": "Value doesn't fit in an uint of `bits` size."
        }
      ],
      "SafeERC20FailedOperation(address)": [
        {
          "details": "An operation with an ERC-20 token failed."
        }
      ]
    },
    "events": {
      "DataReceived(uint256)": {
        "params": {
          "data": "The value of the public state variable."
        }
      },
      "Initialized(uint64)": {
        "details": "Triggered when the contract has been initialized or reinitialized."
      }
    },
    "kind": "dev",
    "methods": {
      "__OAppCore_init(address,address)": {
        "details": "Constructor to initialize the OAppCore with the provided endpoint and delegate.The delegate typically should be set as the owner of the contract.",
        "params": {
          "_delegate": "The delegate capable of making OApp configurations inside of the endpoint.",
          "_endpoint": "The address of the LOCAL Layer Zero endpoint."
        }
      },
      "__OAppUpgradeable_init(address,address)": {
        "details": "Constructor to initialize the OApp with the provided endpoint and owner.",
        "params": {
          "_delegate": "The delegate capable of making OApp configurations inside of the endpoint.",
          "_endpoint": "The address of the LOCAL LayerZero endpoint."
        }
      },
      "allowInitializePath((uint32,bytes32,uint64))": {
        "details": "This indicates to the endpoint that the OApp has enabled msgs for this particular path to be received.This defaults to assuming if a peer has been set, its initialized. Can be overridden by the OApp if there is other logic to determine this.",
        "params": {
          "origin": "The origin information containing the source endpoint and sender address."
        },
        "returns": {
          "_0": "Whether the path has been initialized."
        }
      },
      "combineOptions(uint32,uint16,bytes)": {
        "details": "If there is an enforced lzReceive option: - {gasLimit: 200k, msg.value: 1 ether} AND a caller supplies a lzReceive option: {gasLimit: 100k, msg.value: 0.5 ether} - The resulting options will be {gasLimit: 300k, msg.value: 1.5 ether} when the message is executed on the remote lzReceive() function.This presence of duplicated options is handled off-chain in the verifier/executor.",
        "params": {
          "_eid": "The endpoint ID.",
          "_extraOptions": "Additional options passed by the caller.",
          "_msgType": "The OAPP message type."
        },
        "returns": {
          "_0": "options The combination of caller specified options AND enforced options."
        }
      },
      "initialize(address,address,uint32)": {
        "params": {
          "_delegate": "The address that will have ownership privileges.",
          "_endpoint": "The local chain's LayerZero Endpoint V2 address",
          "_readChannel": "The LayerZero read channel ID."
        }
      },
      "isComposeMsgSender((uint32,bytes32,uint64),bytes,address)": {
        "details": "_origin The origin information containing the source endpoint and sender address.  - srcEid: The source chain endpoint ID.  - sender: The sender address on the src chain.  - nonce: The nonce of the message._message The lzReceive payload.Applications can optionally choose to implement separate composeMsg senders that are NOT the bridging layer.The default sender IS the OAppReceiver implementer.",
        "params": {
          "_sender": "The sender address."
        },
        "returns": {
          "_0": "isSender Is a valid sender."
        }
      },
      "lzReceive((uint32,bytes32,uint64),bytes32,bytes,address,bytes)": {
        "details": "Entry point for receiving messages or packets from the endpoint.Entry point for receiving msg/packet from the LayerZero endpoint.",
        "params": {
          "_executor": "The address of the executor for the received message.",
          "_extraData": "Additional arbitrary data provided by the corresponding executor.",
          "_guid": "The unique identifier for the received LayerZero message.",
          "_message": "The payload of the received message.",
          "_origin": "The origin information containing the source endpoint and sender address.  - srcEid: The source chain endpoint ID.  - sender: The sender address on the src chain.  - nonce: The nonce of the message."
        }
      },
      "nextNonce(uint32,bytes32)": {
        "details": "_srcEid The source endpoint ID._sender The sender address.The path nonce starts from 1. If 0 is returned it means that there is NO nonce ordered enforcement.Is required by the off-chain executor to determine the OApp expects msg execution is ordered.This is also enforced by the OApp.By default this is NOT enabled. ie. nextNonce is hardcoded to return 0.",
        "returns": {
          "nonce": "The next nonce."
        }
      },
      "oAppVersion()": {
        "returns": {
          "receiverVersion": "The version of the OAppReceiver.sol implementation.",
          "senderVersion": "The version of the OAppSender.sol implementation."
        }
      },
      "owner()": {
        "details": "Returns the address of the current owner."
      },
      "quoteReadFee(address,uint32,bytes)": {
        "params": {
          "_extraOptions": "Additional messaging options.",
          "_targetContractAddress": "The address of the contract on the target chain containing the `data` variable.",
          "_targetEid": "The target chain's Endpoint ID."
        },
        "returns": {
          "fee": "The estimated messaging fee."
        }
      },
      "readData(address,uint32,bytes)": {
        "details": "The caller must send enough ETH to cover the messaging fee.",
        "params": {
          "_extraOptions": "Additional messaging options.",
          "_targetContractAddress": "The address of the contract on the target chain containing the `data` variable.",
          "_targetEid": "The target chain's Endpoint ID."
        },
        "returns": {
          "receipt": "The LayerZero messaging receipt for the request."
        }
      },
      "renounceOwnership()": {
        "details": "Leaves the contract without owner. It will not be possible to call `onlyOwner` functions. Can only be called by the current owner. NOTE: Renouncing ownership will leave the contract without an owner, thereby disabling any functionality that is only available to the owner."
      },
      "setDelegate(address)": {
        "details": "Only the owner/admin of the OApp can call this function.Provides the ability for a delegate to set configs, on behalf of the OApp, directly on the Endpoint contract.",
        "params": {
          "_delegate": "The address of the delegate to be set."
        }
      },
      "setEnforcedOptions((uint32,uint16,bytes)[])": {
        "details": "Sets the enforced options for specific endpoint and message type combinations.Only the owner/admin of the OApp can call this function.Provides a way for the OApp to enforce things like paying for PreCrime, AND/OR minimum dst lzReceive gas amounts etc.These enforced options can vary as the potential options/execution on the remote may differ as per the msgType. eg. Amount of lzReceive() gas necessary to deliver a lzCompose() message adds overhead you dont want to pay if you are only making a standard LayerZero message ie. lzReceive() WITHOUT sendCompose().",
        "params": {
          "_enforcedOptions": "An array of EnforcedOptionParam structures specifying enforced options."
        }
      },
      "setPeer(uint32,bytes32)": {
        "details": "Only the owner/admin of the OApp can call this function.Indicates that the peer is trusted to send LayerZero messages to this OApp.Set this to bytes32(0) to remove the peer address.Peer is a bytes32 to accommodate non-evm chains.",
        "params": {
          "_eid": "The endpoint ID.",
          "_peer": "The address of the peer to be associated with the corresponding endpoint."
        }
      },
      "setReadChannel(uint32,bool)": {
        "details": "Only callable by the owner.",
        "params": {
          "_active": "Flag to activate or deactivate the channel.",
          "_channelId": "The channel ID to set."
        }
      },
      "transferOwnership(address)": {
        "details": "Transfers ownership of the contract to a new account (`newOwner`). Can only be called by the current owner."
      }
    },
    "version": 1
  },
  "userdoc": {
    "kind": "user",
    "methods": {
      "allowInitializePath((uint32,bytes32,uint64))": {
        "notice": "Checks if the path initialization is allowed based on the provided origin."
      },
      "combineOptions(uint32,uint16,bytes)": {
        "notice": "Combines options for a given endpoint and message type."
      },
      "endpoint()": {
        "notice": "Retrieves the LayerZero endpoint associated with the OApp."
      },
      "initialize(address,address,uint32)": {
        "notice": "Initialize with Endpoint V2 and owner address"
      },
      "isComposeMsgSender((uint32,bytes32,uint64),bytes,address)": {
        "notice": "Indicates whether an address is an approved composeMsg sender to the Endpoint."
      },
      "nextNonce(uint32,bytes32)": {
        "notice": "Retrieves the next nonce for a given source endpoint and sender address."
      },
      "oAppVersion()": {
        "notice": "Retrieves the OApp version information."
      },
      "peers(uint32)": {
        "notice": "Retrieves the peer (OApp) associated with a corresponding endpoint."
      },
      "quoteReadFee(address,uint32,bytes)": {
        "notice": "Estimates the messaging fee required to perform the read operation."
      },
      "readData(address,uint32,bytes)": {
        "notice": "Sends a read request to fetch the public state variable `data`."
      },
      "setDelegate(address)": {
        "notice": "Sets the delegate address for the OApp."
      },
      "setPeer(uint32,bytes32)": {
        "notice": "Sets the peer address (OApp instance) for a corresponding endpoint."
      },
      "setReadChannel(uint32,bool)": {
        "notice": "Sets the LayerZero read channel."
      }
    },
    "version": 1
  },
  "storageLayout": {
    "storage": [
      {
        "astId": 5515,
        "contract": "contracts/OAppReadUpgradable.sol:ReadPublicUpgradeable",
        "label": "endpoint",
        "offset": 0,
        "slot": "0",
        "type": "t_contract(ILayerZeroEndpointV2)202"
      },
      {
        "astId": 5519,
        "contract": "contracts/OAppReadUpgradable.sol:ReadPublicUpgradeable",
        "label": "peers",
        "offset": 0,
        "slot": "1",
        "type": "t_mapping(t_uint32,t_bytes32)"
      },
      {
        "astId": 5666,
        "contract": "contracts/OAppReadUpgradable.sol:ReadPublicUpgradeable",
        "label": "enforcedOptions",
        "offset": 0,
        "slot": "2",
        "type": "t_mapping(t_uint32,t_mapping(t_uint16,t_bytes_storage))"
      },
      {
        "astId": 6291,
        "contract": "contracts/OAppReadUpgradable.sol:ReadPublicUpgradeable",
        "label": "READ_CHANNEL",
        "offset": 0,
        "slot": "3",
        "type": "t_uint32"
      }
    ],
    "types": {
      "t_bytes32": {
        "encoding": "inplace",
        "label": "bytes32",
        "numberOfBytes": "32"
      },
      "t_bytes_storage": {
        "encoding": "bytes",
        "label": "bytes",
        "numberOfBytes": "32"
      },
      "t_contract(ILayerZeroEndpointV2)202": {
        "encoding": "inplace",
        "label": "contract ILayerZeroEndpointV2",
        "numberOfBytes": "20"
      },
      "t_mapping(t_uint16,t_bytes_storage)": {
        "encoding": "mapping",
        "key": "t_uint16",
        "label": "mapping(uint16 => bytes)",
        "numberOfBytes": "32",
        "value": "t_bytes_storage"
      },
      "t_mapping(t_uint32,t_bytes32)": {
        "encoding": "mapping",
        "key": "t_uint32",
        "label": "mapping(uint32 => bytes32)",
        "numberOfBytes": "32",
        "value": "t_bytes32"
      },
      "t_mapping(t_uint32,t_mapping(t_uint16,t_bytes_storage))": {
        "encoding": "mapping",
        "key": "t_uint32",
        "label": "mapping(uint32 => mapping(uint16 => bytes))",
        "numberOfBytes": "32",
        "value": "t_mapping(t_uint16,t_bytes_storage)"
      },
      "t_uint16": {
        "encoding": "inplace",
        "label": "uint16",
        "numberOfBytes": "2"
      },
      "t_uint32": {
        "encoding": "inplace",
        "label": "uint32",
        "numberOfBytes": "4"
      }
    }
  }
}