{
  "address": "0xdD21ABd212FB623d2C6B226C7aE7006cE521a669",
  "abi": [
    {
      "inputs": [
        {
          "internalType": "address",
          "name": "_endpoint",
          "type": "address"
        },
        {
          "internalType": "address",
          "name": "_delegate",
          "type": "address"
        },
        {
          "internalType": "uint32",
          "name": "_readChannel",
          "type": "uint32"
        }
      ],
      "stateMutability": "nonpayable",
      "type": "constructor"
    },
    {
      "inputs": [],
      "name": "InvalidDelegate",
      "type": "error"
    },
    {
      "inputs": [],
      "name": "InvalidEndpointCall",
      "type": "error"
    },
    {
      "inputs": [
        {
          "internalType": "bytes",
          "name": "options",
          "type": "bytes"
        }
      ],
      "name": "InvalidOptions",
      "type": "error"
    },
    {
      "inputs": [],
      "name": "LzTokenUnavailable",
      "type": "error"
    },
    {
      "inputs": [
        {
          "internalType": "uint32",
          "name": "eid",
          "type": "uint32"
        }
      ],
      "name": "NoPeer",
      "type": "error"
    },
    {
      "inputs": [
        {
          "internalType": "uint256",
          "name": "msgValue",
          "type": "uint256"
        }
      ],
      "name": "NotEnoughNative",
      "type": "error"
    },
    {
      "inputs": [
        {
          "internalType": "address",
          "name": "addr",
          "type": "address"
        }
      ],
      "name": "OnlyEndpoint",
      "type": "error"
    },
    {
      "inputs": [
        {
          "internalType": "uint32",
          "name": "eid",
          "type": "uint32"
        },
        {
          "internalType": "bytes32",
          "name": "sender",
          "type": "bytes32"
        }
      ],
      "name": "OnlyPeer",
      "type": "error"
    },
    {
      "inputs": [
        {
          "internalType": "address",
          "name": "owner",
          "type": "address"
        }
      ],
      "name": "OwnableInvalidOwner",
      "type": "error"
    },
    {
      "inputs": [
        {
          "internalType": "address",
          "name": "account",
          "type": "address"
        }
      ],
      "name": "OwnableUnauthorizedAccount",
      "type": "error"
    },
    {
      "inputs": [
        {
          "internalType": "uint8",
          "name": "bits",
          "type": "uint8"
        },
        {
          "internalType": "uint256",
          "name": "value",
          "type": "uint256"
        }
      ],
      "name": "SafeCastOverflowedUintDowncast",
      "type": "error"
    },
    {
      "inputs": [
        {
          "internalType": "address",
          "name": "token",
          "type": "address"
        }
      ],
      "name": "SafeERC20FailedOperation",
      "type": "error"
    },
    {
      "anonymous": false,
      "inputs": [
        {
          "indexed": false,
          "internalType": "uint256",
          "name": "data",
          "type": "uint256"
        }
      ],
      "name": "DataReceived",
      "type": "event"
    },
    {
      "anonymous": false,
      "inputs": [
        {
          "components": [
            {
              "internalType": "uint32",
              "name": "eid",
              "type": "uint32"
            },
            {
              "internalType": "uint16",
              "name": "msgType",
              "type": "uint16"
            },
            {
              "internalType": "bytes",
              "name": "options",
              "type": "bytes"
            }
          ],
          "indexed": false,
          "internalType": "struct EnforcedOptionParam[]",
          "name": "_enforcedOptions",
          "type": "tuple[]"
        }
      ],
      "name": "EnforcedOptionSet",
      "type": "event"
    },
    {
      "anonymous": false,
      "inputs": [
        {
          "indexed": true,
          "internalType": "address",
          "name": "previousOwner",
          "type": "address"
        },
        {
          "indexed": true,
          "internalType": "address",
          "name": "newOwner",
          "type": "address"
        }
      ],
      "name": "OwnershipTransferred",
      "type": "event"
    },
    {
      "anonymous": false,
      "inputs": [
        {
          "indexed": false,
          "internalType": "uint32",
          "name": "eid",
          "type": "uint32"
        },
        {
          "indexed": false,
          "internalType": "bytes32",
          "name": "peer",
          "type": "bytes32"
        }
      ],
      "name": "PeerSet",
      "type": "event"
    },
    {
      "inputs": [],
      "name": "READ_CHANNEL",
      "outputs": [
        {
          "internalType": "uint32",
          "name": "",
          "type": "uint32"
        }
      ],
      "stateMutability": "view",
      "type": "function"
    },
    {
      "inputs": [],
      "name": "READ_TYPE",
      "outputs": [
        {
          "internalType": "uint16",
          "name": "",
          "type": "uint16"
        }
      ],
      "stateMutability": "view",
      "type": "function"
    },
    {
      "inputs": [
        {
          "components": [
            {
              "internalType": "uint32",
              "name": "srcEid",
              "type": "uint32"
            },
            {
              "internalType": "bytes32",
              "name": "sender",
              "type": "bytes32"
            },
            {
              "internalType": "uint64",
              "name": "nonce",
              "type": "uint64"
            }
          ],
          "internalType": "struct Origin",
          "name": "origin",
          "type": "tuple"
        }
      ],
      "name": "allowInitializePath",
      "outputs": [
        {
          "internalType": "bool",
          "name": "",
          "type": "bool"
        }
      ],
      "stateMutability": "view",
      "type": "function"
    },
    {
      "inputs": [
        {
          "internalType": "uint32",
          "name": "_eid",
          "type": "uint32"
        },
        {
          "internalType": "uint16",
          "name": "_msgType",
          "type": "uint16"
        },
        {
          "internalType": "bytes",
          "name": "_extraOptions",
          "type": "bytes"
        }
      ],
      "name": "combineOptions",
      "outputs": [
        {
          "internalType": "bytes",
          "name": "",
          "type": "bytes"
        }
      ],
      "stateMutability": "view",
      "type": "function"
    },
    {
      "inputs": [],
      "name": "endpoint",
      "outputs": [
        {
          "internalType": "contract ILayerZeroEndpointV2",
          "name": "",
          "type": "address"
        }
      ],
      "stateMutability": "view",
      "type": "function"
    },
    {
      "inputs": [
        {
          "internalType": "uint32",
          "name": "eid",
          "type": "uint32"
        },
        {
          "internalType": "uint16",
          "name": "msgType",
          "type": "uint16"
        }
      ],
      "name": "enforcedOptions",
      "outputs": [
        {
          "internalType": "bytes",
          "name": "enforcedOption",
          "type": "bytes"
        }
      ],
      "stateMutability": "view",
      "type": "function"
    },
    {
      "inputs": [
        {
          "components": [
            {
              "internalType": "uint32",
              "name": "srcEid",
              "type": "uint32"
            },
            {
              "internalType": "bytes32",
              "name": "sender",
              "type": "bytes32"
            },
            {
              "internalType": "uint64",
              "name": "nonce",
              "type": "uint64"
            }
          ],
          "internalType": "struct Origin",
          "name": "",
          "type": "tuple"
        },
        {
          "internalType": "bytes",
          "name": "",
          "type": "bytes"
        },
        {
          "internalType": "address",
          "name": "_sender",
          "type": "address"
        }
      ],
      "name": "isComposeMsgSender",
      "outputs": [
        {
          "internalType": "bool",
          "name": "",
          "type": "bool"
        }
      ],
      "stateMutability": "view",
      "type": "function"
    },
    {
      "inputs": [
        {
          "components": [
            {
              "internalType": "uint32",
              "name": "srcEid",
              "type": "uint32"
            },
            {
              "internalType": "bytes32",
              "name": "sender",
              "type": "bytes32"
            },
            {
              "internalType": "uint64",
              "name": "nonce",
              "type": "uint64"
            }
          ],
          "internalType": "struct Origin",
          "name": "_origin",
          "type": "tuple"
        },
        {
          "internalType": "bytes32",
          "name": "_guid",
          "type": "bytes32"
        },
        {
          "internalType": "bytes",
          "name": "_message",
          "type": "bytes"
        },
        {
          "internalType": "address",
          "name": "_executor",
          "type": "address"
        },
        {
          "internalType": "bytes",
          "name": "_extraData",
          "type": "bytes"
        }
      ],
      "name": "lzReceive",
      "outputs": [],
      "stateMutability": "payable",
      "type": "function"
    },
    {
      "inputs": [
        {
          "internalType": "uint32",
          "name": "",
          "type": "uint32"
        },
        {
          "internalType": "bytes32",
          "name": "",
          "type": "bytes32"
        }
      ],
      "name": "nextNonce",
      "outputs": [
        {
          "internalType": "uint64",
          "name": "nonce",
          "type": "uint64"
        }
      ],
      "stateMutability": "view",
      "type": "function"
    },
    {
      "inputs": [],
      "name": "oAppVersion",
      "outputs": [
        {
          "internalType": "uint64",
          "name": "senderVersion",
          "type": "uint64"
        },
        {
          "internalType": "uint64",
          "name": "receiverVersion",
          "type": "uint64"
        }
      ],
      "stateMutability": "pure",
      "type": "function"
    },
    {
      "inputs": [],
      "name": "owner",
      "outputs": [
        {
          "internalType": "address",
          "name": "",
          "type": "address"
        }
      ],
      "stateMutability": "view",
      "type": "function"
    },
    {
      "inputs": [
        {
          "internalType": "uint32",
          "name": "eid",
          "type": "uint32"
        }
      ],
      "name": "peers",
      "outputs": [
        {
          "internalType": "bytes32",
          "name": "peer",
          "type": "bytes32"
        }
      ],
      "stateMutability": "view",
      "type": "function"
    },
    {
      "inputs": [
        {
          "internalType": "address",
          "name": "_targetContractAddress",
          "type": "address"
        },
        {
          "internalType": "uint32",
          "name": "_targetEid",
          "type": "uint32"
        },
        {
          "internalType": "bytes",
          "name": "_extraOptions",
          "type": "bytes"
        }
      ],
      "name": "quoteReadFee",
      "outputs": [
        {
          "components": [
            {
              "internalType": "uint256",
              "name": "nativeFee",
              "type": "uint256"
            },
            {
              "internalType": "uint256",
              "name": "lzTokenFee",
              "type": "uint256"
            }
          ],
          "internalType": "struct MessagingFee",
          "name": "fee",
          "type": "tuple"
        }
      ],
      "stateMutability": "view",
      "type": "function"
    },
    {
      "inputs": [
        {
          "internalType": "address",
          "name": "_targetContractAddress",
          "type": "address"
        },
        {
          "internalType": "uint32",
          "name": "_targetEid",
          "type": "uint32"
        },
        {
          "internalType": "bytes",
          "name": "_extraOptions",
          "type": "bytes"
        }
      ],
      "name": "readData",
      "outputs": [
        {
          "components": [
            {
              "internalType": "bytes32",
              "name": "guid",
              "type": "bytes32"
            },
            {
              "internalType": "uint64",
              "name": "nonce",
              "type": "uint64"
            },
            {
              "components": [
                {
                  "internalType": "uint256",
                  "name": "nativeFee",
                  "type": "uint256"
                },
                {
                  "internalType": "uint256",
                  "name": "lzTokenFee",
                  "type": "uint256"
                }
              ],
              "internalType": "struct MessagingFee",
              "name": "fee",
              "type": "tuple"
            }
          ],
          "internalType": "struct MessagingReceipt",
          "name": "receipt",
          "type": "tuple"
        }
      ],
      "stateMutability": "payable",
      "type": "function"
    },
    {
      "inputs": [],
      "name": "renounceOwnership",
      "outputs": [],
      "stateMutability": "nonpayable",
      "type": "function"
    },
    {
      "inputs": [
        {
          "internalType": "address",
          "name": "_delegate",
          "type": "address"
        }
      ],
      "name": "setDelegate",
      "outputs": [],
      "stateMutability": "nonpayable",
      "type": "function"
    },
    {
      "inputs": [
        {
          "components": [
            {
              "internalType": "uint32",
              "name": "eid",
              "type": "uint32"
            },
            {
              "internalType": "uint16",
              "name": "msgType",
              "type": "uint16"
            },
            {
              "internalType": "bytes",
              "name": "options",
              "type": "bytes"
            }
          ],
          "internalType": "struct EnforcedOptionParam[]",
          "name": "_enforcedOptions",
          "type": "tuple[]"
        }
      ],
      "name": "setEnforcedOptions",
      "outputs": [],
      "stateMutability": "nonpayable",
      "type": "function"
    },
    {
      "inputs": [
        {
          "internalType": "uint32",
          "name": "_eid",
          "type": "uint32"
        },
        {
          "internalType": "bytes32",
          "name": "_peer",
          "type": "bytes32"
        }
      ],
      "name": "setPeer",
      "outputs": [],
      "stateMutability": "nonpayable",
      "type": "function"
    },
    {
      "inputs": [
        {
          "internalType": "uint32",
          "name": "_channelId",
          "type": "uint32"
        },
        {
          "internalType": "bool",
          "name": "_active",
          "type": "bool"
        }
      ],
      "name": "setReadChannel",
      "outputs": [],
      "stateMutability": "nonpayable",
      "type": "function"
    },
    {
      "inputs": [
        {
          "internalType": "address",
          "name": "newOwner",
          "type": "address"
        }
      ],
      "name": "transferOwnership",
      "outputs": [],
      "stateMutability": "nonpayable",
      "type": "function"
    }
  ],
  "transactionHash": "0xd1d974b23256c330f5970c7a8dd6759d1165c10153a3d832696b19720ef877d7",
  "args": [
    "0x6EDCE65403992e310A62460808c4b910D972f10f",
    "0xd23714A6662eA86271765acF906AECA80EF7d6Fa",
    4294967295
  ],
  "numDeployments": 1,
  "solcInputHash": "6a9b1434317e6de0c5d626fd30c9d249",
  "bytecode": "0x60a06040523480156200001157600080fd5b506040516200361e3803806200361e833981810160405281019062000037919062000418565b82828181818133600073ffffffffffffffffffffffffffffffffffffffff168173ffffffffffffffffffffffffffffffffffffffff1603620000b35760006040517f1e4fbdf7000000000000000000000000000000000000000000000000000000008152600401620000aa919062000485565b60405180910390fd5b620000c4816200022360201b60201c565b508173ffffffffffffffffffffffffffffffffffffffff1660808173ffffffffffffffffffffffffffffffffffffffff1681525050600073ffffffffffffffffffffffffffffffffffffffff168173ffffffffffffffffffffffffffffffffffffffff160362000160576040517fb586360400000000000000000000000000000000000000000000000000000000815260040160405180910390fd5b60805173ffffffffffffffffffffffffffffffffffffffff1663ca5eb5e1826040518263ffffffff1660e01b81526004016200019d919062000485565b600060405180830381600087803b158015620001b857600080fd5b505af1158015620001cd573d6000803e3d6000fd5b5050505050505050505080600360006101000a81548163ffffffff021916908363ffffffff1602179055506200021a816200020e30620002e760201b60201c565b6200030a60201b60201c565b505050620004fb565b60008060009054906101000a900473ffffffffffffffffffffffffffffffffffffffff169050816000806101000a81548173ffffffffffffffffffffffffffffffffffffffff021916908373ffffffffffffffffffffffffffffffffffffffff1602179055508173ffffffffffffffffffffffffffffffffffffffff168173ffffffffffffffffffffffffffffffffffffffff167f8be0079c531659141344cd1fd0a4f28419497f9722a3daafe3b4186f6b6457e060405160405180910390a35050565b60008173ffffffffffffffffffffffffffffffffffffffff1660001b9050919050565b80600160008463ffffffff1663ffffffff168152602001908152602001600020819055507f238399d427b947898edb290f5ff0f9109849b1c3ba196a42e35f00c50a54b98b828260405162000361929190620004ce565b60405180910390a15050565b600080fd5b600073ffffffffffffffffffffffffffffffffffffffff82169050919050565b60006200039f8262000372565b9050919050565b620003b18162000392565b8114620003bd57600080fd5b50565b600081519050620003d181620003a6565b92915050565b600063ffffffff82169050919050565b620003f281620003d7565b8114620003fe57600080fd5b50565b6000815190506200041281620003e7565b92915050565b6000806000606084860312156200043457620004336200036d565b5b60006200044486828701620003c0565b93505060206200045786828701620003c0565b92505060406200046a8682870162000401565b9150509250925092565b6200047f8162000392565b82525050565b60006020820190506200049c600083018462000474565b92915050565b620004ad81620003d7565b82525050565b6000819050919050565b620004c881620004b3565b82525050565b6000604082019050620004e56000830185620004a2565b620004f46020830184620004bd565b9392505050565b6080516130dd62000541600039600081816104f0015281816106e801528181610a4d01528181611055015281816112ba0152818161148e015261158901526130dd6000f3fe60806040526004361061011f5760003560e01c806382413eac116100a0578063ca5eb5e111610064578063ca5eb5e1146103e2578063e5361ee81461040b578063f0a9e48114610448578063f2fde38b14610471578063ff7bd03d1461049a5761011f565b806382413eac146102d75780638da5cb5b14610314578063b98bd0701461033f578063bb0b6a5314610368578063bc70b354146103a55761011f565b80635535d461116100e75780635535d461146101eb5780635e280f1114610228578063715018a6146102535780637d25a05e1461026a5780637f55dfe3146102a75761011f565b806313137d651461012457806317442b701461014057806331cf12971461016c5780633400288b146101975780633859d937146101c0575b600080fd5b61013e600480360381019061013991906119d4565b6104d7565b005b34801561014c57600080fd5b506101556105f9565b604051610163929190611ab3565b60405180910390f35b34801561017857600080fd5b50610181610608565b60405161018e9190611af9565b60405180910390f35b3480156101a357600080fd5b506101be60048036038101906101b99190611b50565b61060d565b005b3480156101cc57600080fd5b506101d5610623565b6040516101e29190611b9f565b60405180910390f35b3480156101f757600080fd5b50610212600480360381019061020d9190611be6565b610639565b60405161021f9190611cb6565b60405180910390f35b34801561023457600080fd5b5061023d6106e6565b60405161024a9190611d37565b60405180910390f35b34801561025f57600080fd5b5061026861070a565b005b34801561027657600080fd5b50610291600480360381019061028c9190611b50565b61071e565b60405161029e9190611d52565b60405180910390f35b6102c160048036038101906102bc9190611d6d565b610726565b6040516102ce9190611e89565b60405180910390f35b3480156102e357600080fd5b506102fe60048036038101906102f99190611ea4565b610799565b60405161030b9190611f33565b60405180910390f35b34801561032057600080fd5b506103296107d4565b6040516103369190611f5d565b60405180910390f35b34801561034b57600080fd5b5061036660048036038101906103619190611fce565b6107fd565b005b34801561037457600080fd5b5061038f600480360381019061038a919061201b565b61081e565b60405161039c9190612057565b60405180910390f35b3480156103b157600080fd5b506103cc60048036038101906103c79190612072565b610836565b6040516103d99190611cb6565b60405180910390f35b3480156103ee57600080fd5b50610409600480360381019061040491906120e6565b610a43565b005b34801561041757600080fd5b50610432600480360381019061042d9190611d6d565b610ad9565b60405161043f9190612142565b60405180910390f35b34801561045457600080fd5b5061046f600480360381019061046a9190612189565b610b31565b005b34801561047d57600080fd5b50610498600480360381019061049391906120e6565b610b7f565b005b3480156104a657600080fd5b506104c160048036038101906104bc91906121c9565b610c05565b6040516104ce9190611f33565b60405180910390f35b3373ffffffffffffffffffffffffffffffffffffffff167f000000000000000000000000000000000000000000000000000000000000000073ffffffffffffffffffffffffffffffffffffffff161461056757336040517f91ac5e4f00000000000000000000000000000000000000000000000000000000815260040161055e9190611f5d565b60405180910390fd5b8660200135610587886000016020810190610582919061201b565b610c46565b146105e15786600001602081019061059f919061201b565b87602001356040517fc26bebcc0000000000000000000000000000000000000000000000000000000081526004016105d89291906121f6565b60405180910390fd5b6105f087878787878787610cbb565b50505050505050565b60008060016002915091509091565b600181565b610615610d0f565b61061f8282610d96565b5050565b600360009054906101000a900463ffffffff1681565b60026020528160005260406000206020528060005260406000206000915091505080546106659061224e565b80601f01602080910402602001604051908101604052809291908181526020018280546106919061224e565b80156106de5780601f106106b3576101008083540402835291602001916106de565b820191906000526020600020905b8154815290600101906020018083116106c157829003601f168201915b505050505081565b7f000000000000000000000000000000000000000000000000000000000000000081565b610712610d0f565b61071c6000610df7565b565b600092915050565b61072e6117e8565b600061073a8686610ebb565b905061078e600360009054906101000a900463ffffffff1682610772600360009054906101000a900463ffffffff1660018989610836565b604051806040016040528034815260200160008152503361101f565b915050949350505050565b60003073ffffffffffffffffffffffffffffffffffffffff168273ffffffffffffffffffffffffffffffffffffffff16149050949350505050565b60008060009054906101000a900473ffffffffffffffffffffffffffffffffffffffff16905090565b610805610d0f565b61081a82829061081591906124ec565b61113b565b5050565b60016020528060005260406000206000915090505481565b60606000600260008763ffffffff1663ffffffff16815260200190815260200160002060008661ffff1661ffff168152602001908152602001600020805461087d9061224e565b80601f01602080910402602001604051908101604052809291908181526020018280546108a99061224e565b80156108f65780601f106108cb576101008083540402835291602001916108f6565b820191906000526020600020905b8154815290600101906020018083116108d957829003601f168201915b5050505050905060008151036109535783838080601f016020809104026020016040519081016040528093929190818152602001838380828437600081840152601f19601f82011690508083019250505050505050915050610a3b565b600084849050036109675780915050610a3b565b600284849050106109fc576109bf84848080601f016020809104026020016040519081016040528093929190818152602001838380828437600081840152601f19601f82011690508083019250505050505050611256565b80848460029080926109d39392919061250b565b6040516020016109e5939291906125a7565b604051602081830303815290604052915050610a3b565b83836040517f9a6d49cd000000000000000000000000000000000000000000000000000000008152600401610a329291906125fa565b60405180910390fd5b949350505050565b610a4b610d0f565b7f000000000000000000000000000000000000000000000000000000000000000073ffffffffffffffffffffffffffffffffffffffff1663ca5eb5e1826040518263ffffffff1660e01b8152600401610aa49190611f5d565b600060405180830381600087803b158015610abe57600080fd5b505af1158015610ad2573d6000803e3d6000fd5b5050505050565b610ae161181c565b610b27600360009054906101000a900463ffffffff16610b018787610ebb565b610b20600360009054906101000a900463ffffffff1660018888610836565b60006112b0565b9050949350505050565b610b39610d0f565b610b5a8282610b4b576000801b610b55565b610b5430611393565b5b610d96565b81600360006101000a81548163ffffffff021916908363ffffffff1602179055505050565b610b87610d0f565b600073ffffffffffffffffffffffffffffffffffffffff168173ffffffffffffffffffffffffffffffffffffffff1603610bf95760006040517f1e4fbdf7000000000000000000000000000000000000000000000000000000008152600401610bf09190611f5d565b60405180910390fd5b610c0281610df7565b50565b6000816020013560016000846000016020810190610c23919061201b565b63ffffffff1663ffffffff16815260200190815260200160002054149050919050565b600080600160008463ffffffff1663ffffffff1681526020019081526020016000205490506000801b8103610cb257826040517ff6ff4fb7000000000000000000000000000000000000000000000000000000008152600401610ca99190611b9f565b60405180910390fd5b80915050919050565b60008585810190610ccc919061264a565b90507ffb904851c5333a05398ce41f0fd2e5189b8afbcce9eea6cbf76e5b0f082846c981604051610cfd9190612686565b60405180910390a15050505050505050565b610d176113b6565b73ffffffffffffffffffffffffffffffffffffffff16610d356107d4565b73ffffffffffffffffffffffffffffffffffffffff1614610d9457610d586113b6565b6040517f118cdaa7000000000000000000000000000000000000000000000000000000008152600401610d8b9190611f5d565b60405180910390fd5b565b80600160008463ffffffff1663ffffffff168152602001908152602001600020819055507f238399d427b947898edb290f5ff0f9109849b1c3ba196a42e35f00c50a54b98b8282604051610deb9291906121f6565b60405180910390a15050565b60008060009054906101000a900473ffffffffffffffffffffffffffffffffffffffff169050816000806101000a81548173ffffffffffffffffffffffffffffffffffffffff021916908373ffffffffffffffffffffffffffffffffffffffff1602179055508173ffffffffffffffffffffffffffffffffffffffff168173ffffffffffffffffffffffffffffffffffffffff167f8be0079c531659141344cd1fd0a4f28419497f9722a3daafe3b4186f6b6457e060405160405180910390a35050565b606060006398d5fdca60e01b604051602401604051602081830303815290604052907bffffffffffffffffffffffffffffffffffffffffffffffffffffffff19166020820180517bffffffffffffffffffffffffffffffffffffffffffffffffffffffff838183161783525050505090506000600167ffffffffffffffff811115610f4957610f4861227f565b5b604051908082528060200260200182016040528015610f8257816020015b610f6f611836565b815260200190600190039081610f675790505b5090506040518060e00160405280600161ffff1681526020018563ffffffff1681526020016000151581526020014267ffffffffffffffff168152602001600f61ffff1681526020018673ffffffffffffffffffffffffffffffffffffffff1681526020018381525081600081518110610fff57610ffe6126a1565b5b60200260200101819052506110156000826113be565b9250505092915050565b6110276117e8565b6000611036846000015161143c565b905060008460200151111561105357611052846020015161148a565b5b7f000000000000000000000000000000000000000000000000000000000000000073ffffffffffffffffffffffffffffffffffffffff16632637a450826040518060a001604052808b63ffffffff1681526020016110b08c610c46565b81526020018a815260200189815260200160008960200151111515815250866040518463ffffffff1660e01b81526004016110ec9291906127b5565b60806040518083038185885af115801561110a573d6000803e3d6000fd5b50505050506040513d601f19601f8201168201806040525081019061112f91906128ef565b91505095945050505050565b60005b815181101561121b5761116e82828151811061115d5761115c6126a1565b5b602002602001015160400151611256565b818181518110611181576111806126a1565b5b602002602001015160400151600260008484815181106111a4576111a36126a1565b5b60200260200101516000015163ffffffff1663ffffffff16815260200190815260200160002060008484815181106111df576111de6126a1565b5b60200260200101516020015161ffff1661ffff168152602001908152602001600020908161120d9190612abe565b50808060010191505061113e565b507fbe4864a8e820971c0247f5992e2da559595f7bf076a21cb5928d443d2a13b6748160405161124b9190612cb1565b60405180910390a150565b600060028201519050600361ffff168161ffff16146112ac57816040517f9a6d49cd0000000000000000000000000000000000000000000000000000000081526004016112a39190611cb6565b60405180910390fd5b5050565b6112b861181c565b7f000000000000000000000000000000000000000000000000000000000000000073ffffffffffffffffffffffffffffffffffffffff1663ddc28c586040518060a001604052808863ffffffff16815260200161131489610c46565b8152602001878152602001868152602001851515815250306040518363ffffffff1660e01b81526004016113499291906127b5565b6040805180830381865afa158015611365573d6000803e3d6000fd5b505050506040513d601f19601f820116820180604052508101906113899190612cd3565b9050949350505050565b60008173ffffffffffffffffffffffffffffffffffffffff1660001b9050919050565b600033905090565b606060006001846113cf85516115d4565b6040516020016113e193929190612d36565b604051602081830303815290604052905060005b83518110156114315761142282858381518110611415576114146126a1565b5b602002602001015161162a565b915080806001019150506113f5565b508091505092915050565b600081341461148257346040517f9f7041200000000000000000000000000000000000000000000000000000000081526004016114799190612686565b60405180910390fd5b819050919050565b60007f000000000000000000000000000000000000000000000000000000000000000073ffffffffffffffffffffffffffffffffffffffff1663e4fe1d946040518163ffffffff1660e01b8152600401602060405180830381865afa1580156114f7573d6000803e3d6000fd5b505050506040513d601f19601f8201168201806040525081019061151b9190612d88565b9050600073ffffffffffffffffffffffffffffffffffffffff168173ffffffffffffffffffffffffffffffffffffffff1603611583576040517f5373352a00000000000000000000000000000000000000000000000000000000815260040160405180910390fd5b6115d0337f0000000000000000000000000000000000000000000000000000000000000000848473ffffffffffffffffffffffffffffffffffffffff166116c4909392919063ffffffff16565b5050565b600061ffff8016821115611622576010826040517f6dfcc650000000000000000000000000000000000000000000000000000000008152600401611619929190612dfd565b60405180910390fd5b819050919050565b606060008360018460000151600161165260238860c001515161164d9190612e55565b6115d4565b876020015160405160200161166c96959493929190612ef5565b6040516020818303038152906040529050808360400151846060015185608001518660a001518760c001516040516020016116ac96959493929190613008565b60405160208183030381529060405291505092915050565b611740848573ffffffffffffffffffffffffffffffffffffffff166323b872dd8686866040516024016116f993929190613070565b604051602081830303815290604052915060e01b6020820180517bffffffffffffffffffffffffffffffffffffffffffffffffffffffff8381831617835250505050611746565b50505050565b600080602060008451602086016000885af180611769576040513d6000823e3d81fd5b3d9250600051915050600082146117845760018114156117a0565b60008473ffffffffffffffffffffffffffffffffffffffff163b145b156117e257836040517f5274afe70000000000000000000000000000000000000000000000000000000081526004016117d99190611f5d565b60405180910390fd5b50505050565b604051806060016040528060008019168152602001600067ffffffffffffffff16815260200161181661181c565b81525090565b604051806040016040528060008152602001600081525090565b6040518060e00160405280600061ffff168152602001600063ffffffff168152602001600015158152602001600067ffffffffffffffff168152602001600061ffff168152602001600073ffffffffffffffffffffffffffffffffffffffff168152602001606081525090565b6000604051905090565b600080fd5b600080fd5b600080fd5b6000606082840312156118d2576118d16118b7565b5b81905092915050565b6000819050919050565b6118ee816118db565b81146118f957600080fd5b50565b60008135905061190b816118e5565b92915050565b600080fd5b600080fd5b600080fd5b60008083601f84011261193657611935611911565b5b8235905067ffffffffffffffff81111561195357611952611916565b5b60208301915083600182028301111561196f5761196e61191b565b5b9250929050565b600073ffffffffffffffffffffffffffffffffffffffff82169050919050565b60006119a182611976565b9050919050565b6119b181611996565b81146119bc57600080fd5b50565b6000813590506119ce816119a8565b92915050565b600080600080600080600060e0888a0312156119f3576119f26118ad565b5b6000611a018a828b016118bc565b9750506060611a128a828b016118fc565b965050608088013567ffffffffffffffff811115611a3357611a326118b2565b5b611a3f8a828b01611920565b955095505060a0611a528a828b016119bf565b93505060c088013567ffffffffffffffff811115611a7357611a726118b2565b5b611a7f8a828b01611920565b925092505092959891949750929550565b600067ffffffffffffffff82169050919050565b611aad81611a90565b82525050565b6000604082019050611ac86000830185611aa4565b611ad56020830184611aa4565b9392505050565b600061ffff82169050919050565b611af381611adc565b82525050565b6000602082019050611b0e6000830184611aea565b92915050565b600063ffffffff82169050919050565b611b2d81611b14565b8114611b3857600080fd5b50565b600081359050611b4a81611b24565b92915050565b60008060408385031215611b6757611b666118ad565b5b6000611b7585828601611b3b565b9250506020611b86858286016118fc565b9150509250929050565b611b9981611b14565b82525050565b6000602082019050611bb46000830184611b90565b92915050565b611bc381611adc565b8114611bce57600080fd5b50565b600081359050611be081611bba565b92915050565b60008060408385031215611bfd57611bfc6118ad565b5b6000611c0b85828601611b3b565b9250506020611c1c85828601611bd1565b9150509250929050565b600081519050919050565b600082825260208201905092915050565b60005b83811015611c60578082015181840152602081019050611c45565b60008484015250505050565b6000601f19601f8301169050919050565b6000611c8882611c26565b611c928185611c31565b9350611ca2818560208601611c42565b611cab81611c6c565b840191505092915050565b60006020820190508181036000830152611cd08184611c7d565b905092915050565b6000819050919050565b6000611cfd611cf8611cf384611976565b611cd8565b611976565b9050919050565b6000611d0f82611ce2565b9050919050565b6000611d2182611d04565b9050919050565b611d3181611d16565b82525050565b6000602082019050611d4c6000830184611d28565b92915050565b6000602082019050611d676000830184611aa4565b92915050565b60008060008060608587031215611d8757611d866118ad565b5b6000611d95878288016119bf565b9450506020611da687828801611b3b565b935050604085013567ffffffffffffffff811115611dc757611dc66118b2565b5b611dd387828801611920565b925092505092959194509250565b611dea816118db565b82525050565b611df981611a90565b82525050565b6000819050919050565b611e1281611dff565b82525050565b604082016000820151611e2e6000850182611e09565b506020820151611e416020850182611e09565b50505050565b608082016000820151611e5d6000850182611de1565b506020820151611e706020850182611df0565b506040820151611e836040850182611e18565b50505050565b6000608082019050611e9e6000830184611e47565b92915050565b60008060008060a08587031215611ebe57611ebd6118ad565b5b6000611ecc878288016118bc565b945050606085013567ffffffffffffffff811115611eed57611eec6118b2565b5b611ef987828801611920565b93509350506080611f0c878288016119bf565b91505092959194509250565b60008115159050919050565b611f2d81611f18565b82525050565b6000602082019050611f486000830184611f24565b92915050565b611f5781611996565b82525050565b6000602082019050611f726000830184611f4e565b92915050565b60008083601f840112611f8e57611f8d611911565b5b8235905067ffffffffffffffff811115611fab57611faa611916565b5b602083019150836020820283011115611fc757611fc661191b565b5b9250929050565b60008060208385031215611fe557611fe46118ad565b5b600083013567ffffffffffffffff811115612003576120026118b2565b5b61200f85828601611f78565b92509250509250929050565b600060208284031215612031576120306118ad565b5b600061203f84828501611b3b565b91505092915050565b612051816118db565b82525050565b600060208201905061206c6000830184612048565b92915050565b6000806000806060858703121561208c5761208b6118ad565b5b600061209a87828801611b3b565b94505060206120ab87828801611bd1565b935050604085013567ffffffffffffffff8111156120cc576120cb6118b2565b5b6120d887828801611920565b925092505092959194509250565b6000602082840312156120fc576120fb6118ad565b5b600061210a848285016119bf565b91505092915050565b6040820160008201516121296000850182611e09565b50602082015161213c6020850182611e09565b50505050565b60006040820190506121576000830184612113565b92915050565b61216681611f18565b811461217157600080fd5b50565b6000813590506121838161215d565b92915050565b600080604083850312156121a05761219f6118ad565b5b60006121ae85828601611b3b565b92505060206121bf85828601612174565b9150509250929050565b6000606082840312156121df576121de6118ad565b5b60006121ed848285016118bc565b91505092915050565b600060408201905061220b6000830185611b90565b6122186020830184612048565b9392505050565b7f4e487b7100000000000000000000000000000000000000000000000000000000600052602260045260246000fd5b6000600282049050600182168061226657607f821691505b6020821081036122795761227861221f565b5b50919050565b7f4e487b7100000000000000000000000000000000000000000000000000000000600052604160045260246000fd5b6122b782611c6c565b810181811067ffffffffffffffff821117156122d6576122d561227f565b5b80604052505050565b60006122e96118a3565b90506122f582826122ae565b919050565b600067ffffffffffffffff8211156123155761231461227f565b5b602082029050602081019050919050565b600080fd5b600080fd5b600080fd5b600067ffffffffffffffff8211156123505761234f61227f565b5b61235982611c6c565b9050602081019050919050565b82818337600083830152505050565b600061238861238384612335565b6122df565b9050828152602081018484840111156123a4576123a3612330565b5b6123af848285612366565b509392505050565b600082601f8301126123cc576123cb611911565b5b81356123dc848260208601612375565b91505092915050565b6000606082840312156123fb576123fa612326565b5b61240560606122df565b9050600061241584828501611b3b565b600083015250602061242984828501611bd1565b602083015250604082013567ffffffffffffffff81111561244d5761244c61232b565b5b612459848285016123b7565b60408301525092915050565b6000612478612473846122fa565b6122df565b9050808382526020820190506020840283018581111561249b5761249a61191b565b5b835b818110156124e257803567ffffffffffffffff8111156124c0576124bf611911565b5b8086016124cd89826123e5565b8552602085019450505060208101905061249d565b5050509392505050565b60006124f9368484612465565b905092915050565b600080fd5b600080fd5b6000808585111561251f5761251e612501565b5b838611156125305761252f612506565b5b6001850283019150848603905094509492505050565b600081905092915050565b600061255c82611c26565b6125668185612546565b9350612576818560208601611c42565b80840191505092915050565b600061258e8385612546565b935061259b838584612366565b82840190509392505050565b60006125b38286612551565b91506125c0828486612582565b9150819050949350505050565b60006125d98385611c31565b93506125e6838584612366565b6125ef83611c6c565b840190509392505050565b600060208201905081810360008301526126158184866125cd565b90509392505050565b61262781611dff565b811461263257600080fd5b50565b6000813590506126448161261e565b92915050565b6000602082840312156126605761265f6118ad565b5b600061266e84828501612635565b91505092915050565b61268081611dff565b82525050565b600060208201905061269b6000830184612677565b92915050565b7f4e487b7100000000000000000000000000000000000000000000000000000000600052603260045260246000fd5b6126d981611b14565b82525050565b600082825260208201905092915050565b60006126fb82611c26565b61270581856126df565b9350612715818560208601611c42565b61271e81611c6c565b840191505092915050565b61273281611f18565b82525050565b600060a08301600083015161275060008601826126d0565b5060208301516127636020860182611de1565b506040830151848203604086015261277b82826126f0565b9150506060830151848203606086015261279582826126f0565b91505060808301516127aa6080860182612729565b508091505092915050565b600060408201905081810360008301526127cf8185612738565b90506127de6020830184611f4e565b9392505050565b6000815190506127f4816118e5565b92915050565b61280381611a90565b811461280e57600080fd5b50565b600081519050612820816127fa565b92915050565b6000815190506128358161261e565b92915050565b60006040828403121561285157612850612326565b5b61285b60406122df565b9050600061286b84828501612826565b600083015250602061287f84828501612826565b60208301525092915050565b6000608082840312156128a1576128a0612326565b5b6128ab60606122df565b905060006128bb848285016127e5565b60008301525060206128cf84828501612811565b60208301525060406128e38482850161283b565b60408301525092915050565b600060808284031215612905576129046118ad565b5b60006129138482850161288b565b91505092915050565b60008190508160005260206000209050919050565b60006020601f8301049050919050565b600082821b905092915050565b60006008830261297e7fffffffffffffffffffffffffffffffffffffffffffffffffffffffffffffffff82612941565b6129888683612941565b95508019841693508086168417925050509392505050565b60006129bb6129b66129b184611dff565b611cd8565b611dff565b9050919050565b6000819050919050565b6129d5836129a0565b6129e96129e1826129c2565b84845461294e565b825550505050565b600090565b6129fe6129f1565b612a098184846129cc565b505050565b5b81811015612a2d57612a226000826129f6565b600181019050612a0f565b5050565b601f821115612a7257612a438161291c565b612a4c84612931565b81016020851015612a5b578190505b612a6f612a6785612931565b830182612a0e565b50505b505050565b600082821c905092915050565b6000612a9560001984600802612a77565b1980831691505092915050565b6000612aae8383612a84565b9150826002028217905092915050565b612ac782611c26565b67ffffffffffffffff811115612ae057612adf61227f565b5b612aea825461224e565b612af5828285612a31565b600060209050601f831160018114612b285760008415612b16578287015190505b612b208582612aa2565b865550612b88565b601f198416612b368661291c565b60005b82811015612b5e57848901518255600182019150602085019450602081019050612b39565b86831015612b7b5784890151612b77601f891682612a84565b8355505b6001600288020188555050505b505050505050565b600081519050919050565b600082825260208201905092915050565b6000819050602082019050919050565b612bc581611adc565b82525050565b6000606083016000830151612be360008601826126d0565b506020830151612bf66020860182612bbc565b5060408301518482036040860152612c0e82826126f0565b9150508091505092915050565b6000612c278383612bcb565b905092915050565b6000602082019050919050565b6000612c4782612b90565b612c518185612b9b565b935083602082028501612c6385612bac565b8060005b85811015612c9f5784840389528151612c808582612c1b565b9450612c8b83612c2f565b925060208a01995050600181019050612c67565b50829750879550505050505092915050565b60006020820190508181036000830152612ccb8184612c3c565b905092915050565b600060408284031215612ce957612ce86118ad565b5b6000612cf78482850161283b565b91505092915050565b60008160f01b9050919050565b6000612d1882612d00565b9050919050565b612d30612d2b82611adc565b612d0d565b82525050565b6000612d428286612d1f565b600282019150612d528285612d1f565b600282019150612d628284612d1f565b600282019150819050949350505050565b600081519050612d82816119a8565b92915050565b600060208284031215612d9e57612d9d6118ad565b5b6000612dac84828501612d73565b91505092915050565b6000819050919050565b600060ff82169050919050565b6000612de7612de2612ddd84612db5565b611cd8565b612dbf565b9050919050565b612df781612dcc565b82525050565b6000604082019050612e126000830185612dee565b612e1f6020830184612677565b9392505050565b7f4e487b7100000000000000000000000000000000000000000000000000000000600052601160045260246000fd5b6000612e6082611dff565b9150612e6b83611dff565b9250828201905080821115612e8357612e82612e26565b5b92915050565b60008160f81b9050919050565b6000612ea182612e89565b9050919050565b612eb9612eb482612dbf565b612e96565b82525050565b60008160e01b9050919050565b6000612ed782612ebf565b9050919050565b612eef612eea82611b14565b612ecc565b82525050565b6000612f018289612551565b9150612f0d8288612ea8565b600182019150612f1d8287612d1f565b600282019150612f2d8286612d1f565b600282019150612f3d8285612d1f565b600282019150612f4d8284612ede565b600482019150819050979650505050505050565b6000612f6c82612e96565b9050919050565b612f84612f7f82611f18565b612f61565b82525050565b60008160c01b9050919050565b6000612fa282612f8a565b9050919050565b612fba612fb582611a90565b612f97565b82525050565b60008160601b9050919050565b6000612fd882612fc0565b9050919050565b6000612fea82612fcd565b9050919050565b613002612ffd82611996565b612fdf565b82525050565b60006130148289612551565b91506130208288612f73565b6001820191506130308287612fa9565b6008820191506130408286612d1f565b6002820191506130508285612ff1565b6014820191506130608284612551565b9150819050979650505050505050565b60006060820190506130856000830186611f4e565b6130926020830185611f4e565b61309f6040830184612677565b94935050505056fea2646970667358221220e91288cebc607713f2d181f87ae00e550663aaa5a946d79a2b388bb4dbd0b80c64736f6c63430008160033",
  "devdoc": {
    "errors": {
      "OwnableInvalidOwner(address)": [
        {
          "details": "The owner is not a valid owner account. (eg. `address(0)`)"
        }
      ],
      "OwnableUnauthorizedAccount(address)": [
        {
          "details": "The caller account is not authorized to perform an operation."
        }
      ],
      "SafeCastOverflowedUintDowncast(uint8,uint256)": [
        {
          "details": "Value doesn't fit in an uint of `bits` size."
        }
      ],
      "SafeERC20FailedOperation(address)": [
        {
          "details": "An operation with an ERC-20 token failed."
        }
      ]
    },
    "events": {
      "DataReceived(uint256)": {
        "params": {
          "data": "The value of the public state variable."
        }
      }
    },
    "kind": "dev",
    "methods": {
      "allowInitializePath((uint32,bytes32,uint64))": {
        "details": "This indicates to the endpoint that the OApp has enabled msgs for this particular path to be received.This defaults to assuming if a peer has been set, its initialized. Can be overridden by the OApp if there is other logic to determine this.",
        "params": {
          "origin": "The origin information containing the source endpoint and sender address."
        },
        "returns": {
          "_0": "Whether the path has been initialized."
        }
      },
      "combineOptions(uint32,uint16,bytes)": {
        "details": "If there is an enforced lzReceive option: - {gasLimit: 200k, msg.value: 1 ether} AND a caller supplies a lzReceive option: {gasLimit: 100k, msg.value: 0.5 ether} - The resulting options will be {gasLimit: 300k, msg.value: 1.5 ether} when the message is executed on the remote lzReceive() function.This presence of duplicated options is handled off-chain in the verifier/executor.",
        "params": {
          "_eid": "The endpoint ID.",
          "_extraOptions": "Additional options passed by the caller.",
          "_msgType": "The OAPP message type."
        },
        "returns": {
          "_0": "options The combination of caller specified options AND enforced options."
        }
      },
      "constructor": {
        "params": {
          "_delegate": "The address that will have ownership privileges.",
          "_endpoint": "The LayerZero endpoint contract address.",
          "_readChannel": "The LayerZero read channel ID."
        }
      },
      "isComposeMsgSender((uint32,bytes32,uint64),bytes,address)": {
        "details": "_origin The origin information containing the source endpoint and sender address.  - srcEid: The source chain endpoint ID.  - sender: The sender address on the src chain.  - nonce: The nonce of the message._message The lzReceive payload.Applications can optionally choose to implement separate composeMsg senders that are NOT the bridging layer.The default sender IS the OAppReceiver implementer.",
        "params": {
          "_sender": "The sender address."
        },
        "returns": {
          "_0": "isSender Is a valid sender."
        }
      },
      "lzReceive((uint32,bytes32,uint64),bytes32,bytes,address,bytes)": {
        "details": "Entry point for receiving messages or packets from the endpoint.Entry point for receiving msg/packet from the LayerZero endpoint.",
        "params": {
          "_executor": "The address of the executor for the received message.",
          "_extraData": "Additional arbitrary data provided by the corresponding executor.",
          "_guid": "The unique identifier for the received LayerZero message.",
          "_message": "The payload of the received message.",
          "_origin": "The origin information containing the source endpoint and sender address.  - srcEid: The source chain endpoint ID.  - sender: The sender address on the src chain.  - nonce: The nonce of the message."
        }
      },
      "nextNonce(uint32,bytes32)": {
        "details": "_srcEid The source endpoint ID._sender The sender address.The path nonce starts from 1. If 0 is returned it means that there is NO nonce ordered enforcement.Is required by the off-chain executor to determine the OApp expects msg execution is ordered.This is also enforced by the OApp.By default this is NOT enabled. ie. nextNonce is hardcoded to return 0.",
        "returns": {
          "nonce": "The next nonce."
        }
      },
      "oAppVersion()": {
        "returns": {
          "receiverVersion": "The version of the OAppReceiver.sol implementation.",
          "senderVersion": "The version of the OAppSender.sol implementation."
        }
      },
      "owner()": {
        "details": "Returns the address of the current owner."
      },
      "quoteReadFee(address,uint32,bytes)": {
        "params": {
          "_extraOptions": "Additional messaging options.",
          "_targetContractAddress": "The address of the contract on the target chain containing the `data` variable.",
          "_targetEid": "The target chain's Endpoint ID."
        },
        "returns": {
          "fee": "The estimated messaging fee."
        }
      },
      "readData(address,uint32,bytes)": {
        "details": "The caller must send enough ETH to cover the messaging fee.",
        "params": {
          "_extraOptions": "Additional messaging options.",
          "_targetContractAddress": "The address of the contract on the target chain containing the `data` variable.",
          "_targetEid": "The target chain's Endpoint ID."
        },
        "returns": {
          "receipt": "The LayerZero messaging receipt for the request."
        }
      },
      "renounceOwnership()": {
        "details": "Leaves the contract without owner. It will not be possible to call `onlyOwner` functions. Can only be called by the current owner. NOTE: Renouncing ownership will leave the contract without an owner, thereby disabling any functionality that is only available to the owner."
      },
      "setDelegate(address)": {
        "details": "Only the owner/admin of the OApp can call this function.Provides the ability for a delegate to set configs, on behalf of the OApp, directly on the Endpoint contract.",
        "params": {
          "_delegate": "The address of the delegate to be set."
        }
      },
      "setEnforcedOptions((uint32,uint16,bytes)[])": {
        "details": "Sets the enforced options for specific endpoint and message type combinations.Only the owner/admin of the OApp can call this function.Provides a way for the OApp to enforce things like paying for PreCrime, AND/OR minimum dst lzReceive gas amounts etc.These enforced options can vary as the potential options/execution on the remote may differ as per the msgType. eg. Amount of lzReceive() gas necessary to deliver a lzCompose() message adds overhead you dont want to pay if you are only making a standard LayerZero message ie. lzReceive() WITHOUT sendCompose().",
        "params": {
          "_enforcedOptions": "An array of EnforcedOptionParam structures specifying enforced options."
        }
      },
      "setPeer(uint32,bytes32)": {
        "details": "Only the owner/admin of the OApp can call this function.Indicates that the peer is trusted to send LayerZero messages to this OApp.Set this to bytes32(0) to remove the peer address.Peer is a bytes32 to accommodate non-evm chains.",
        "params": {
          "_eid": "The endpoint ID.",
          "_peer": "The address of the peer to be associated with the corresponding endpoint."
        }
      },
      "setReadChannel(uint32,bool)": {
        "details": "Only callable by the owner.",
        "params": {
          "_active": "Flag to activate or deactivate the channel.",
          "_channelId": "The channel ID to set."
        }
      },
      "transferOwnership(address)": {
        "details": "Transfers ownership of the contract to a new account (`newOwner`). Can only be called by the current owner."
      }
    },
    "title": "ReadPublic",
    "version": 1
  },
  "userdoc": {
    "events": {
      "DataReceived(uint256)": {
        "notice": "Emitted when the data is received."
      }
    },
    "kind": "user",
    "methods": {
      "READ_CHANNEL()": {
        "notice": "LayerZero read channel ID."
      },
      "READ_TYPE()": {
        "notice": "Message type for the read operation."
      },
      "allowInitializePath((uint32,bytes32,uint64))": {
        "notice": "Checks if the path initialization is allowed based on the provided origin."
      },
      "combineOptions(uint32,uint16,bytes)": {
        "notice": "Combines options for a given endpoint and message type."
      },
      "constructor": {
        "notice": "Constructor to initialize the OAppRead contract."
      },
      "endpoint()": {
        "notice": "Retrieves the LayerZero endpoint associated with the OApp."
      },
      "isComposeMsgSender((uint32,bytes32,uint64),bytes,address)": {
        "notice": "Indicates whether an address is an approved composeMsg sender to the Endpoint."
      },
      "nextNonce(uint32,bytes32)": {
        "notice": "Retrieves the next nonce for a given source endpoint and sender address."
      },
      "oAppVersion()": {
        "notice": "Retrieves the OApp version information."
      },
      "peers(uint32)": {
        "notice": "Retrieves the peer (OApp) associated with a corresponding endpoint."
      },
      "quoteReadFee(address,uint32,bytes)": {
        "notice": "Estimates the messaging fee required to perform the read operation."
      },
      "readData(address,uint32,bytes)": {
        "notice": "Sends a read request to fetch the public state variable `data`."
      },
      "setDelegate(address)": {
        "notice": "Sets the delegate address for the OApp."
      },
      "setPeer(uint32,bytes32)": {
        "notice": "Sets the peer address (OApp instance) for a corresponding endpoint."
      },
      "setReadChannel(uint32,bool)": {
        "notice": "Sets the LayerZero read channel."
      }
    },
    "notice": "An OAppRead contract example to read a public state variable from another chain.",
    "version": 1
  },
  "storageLayout": {
    "storage": [
      {
        "astId": 2625,
        "contract": "contracts/OAppRead.sol:ReadPublic",
        "label": "_owner",
        "offset": 0,
        "slot": "0",
        "type": "t_address"
      },
      {
        "astId": 938,
        "contract": "contracts/OAppRead.sol:ReadPublic",
        "label": "peers",
        "offset": 0,
        "slot": "1",
        "type": "t_mapping(t_uint32,t_bytes32)"
      },
      {
        "astId": 1582,
        "contract": "contracts/OAppRead.sol:ReadPublic",
        "label": "enforcedOptions",
        "offset": 0,
        "slot": "2",
        "type": "t_mapping(t_uint32,t_mapping(t_uint16,t_bytes_storage))"
      },
      {
        "astId": 5236,
        "contract": "contracts/OAppRead.sol:ReadPublic",
        "label": "READ_CHANNEL",
        "offset": 0,
        "slot": "3",
        "type": "t_uint32"
      }
    ],
    "types": {
      "t_address": {
        "encoding": "inplace",
        "label": "address",
        "numberOfBytes": "20"
      },
      "t_bytes32": {
        "encoding": "inplace",
        "label": "bytes32",
        "numberOfBytes": "32"
      },
      "t_bytes_storage": {
        "encoding": "bytes",
        "label": "bytes",
        "numberOfBytes": "32"
      },
      "t_mapping(t_uint16,t_bytes_storage)": {
        "encoding": "mapping",
        "key": "t_uint16",
        "label": "mapping(uint16 => bytes)",
        "numberOfBytes": "32",
        "value": "t_bytes_storage"
      },
      "t_mapping(t_uint32,t_bytes32)": {
        "encoding": "mapping",
        "key": "t_uint32",
        "label": "mapping(uint32 => bytes32)",
        "numberOfBytes": "32",
        "value": "t_bytes32"
      },
      "t_mapping(t_uint32,t_mapping(t_uint16,t_bytes_storage))": {
        "encoding": "mapping",
        "key": "t_uint32",
        "label": "mapping(uint32 => mapping(uint16 => bytes))",
        "numberOfBytes": "32",
        "value": "t_mapping(t_uint16,t_bytes_storage)"
      },
      "t_uint16": {
        "encoding": "inplace",
        "label": "uint16",
        "numberOfBytes": "2"
      },
      "t_uint32": {
        "encoding": "inplace",
        "label": "uint32",
        "numberOfBytes": "4"
      }
    }
  }
}