{
  "address": "0x13ab2077Cd876c0647456855124ef00393f2c583",
  "abi": [
    {
      "inputs": [
        {
          "internalType": "uint256",
          "name": "_price",
          "type": "uint256"
        }
      ],
      "stateMutability": "nonpayable",
      "type": "constructor"
    },
    {
      "inputs": [
        {
          "internalType": "address",
          "name": "owner",
          "type": "address"
        }
      ],
      "name": "OwnableInvalidOwner",
      "type": "error"
    },
    {
      "inputs": [
        {
          "internalType": "address",
          "name": "account",
          "type": "address"
        }
      ],
      "name": "OwnableUnauthorizedAccount",
      "type": "error"
    },
    {
      "anonymous": false,
      "inputs": [
        {
          "indexed": true,
          "internalType": "address",
          "name": "previousOwner",
          "type": "address"
        },
        {
          "indexed": true,
          "internalType": "address",
          "name": "newOwner",
          "type": "address"
        }
      ],
      "name": "OwnershipTransferred",
      "type": "event"
    },
    {
      "inputs": [],
      "name": "getPrice",
      "outputs": [
        {
          "internalType": "uint256",
          "name": "",
          "type": "uint256"
        }
      ],
      "stateMutability": "view",
      "type": "function"
    },
    {
      "inputs": [],
      "name": "owner",
      "outputs": [
        {
          "internalType": "address",
          "name": "",
          "type": "address"
        }
      ],
      "stateMutability": "view",
      "type": "function"
    },
    {
      "inputs": [],
      "name": "renounceOwnership",
      "outputs": [],
      "stateMutability": "nonpayable",
      "type": "function"
    },
    {
      "inputs": [
        {
          "internalType": "uint256",
          "name": "_price",
          "type": "uint256"
        }
      ],
      "name": "setPrice",
      "outputs": [],
      "stateMutability": "nonpayable",
      "type": "function"
    },
    {
      "inputs": [
        {
          "internalType": "address",
          "name": "newOwner",
          "type": "address"
        }
      ],
      "name": "transferOwnership",
      "outputs": [],
      "stateMutability": "nonpayable",
      "type": "function"
    }
  ],
  "transactionHash": "0xfbe613af16a27ce0784ba65ce9bf67a7fe959e775c97d550fd873bbea643642a",
  "args": [
    "1000000000000000000"
  ],
  "numDeployments": 2,
  "solcInputHash": "564a129764fb1ec6ef6e7e4eab02b916",
  "bytecode": "0x608060405234801561001057600080fd5b506040516102fc3803806102fc83398101604081905261002f916100b7565b338061005557604051631e4fbdf760e01b81526000600482015260240160405180910390fd5b61005e81610067565b506001556100d0565b600080546001600160a01b038381166001600160a01b0319831681178455604051919092169283917f8be0079c531659141344cd1fd0a4f28419497f9722a3daafe3b4186f6b6457e09190a35050565b6000602082840312156100c957600080fd5b5051919050565b61021d806100df6000396000f3fe608060405234801561001057600080fd5b50600436106100575760003560e01c8063715018a61461005c5780638da5cb5b1461006657806391b7f5ed1461008657806398d5fdca14610099578063f2fde38b146100aa575b600080fd5b6100646100bd565b005b6000546040516001600160a01b0390911681526020015b60405180910390f35b61006461009436600461019e565b6100d1565b60015460405190815260200161007d565b6100646100b83660046101b7565b6100de565b6100c5610121565b6100cf600061014e565b565b6100d9610121565b600155565b6100e6610121565b6001600160a01b03811661011557604051631e4fbdf760e01b8152600060048201526024015b60405180910390fd5b61011e8161014e565b50565b6000546001600160a01b031633146100cf5760405163118cdaa760e01b815233600482015260240161010c565b600080546001600160a01b038381166001600160a01b0319831681178455604051919092169283917f8be0079c531659141344cd1fd0a4f28419497f9722a3daafe3b4186f6b6457e09190a35050565b6000602082840312156101b057600080fd5b5035919050565b6000602082840312156101c957600080fd5b81356001600160a01b03811681146101e057600080fd5b939250505056fea2646970667358221220a73c4306c8e248044647868d3061de90986c8cd992d75fcf824f14b89afcc58e64736f6c63430008160033",
  "devdoc": {
    "details": "This contract would be deployed on target chains (e.g., Ethereum, Polygon, Arbitrum)      and the ReadPublic contract can read its `price` value from any other supported chain.",
    "errors": {
      "OwnableInvalidOwner(address)": [
        {
          "details": "The owner is not a valid owner account. (eg. `address(0)`)"
        }
      ],
      "OwnableUnauthorizedAccount(address)": [
        {
          "details": "The caller account is not authorized to perform an operation."
        }
      ]
    },
    "kind": "dev",
    "methods": {
      "owner()": {
        "details": "Returns the address of the current owner."
      },
      "renounceOwnership()": {
        "details": "Leaves the contract without owner. It will not be possible to call `onlyOwner` functions. Can only be called by the current owner. NOTE: Renouncing ownership will leave the contract without an owner, thereby disabling any functionality that is only available to the owner."
      },
      "transferOwnership(address)": {
        "details": "Transfers ownership of the contract to a new account (`newOwner`). Can only be called by the current owner."
      }
    },
    "title": "PriceFeed",
    "version": 1
  },
  "userdoc": {
    "kind": "user",
    "methods": {},
    "notice": "A simple contract with a public state variable that can be read cross-chain.",
    "version": 1
  },
  "storageLayout": {
    "storage": [
      {
        "astId": 2625,
        "contract": "contracts/PriceFeed.sol:PriceFeed",
        "label": "_owner",
        "offset": 0,
        "slot": "0",
        "type": "t_address"
      },
      {
        "astId": 5625,
        "contract": "contracts/PriceFeed.sol:PriceFeed",
        "label": "price",
        "offset": 0,
        "slot": "1",
        "type": "t_uint256"
      }
    ],
    "types": {
      "t_address": {
        "encoding": "inplace",
        "label": "address",
        "numberOfBytes": "20"
      },
      "t_uint256": {
        "encoding": "inplace",
        "label": "uint256",
        "numberOfBytes": "32"
      }
    }
  }
}