{
  "address": "0x7d587C5751BbC7C583296564474F257678A952Ec",
  "abi": [
    {
      "inputs": [
        {
          "internalType": "address",
          "name": "_endpoint",
          "type": "address"
        },
        {
          "internalType": "address",
          "name": "_delegate",
          "type": "address"
        },
        {
          "internalType": "uint32",
          "name": "_readChannel",
          "type": "uint32"
        }
      ],
      "stateMutability": "nonpayable",
      "type": "constructor"
    },
    {
      "inputs": [],
      "name": "InvalidDelegate",
      "type": "error"
    },
    {
      "inputs": [],
      "name": "InvalidEndpointCall",
      "type": "error"
    },
    {
      "inputs": [
        {
          "internalType": "bytes",
          "name": "options",
          "type": "bytes"
        }
      ],
      "name": "InvalidOptions",
      "type": "error"
    },
    {
      "inputs": [],
      "name": "LzTokenUnavailable",
      "type": "error"
    },
    {
      "inputs": [
        {
          "internalType": "uint32",
          "name": "eid",
          "type": "uint32"
        }
      ],
      "name": "NoPeer",
      "type": "error"
    },
    {
      "inputs": [
        {
          "internalType": "uint256",
          "name": "msgValue",
          "type": "uint256"
        }
      ],
      "name": "NotEnoughNative",
      "type": "error"
    },
    {
      "inputs": [
        {
          "internalType": "address",
          "name": "addr",
          "type": "address"
        }
      ],
      "name": "OnlyEndpoint",
      "type": "error"
    },
    {
      "inputs": [
        {
          "internalType": "uint32",
          "name": "eid",
          "type": "uint32"
        },
        {
          "internalType": "bytes32",
          "name": "sender",
          "type": "bytes32"
        }
      ],
      "name": "OnlyPeer",
      "type": "error"
    },
    {
      "inputs": [
        {
          "internalType": "address",
          "name": "owner",
          "type": "address"
        }
      ],
      "name": "OwnableInvalidOwner",
      "type": "error"
    },
    {
      "inputs": [
        {
          "internalType": "address",
          "name": "account",
          "type": "address"
        }
      ],
      "name": "OwnableUnauthorizedAccount",
      "type": "error"
    },
    {
      "inputs": [
        {
          "internalType": "uint8",
          "name": "bits",
          "type": "uint8"
        },
        {
          "internalType": "uint256",
          "name": "value",
          "type": "uint256"
        }
      ],
      "name": "SafeCastOverflowedUintDowncast",
      "type": "error"
    },
    {
      "inputs": [
        {
          "internalType": "address",
          "name": "token",
          "type": "address"
        }
      ],
      "name": "SafeERC20FailedOperation",
      "type": "error"
    },
    {
      "anonymous": false,
      "inputs": [
        {
          "indexed": false,
          "internalType": "uint256",
          "name": "data",
          "type": "uint256"
        }
      ],
      "name": "DataReceived",
      "type": "event"
    },
    {
      "anonymous": false,
      "inputs": [
        {
          "components": [
            {
              "internalType": "uint32",
              "name": "eid",
              "type": "uint32"
            },
            {
              "internalType": "uint16",
              "name": "msgType",
              "type": "uint16"
            },
            {
              "internalType": "bytes",
              "name": "options",
              "type": "bytes"
            }
          ],
          "indexed": false,
          "internalType": "struct EnforcedOptionParam[]",
          "name": "_enforcedOptions",
          "type": "tuple[]"
        }
      ],
      "name": "EnforcedOptionSet",
      "type": "event"
    },
    {
      "anonymous": false,
      "inputs": [
        {
          "indexed": true,
          "internalType": "address",
          "name": "previousOwner",
          "type": "address"
        },
        {
          "indexed": true,
          "internalType": "address",
          "name": "newOwner",
          "type": "address"
        }
      ],
      "name": "OwnershipTransferred",
      "type": "event"
    },
    {
      "anonymous": false,
      "inputs": [
        {
          "indexed": false,
          "internalType": "uint32",
          "name": "eid",
          "type": "uint32"
        },
        {
          "indexed": false,
          "internalType": "bytes32",
          "name": "peer",
          "type": "bytes32"
        }
      ],
      "name": "PeerSet",
      "type": "event"
    },
    {
      "inputs": [],
      "name": "READ_CHANNEL",
      "outputs": [
        {
          "internalType": "uint32",
          "name": "",
          "type": "uint32"
        }
      ],
      "stateMutability": "view",
      "type": "function"
    },
    {
      "inputs": [],
      "name": "READ_TYPE",
      "outputs": [
        {
          "internalType": "uint16",
          "name": "",
          "type": "uint16"
        }
      ],
      "stateMutability": "view",
      "type": "function"
    },
    {
      "inputs": [
        {
          "components": [
            {
              "internalType": "uint32",
              "name": "srcEid",
              "type": "uint32"
            },
            {
              "internalType": "bytes32",
              "name": "sender",
              "type": "bytes32"
            },
            {
              "internalType": "uint64",
              "name": "nonce",
              "type": "uint64"
            }
          ],
          "internalType": "struct Origin",
          "name": "origin",
          "type": "tuple"
        }
      ],
      "name": "allowInitializePath",
      "outputs": [
        {
          "internalType": "bool",
          "name": "",
          "type": "bool"
        }
      ],
      "stateMutability": "view",
      "type": "function"
    },
    {
      "inputs": [
        {
          "internalType": "uint32",
          "name": "_eid",
          "type": "uint32"
        },
        {
          "internalType": "uint16",
          "name": "_msgType",
          "type": "uint16"
        },
        {
          "internalType": "bytes",
          "name": "_extraOptions",
          "type": "bytes"
        }
      ],
      "name": "combineOptions",
      "outputs": [
        {
          "internalType": "bytes",
          "name": "",
          "type": "bytes"
        }
      ],
      "stateMutability": "view",
      "type": "function"
    },
    {
      "inputs": [],
      "name": "endpoint",
      "outputs": [
        {
          "internalType": "contract ILayerZeroEndpointV2",
          "name": "",
          "type": "address"
        }
      ],
      "stateMutability": "view",
      "type": "function"
    },
    {
      "inputs": [
        {
          "internalType": "uint32",
          "name": "eid",
          "type": "uint32"
        },
        {
          "internalType": "uint16",
          "name": "msgType",
          "type": "uint16"
        }
      ],
      "name": "enforcedOptions",
      "outputs": [
        {
          "internalType": "bytes",
          "name": "enforcedOption",
          "type": "bytes"
        }
      ],
      "stateMutability": "view",
      "type": "function"
    },
    {
      "inputs": [
        {
          "components": [
            {
              "internalType": "uint32",
              "name": "srcEid",
              "type": "uint32"
            },
            {
              "internalType": "bytes32",
              "name": "sender",
              "type": "bytes32"
            },
            {
              "internalType": "uint64",
              "name": "nonce",
              "type": "uint64"
            }
          ],
          "internalType": "struct Origin",
          "name": "",
          "type": "tuple"
        },
        {
          "internalType": "bytes",
          "name": "",
          "type": "bytes"
        },
        {
          "internalType": "address",
          "name": "_sender",
          "type": "address"
        }
      ],
      "name": "isComposeMsgSender",
      "outputs": [
        {
          "internalType": "bool",
          "name": "",
          "type": "bool"
        }
      ],
      "stateMutability": "view",
      "type": "function"
    },
    {
      "inputs": [
        {
          "components": [
            {
              "internalType": "uint32",
              "name": "srcEid",
              "type": "uint32"
            },
            {
              "internalType": "bytes32",
              "name": "sender",
              "type": "bytes32"
            },
            {
              "internalType": "uint64",
              "name": "nonce",
              "type": "uint64"
            }
          ],
          "internalType": "struct Origin",
          "name": "_origin",
          "type": "tuple"
        },
        {
          "internalType": "bytes32",
          "name": "_guid",
          "type": "bytes32"
        },
        {
          "internalType": "bytes",
          "name": "_message",
          "type": "bytes"
        },
        {
          "internalType": "address",
          "name": "_executor",
          "type": "address"
        },
        {
          "internalType": "bytes",
          "name": "_extraData",
          "type": "bytes"
        }
      ],
      "name": "lzReceive",
      "outputs": [],
      "stateMutability": "payable",
      "type": "function"
    },
    {
      "inputs": [
        {
          "internalType": "uint32",
          "name": "",
          "type": "uint32"
        },
        {
          "internalType": "bytes32",
          "name": "",
          "type": "bytes32"
        }
      ],
      "name": "nextNonce",
      "outputs": [
        {
          "internalType": "uint64",
          "name": "nonce",
          "type": "uint64"
        }
      ],
      "stateMutability": "view",
      "type": "function"
    },
    {
      "inputs": [],
      "name": "oAppVersion",
      "outputs": [
        {
          "internalType": "uint64",
          "name": "senderVersion",
          "type": "uint64"
        },
        {
          "internalType": "uint64",
          "name": "receiverVersion",
          "type": "uint64"
        }
      ],
      "stateMutability": "pure",
      "type": "function"
    },
    {
      "inputs": [],
      "name": "owner",
      "outputs": [
        {
          "internalType": "address",
          "name": "",
          "type": "address"
        }
      ],
      "stateMutability": "view",
      "type": "function"
    },
    {
      "inputs": [
        {
          "internalType": "uint32",
          "name": "eid",
          "type": "uint32"
        }
      ],
      "name": "peers",
      "outputs": [
        {
          "internalType": "bytes32",
          "name": "peer",
          "type": "bytes32"
        }
      ],
      "stateMutability": "view",
      "type": "function"
    },
    {
      "inputs": [
        {
          "internalType": "address",
          "name": "_targetContractAddress",
          "type": "address"
        },
        {
          "internalType": "uint32",
          "name": "_targetEid",
          "type": "uint32"
        },
        {
          "internalType": "bytes",
          "name": "_extraOptions",
          "type": "bytes"
        }
      ],
      "name": "quoteReadFee",
      "outputs": [
        {
          "components": [
            {
              "internalType": "uint256",
              "name": "nativeFee",
              "type": "uint256"
            },
            {
              "internalType": "uint256",
              "name": "lzTokenFee",
              "type": "uint256"
            }
          ],
          "internalType": "struct MessagingFee",
          "name": "fee",
          "type": "tuple"
        }
      ],
      "stateMutability": "view",
      "type": "function"
    },
    {
      "inputs": [
        {
          "internalType": "address",
          "name": "_targetContractAddress",
          "type": "address"
        },
        {
          "internalType": "uint32",
          "name": "_targetEid",
          "type": "uint32"
        },
        {
          "internalType": "bytes",
          "name": "_extraOptions",
          "type": "bytes"
        }
      ],
      "name": "readData",
      "outputs": [
        {
          "components": [
            {
              "internalType": "bytes32",
              "name": "guid",
              "type": "bytes32"
            },
            {
              "internalType": "uint64",
              "name": "nonce",
              "type": "uint64"
            },
            {
              "components": [
                {
                  "internalType": "uint256",
                  "name": "nativeFee",
                  "type": "uint256"
                },
                {
                  "internalType": "uint256",
                  "name": "lzTokenFee",
                  "type": "uint256"
                }
              ],
              "internalType": "struct MessagingFee",
              "name": "fee",
              "type": "tuple"
            }
          ],
          "internalType": "struct MessagingReceipt",
          "name": "receipt",
          "type": "tuple"
        }
      ],
      "stateMutability": "payable",
      "type": "function"
    },
    {
      "inputs": [],
      "name": "renounceOwnership",
      "outputs": [],
      "stateMutability": "nonpayable",
      "type": "function"
    },
    {
      "inputs": [
        {
          "internalType": "address",
          "name": "_delegate",
          "type": "address"
        }
      ],
      "name": "setDelegate",
      "outputs": [],
      "stateMutability": "nonpayable",
      "type": "function"
    },
    {
      "inputs": [
        {
          "components": [
            {
              "internalType": "uint32",
              "name": "eid",
              "type": "uint32"
            },
            {
              "internalType": "uint16",
              "name": "msgType",
              "type": "uint16"
            },
            {
              "internalType": "bytes",
              "name": "options",
              "type": "bytes"
            }
          ],
          "internalType": "struct EnforcedOptionParam[]",
          "name": "_enforcedOptions",
          "type": "tuple[]"
        }
      ],
      "name": "setEnforcedOptions",
      "outputs": [],
      "stateMutability": "nonpayable",
      "type": "function"
    },
    {
      "inputs": [
        {
          "internalType": "uint32",
          "name": "_eid",
          "type": "uint32"
        },
        {
          "internalType": "bytes32",
          "name": "_peer",
          "type": "bytes32"
        }
      ],
      "name": "setPeer",
      "outputs": [],
      "stateMutability": "nonpayable",
      "type": "function"
    },
    {
      "inputs": [
        {
          "internalType": "uint32",
          "name": "_channelId",
          "type": "uint32"
        },
        {
          "internalType": "bool",
          "name": "_active",
          "type": "bool"
        }
      ],
      "name": "setReadChannel",
      "outputs": [],
      "stateMutability": "nonpayable",
      "type": "function"
    },
    {
      "inputs": [
        {
          "internalType": "address",
          "name": "newOwner",
          "type": "address"
        }
      ],
      "name": "transferOwnership",
      "outputs": [],
      "stateMutability": "nonpayable",
      "type": "function"
    }
  ],
  "transactionHash": "0x649ab80c37f1108233b5c385406ea1e819f5718369aac15ccf16f8a30576b075",
  "args": [
    "0x6EDCE65403992e310A62460808c4b910D972f10f",
    "0xd23714A6662eA86271765acF906AECA80EF7d6Fa",
    4294967295
  ],
  "numDeployments": 1,
  "solcInputHash": "564a129764fb1ec6ef6e7e4eab02b916",
  "bytecode": "0x60a06040523480156200001157600080fd5b506040516200202738038062002027833981016040819052620000349162000209565b82828181818133806200006157604051631e4fbdf760e01b81526000600482015260240160405180910390fd5b6200006c816200013b565b506001600160a01b0380831660805281166200009b57604051632d618d8160e21b815260040160405180910390fd5b60805160405163ca5eb5e160e01b81526001600160a01b0383811660048301529091169063ca5eb5e190602401600060405180830381600087803b158015620000e357600080fd5b505af1158015620000f8573d6000803e3d6000fd5b50506003805463ffffffff191663ffffffff8b16179055506200013296508795506200012c94503093506200018b92505050565b62000197565b5050506200025f565b600080546001600160a01b038381166001600160a01b0319831681178455604051919092169283917f8be0079c531659141344cd1fd0a4f28419497f9722a3daafe3b4186f6b6457e09190a35050565b6001600160a01b031690565b63ffffffff8216600081815260016020908152604091829020849055815192835282018390527f238399d427b947898edb290f5ff0f9109849b1c3ba196a42e35f00c50a54b98b910160405180910390a15050565b80516001600160a01b03811681146200020457600080fd5b919050565b6000806000606084860312156200021f57600080fd5b6200022a84620001ec565b92506200023a60208501620001ec565b9150604084015163ffffffff811681146200025457600080fd5b809150509250925092565b608051611d82620002a560003960008181610219015281816104470152818161082001528181610c1501528181610e4101528181610fbf01526110780152611d826000f3fe60806040526004361061011f5760003560e01c806382413eac116100a0578063ca5eb5e111610064578063ca5eb5e114610398578063e5361ee8146103b8578063f0a9e481146103e5578063f2fde38b14610405578063ff7bd03d1461042557600080fd5b806382413eac146102c05780638da5cb5b146102ff578063b98bd0701461031d578063bb0b6a531461033d578063bc70b3541461037857600080fd5b80635535d461116100e75780635535d461146101da5780635e280f1114610207578063715018a6146102535780637d25a05e146102685780637f55dfe3146102a057600080fd5b806313137d651461012457806317442b701461013957806331cf1297146101605780633400288b146101885780633859d937146101a8575b600080fd5b6101376101323660046112eb565b610445565b005b34801561014557600080fd5b50604080516001815260026020820152015b60405180910390f35b34801561016c57600080fd5b50610175600181565b60405161ffff9091168152602001610157565b34801561019457600080fd5b506101376101a33660046113a3565b610505565b3480156101b457600080fd5b506003546101c59063ffffffff1681565b60405163ffffffff9091168152602001610157565b3480156101e657600080fd5b506101fa6101f53660046113df565b61051b565b6040516101579190611462565b34801561021357600080fd5b5061023b7f000000000000000000000000000000000000000000000000000000000000000081565b6040516001600160a01b039091168152602001610157565b34801561025f57600080fd5b506101376105c0565b34801561027457600080fd5b506102886102833660046113a3565b6105d4565b6040516001600160401b039091168152602001610157565b6102b36102ae36600461147c565b6105dd565b60405161015791906114de565b3480156102cc57600080fd5b506102ef6102db366004611520565b6001600160a01b0381163014949350505050565b6040519015158152602001610157565b34801561030b57600080fd5b506000546001600160a01b031661023b565b34801561032957600080fd5b50610137610338366004611586565b610637565b34801561034957600080fd5b5061036a6103583660046115fa565b60016020526000908152604090205481565b604051908152602001610157565b34801561038457600080fd5b506101fa610393366004611615565b610651565b3480156103a457600080fd5b506101376103b3366004611642565b6107f9565b3480156103c457600080fd5b506103d86103d336600461147c565b61087f565b604051610157919061165f565b3480156103f157600080fd5b50610137610400366004611676565b6108d0565b34801561041157600080fd5b50610137610420366004611642565b61090b565b34801561043157600080fd5b506102ef6104403660046116b2565b610949565b7f00000000000000000000000000000000000000000000000000000000000000006001600160a01b03163314610495576040516391ac5e4f60e01b81523360048201526024015b60405180910390fd5b602087018035906104af906104aa908a6115fa565b61097f565b146104ed576104c160208801886115fa565b60405163309afaf360e21b815263ffffffff90911660048201526020880135602482015260440161048c565b6104fc878787878787876109bb565b50505050505050565b61050d610a0e565b6105178282610a3b565b5050565b60026020908152600092835260408084209091529082529020805461053f906116ce565b80601f016020809104026020016040519081016040528092919081815260200182805461056b906116ce565b80156105b85780601f1061058d576101008083540402835291602001916105b8565b820191906000526020600020905b81548152906001019060200180831161059b57829003601f168201915b505050505081565b6105c8610a0e565b6105d26000610a90565b565b60005b92915050565b6105e561122f565b60006105f18686610ae0565b60035490915061062b9063ffffffff168261060f8260018989610651565b6040518060400160405280348152602001600081525033610be2565b9150505b949350505050565b61063f610a0e565b61051761064c8284611770565b610ced565b63ffffffff8416600090815260026020908152604080832061ffff87168452909152812080546060929190610685906116ce565b80601f01602080910402602001604051908101604052809291908181526020018280546106b1906116ce565b80156106fe5780601f106106d3576101008083540402835291602001916106fe565b820191906000526020600020905b8154815290600101906020018083116106e157829003601f168201915b50505050509050805160000361074e5783838080601f01602080910402602001604051908101604052809392919081815260200183838082843760009201919091525092945061062f9350505050565b600083900361075e57905061062f565b600283106107dc576107a584848080601f016020809104026020016040519081016040528093929190818152602001838380828437600092019190915250610dff92505050565b806107b38460028188611895565b6040516020016107c5939291906118bf565b60405160208183030381529060405291505061062f565b8383604051639a6d49cd60e01b815260040161048c9291906118e7565b610801610a0e565b60405163ca5eb5e160e01b81526001600160a01b0382811660048301527f0000000000000000000000000000000000000000000000000000000000000000169063ca5eb5e190602401600060405180830381600087803b15801561086457600080fd5b505af1158015610878573d6000803e3d6000fd5b5050505050565b60408051808201909152600080825260208201526003546108c79063ffffffff166108aa8787610ae0565b6003546108c09063ffffffff1660018888610651565b6000610e2b565b95945050505050565b6108d8610a0e565b6108ee82826108e8576000610a3b565b30610a3b565b506003805463ffffffff191663ffffffff92909216919091179055565b610913610a0e565b6001600160a01b03811661093d57604051631e4fbdf760e01b81526000600482015260240161048c565b61094681610a90565b50565b600060208201803590600190839061096190866115fa565b63ffffffff1681526020810191909152604001600020541492915050565b63ffffffff8116600090815260016020526040812054806105d75760405163f6ff4fb760e01b815263ffffffff8416600482015260240161048c565b60006109c985870187611916565b90507ffb904851c5333a05398ce41f0fd2e5189b8afbcce9eea6cbf76e5b0f082846c9816040516109fc91815260200190565b60405180910390a15050505050505050565b6000546001600160a01b031633146105d25760405163118cdaa760e01b815233600482015260240161048c565b63ffffffff8216600081815260016020908152604091829020849055815192835282018390527f238399d427b947898edb290f5ff0f9109849b1c3ba196a42e35f00c50a54b98b910160405180910390a15050565b600080546001600160a01b038381166001600160a01b0319831681178455604051919092169283917f8be0079c531659141344cd1fd0a4f28419497f9722a3daafe3b4186f6b6457e09190a35050565b6040805160048152602481018252602080820180516001600160e01b0316634c6afee560e11b1790528251600180825281850190945260609360009282015b6040805160e0810182526000808252602080830182905292820181905260608083018290526080830182905260a083019190915260c08201528252600019909201910181610b1f5750506040805160e0810182526001815263ffffffff871660208201526000918101829052426001600160401b03166060820152600f60808201526001600160a01b03881660a082015260c08101859052825192935091839190610bcc57610bcc61192f565b60200260200101819052506108c7600082610f03565b610bea61122f565b6000610bf98460000151610f93565b602085015190915015610c1357610c138460200151610fbb565b7f00000000000000000000000000000000000000000000000000000000000000006001600160a01b0316632637a450826040518060a001604052808b63ffffffff168152602001610c638c61097f565b81526020018a815260200189815260200160008960200151111515815250866040518463ffffffff1660e01b8152600401610c9f929190611945565b60806040518083038185885af1158015610cbd573d6000803e3d6000fd5b50505050506040513d601f19601f82011682018060405250810190610ce29190611a0c565b979650505050505050565b60005b8151811015610dc457610d1f828281518110610d0e57610d0e61192f565b602002602001015160400151610dff565b818181518110610d3157610d3161192f565b60200260200101516040015160026000848481518110610d5357610d5361192f565b60200260200101516000015163ffffffff1663ffffffff1681526020019081526020016000206000848481518110610d8d57610d8d61192f565b60200260200101516020015161ffff1661ffff1681526020019081526020016000209081610dbb9190611ab3565b50600101610cf0565b507fbe4864a8e820971c0247f5992e2da559595f7bf076a21cb5928d443d2a13b67481604051610df49190611b72565b60405180910390a150565b600281015161ffff81166003146105175781604051639a6d49cd60e01b815260040161048c9190611462565b60408051808201909152600080825260208201527f00000000000000000000000000000000000000000000000000000000000000006001600160a01b031663ddc28c586040518060a001604052808863ffffffff168152602001610e8e8961097f565b8152602001878152602001868152602001851515815250306040518363ffffffff1660e01b8152600401610ec3929190611945565b6040805180830381865afa158015610edf573d6000803e3d6000fd5b505050506040513d601f19601f820116820180604052508101906108c79190611bfd565b60606000600184610f14855161109d565b6040516001600160f01b031960f094851b8116602083015292841b83166022820152921b166024820152602601604051602081830303815290604052905060005b8351811015610f8b57610f8182858381518110610f7457610f7461192f565b60200260200101516110cc565b9150600101610f55565b509392505050565b6000813414610fb7576040516304fb820960e51b815234600482015260240161048c565b5090565b60007f00000000000000000000000000000000000000000000000000000000000000006001600160a01b031663e4fe1d946040518163ffffffff1660e01b8152600401602060405180830381865afa15801561101b573d6000803e3d6000fd5b505050506040513d601f19601f8201168201806040525081019061103f9190611c19565b90506001600160a01b038116611068576040516329b99a9560e11b815260040160405180910390fd5b6105176001600160a01b038216337f00000000000000000000000000000000000000000000000000000000000000008561115e565b600061ffff821115610fb7576040516306dfcc6560e41b8152601060048201526024810183905260440161048c565b60606000836001846000015160016110f48760c001515160236110ef9190611c36565b61109d565b60208089015160405161110c97969594939201611c57565b60408051601f19818403018152828252908501516060860151608087015160a088015160c089015194965061114695879590602001611cca565b60405160208183030381529060405291505092915050565b604080516001600160a01b0385811660248301528416604482015260648082018490528251808303909101815260849091019091526020810180516001600160e01b03166323b872dd60e01b1790526111b89085906111be565b50505050565b600080602060008451602086016000885af1806111e1576040513d6000823e3d81fd5b50506000513d915081156111f9578060011415611206565b6001600160a01b0384163b155b156111b857604051635274afe760e01b81526001600160a01b038516600482015260240161048c565b60405180606001604052806000801916815260200160006001600160401b03168152602001611271604051806040016040528060008152602001600081525090565b905290565b60006060828403121561128857600080fd5b50919050565b60008083601f8401126112a057600080fd5b5081356001600160401b038111156112b757600080fd5b6020830191508360208285010111156112cf57600080fd5b9250929050565b6001600160a01b038116811461094657600080fd5b600080600080600080600060e0888a03121561130657600080fd5b6113108989611276565b96506060880135955060808801356001600160401b038082111561133357600080fd5b61133f8b838c0161128e565b909750955060a08a01359150611354826112d6565b90935060c0890135908082111561136a57600080fd5b506113778a828b0161128e565b989b979a50959850939692959293505050565b803563ffffffff8116811461139e57600080fd5b919050565b600080604083850312156113b657600080fd5b6113bf8361138a565b946020939093013593505050565b803561ffff8116811461139e57600080fd5b600080604083850312156113f257600080fd5b6113fb8361138a565b9150611409602084016113cd565b90509250929050565b60005b8381101561142d578181015183820152602001611415565b50506000910152565b6000815180845261144e816020860160208601611412565b601f01601f19169290920160200192915050565b6020815260006114756020830184611436565b9392505050565b6000806000806060858703121561149257600080fd5b843561149d816112d6565b93506114ab6020860161138a565b925060408501356001600160401b038111156114c657600080fd5b6114d28782880161128e565b95989497509550505050565b6000608082019050825182526001600160401b0360208401511660208301526040830151611519604084018280518252602090810151910152565b5092915050565b60008060008060a0858703121561153657600080fd5b6115408686611276565b935060608501356001600160401b0381111561155b57600080fd5b6115678782880161128e565b909450925050608085013561157b816112d6565b939692955090935050565b6000806020838503121561159957600080fd5b82356001600160401b03808211156115b057600080fd5b818501915085601f8301126115c457600080fd5b8135818111156115d357600080fd5b8660208260051b85010111156115e857600080fd5b60209290920196919550909350505050565b60006020828403121561160c57600080fd5b6114758261138a565b6000806000806060858703121561162b57600080fd5b6116348561138a565b93506114ab602086016113cd565b60006020828403121561165457600080fd5b8135611475816112d6565b8151815260208083015190820152604081016105d7565b6000806040838503121561168957600080fd5b6116928361138a565b9150602083013580151581146116a757600080fd5b809150509250929050565b6000606082840312156116c457600080fd5b6114758383611276565b600181811c908216806116e257607f821691505b60208210810361128857634e487b7160e01b600052602260045260246000fd5b634e487b7160e01b600052604160045260246000fd5b604051606081016001600160401b038111828210171561173a5761173a611702565b60405290565b604051601f8201601f191681016001600160401b038111828210171561176857611768611702565b604052919050565b60006001600160401b038084111561178a5761178a611702565b8360051b602061179b818301611740565b8681529185019181810190368411156117b357600080fd5b865b84811015611889578035868111156117cd5760008081fd5b880160603682900312156117e15760008081fd5b6117e9611718565b6117f28261138a565b81526117ff8683016113cd565b86820152604080830135898111156118175760008081fd5b9290920191601f368185011261182d5760008081fd5b83358a81111561183f5761183f611702565b611850818301601f19168a01611740565b915080825236898287010111156118675760008081fd5b808986018a8401376000908201890152908201528452509183019183016117b5565b50979650505050505050565b600080858511156118a557600080fd5b838611156118b257600080fd5b5050820193919092039150565b600084516118d1818460208901611412565b8201838582376000930192835250909392505050565b60208152816020820152818360408301376000818301604090810191909152601f909201601f19160101919050565b60006020828403121561192857600080fd5b5035919050565b634e487b7160e01b600052603260045260246000fd5b6040815263ffffffff8351166040820152602083015160608201526000604084015160a0608084015261197b60e0840182611436565b90506060850151603f198483030160a08501526119988282611436565b60809690960151151560c08501525050506001600160a01b039190911660209091015290565b6000604082840312156119d057600080fd5b604051604081018181106001600160401b03821117156119f2576119f2611702565b604052825181526020928301519281019290925250919050565b600060808284031215611a1e57600080fd5b611a26611718565b8251815260208301516001600160401b0381168114611a4457600080fd5b6020820152611a5684604085016119be565b60408201529392505050565b601f821115611aae576000816000526020600020601f850160051c81016020861015611a8b5750805b601f850160051c820191505b81811015611aaa57828155600101611a97565b5050505b505050565b81516001600160401b03811115611acc57611acc611702565b611ae081611ada84546116ce565b84611a62565b602080601f831160018114611b155760008415611afd5750858301515b600019600386901b1c1916600185901b178555611aaa565b600085815260208120601f198616915b82811015611b4457888601518255948401946001909101908401611b25565b5085821015611b625787850151600019600388901b60f8161c191681555b5050505050600190811b01905550565b600060208083018184528085518083526040925060408601915060408160051b87010184880160005b83811015611bef57888303603f190185528151805163ffffffff1684528781015161ffff16888501528601516060878501819052611bdb81860183611436565b968901969450505090860190600101611b9b565b509098975050505050505050565b600060408284031215611c0f57600080fd5b61147583836119be565b600060208284031215611c2b57600080fd5b8151611475816112d6565b808201808211156105d757634e487b7160e01b600052601160045260246000fd5b60008751611c69818460208c01611412565b60f89790971b6001600160f81b0319169190960190815260f094851b6001600160f01b0319908116600183015293851b841660038201529190931b909116600582015260e09190911b6001600160e01b0319166007820152600b0192915050565b60008751611cdc818460208c01611412565b87151560f81b90830190815260c087901b6001600160c01b031916600182015260f086901b6001600160f01b0319166009820152606085901b6bffffffffffffffffffffffff1916600b8201528351611d3c81601f840160208801611412565b01601f019897505050505050505056fea26469706673582212201c5eb68add13deada64f40b04aa125b592dbcbbb3eff229a595ca46dd8ff10dd64736f6c63430008160033",
  "devdoc": {
    "errors": {
      "OwnableInvalidOwner(address)": [
        {
          "details": "The owner is not a valid owner account. (eg. `address(0)`)"
        }
      ],
      "OwnableUnauthorizedAccount(address)": [
        {
          "details": "The caller account is not authorized to perform an operation."
        }
      ],
      "SafeCastOverflowedUintDowncast(uint8,uint256)": [
        {
          "details": "Value doesn't fit in an uint of `bits` size."
        }
      ],
      "SafeERC20FailedOperation(address)": [
        {
          "details": "An operation with an ERC-20 token failed."
        }
      ]
    },
    "events": {
      "DataReceived(uint256)": {
        "params": {
          "data": "The value of the public state variable."
        }
      }
    },
    "kind": "dev",
    "methods": {
      "allowInitializePath((uint32,bytes32,uint64))": {
        "details": "This indicates to the endpoint that the OApp has enabled msgs for this particular path to be received.This defaults to assuming if a peer has been set, its initialized. Can be overridden by the OApp if there is other logic to determine this.",
        "params": {
          "origin": "The origin information containing the source endpoint and sender address."
        },
        "returns": {
          "_0": "Whether the path has been initialized."
        }
      },
      "combineOptions(uint32,uint16,bytes)": {
        "details": "If there is an enforced lzReceive option: - {gasLimit: 200k, msg.value: 1 ether} AND a caller supplies a lzReceive option: {gasLimit: 100k, msg.value: 0.5 ether} - The resulting options will be {gasLimit: 300k, msg.value: 1.5 ether} when the message is executed on the remote lzReceive() function.This presence of duplicated options is handled off-chain in the verifier/executor.",
        "params": {
          "_eid": "The endpoint ID.",
          "_extraOptions": "Additional options passed by the caller.",
          "_msgType": "The OAPP message type."
        },
        "returns": {
          "_0": "options The combination of caller specified options AND enforced options."
        }
      },
      "constructor": {
        "params": {
          "_delegate": "The address that will have ownership privileges.",
          "_endpoint": "The LayerZero endpoint contract address.",
          "_readChannel": "The LayerZero read channel ID."
        }
      },
      "isComposeMsgSender((uint32,bytes32,uint64),bytes,address)": {
        "details": "_origin The origin information containing the source endpoint and sender address.  - srcEid: The source chain endpoint ID.  - sender: The sender address on the src chain.  - nonce: The nonce of the message._message The lzReceive payload.Applications can optionally choose to implement separate composeMsg senders that are NOT the bridging layer.The default sender IS the OAppReceiver implementer.",
        "params": {
          "_sender": "The sender address."
        },
        "returns": {
          "_0": "isSender Is a valid sender."
        }
      },
      "lzReceive((uint32,bytes32,uint64),bytes32,bytes,address,bytes)": {
        "details": "Entry point for receiving messages or packets from the endpoint.Entry point for receiving msg/packet from the LayerZero endpoint.",
        "params": {
          "_executor": "The address of the executor for the received message.",
          "_extraData": "Additional arbitrary data provided by the corresponding executor.",
          "_guid": "The unique identifier for the received LayerZero message.",
          "_message": "The payload of the received message.",
          "_origin": "The origin information containing the source endpoint and sender address.  - srcEid: The source chain endpoint ID.  - sender: The sender address on the src chain.  - nonce: The nonce of the message."
        }
      },
      "nextNonce(uint32,bytes32)": {
        "details": "_srcEid The source endpoint ID._sender The sender address.The path nonce starts from 1. If 0 is returned it means that there is NO nonce ordered enforcement.Is required by the off-chain executor to determine the OApp expects msg execution is ordered.This is also enforced by the OApp.By default this is NOT enabled. ie. nextNonce is hardcoded to return 0.",
        "returns": {
          "nonce": "The next nonce."
        }
      },
      "oAppVersion()": {
        "returns": {
          "receiverVersion": "The version of the OAppReceiver.sol implementation.",
          "senderVersion": "The version of the OAppSender.sol implementation."
        }
      },
      "owner()": {
        "details": "Returns the address of the current owner."
      },
      "quoteReadFee(address,uint32,bytes)": {
        "params": {
          "_extraOptions": "Additional messaging options.",
          "_targetContractAddress": "The address of the contract on the target chain containing the `data` variable.",
          "_targetEid": "The target chain's Endpoint ID."
        },
        "returns": {
          "fee": "The estimated messaging fee."
        }
      },
      "readData(address,uint32,bytes)": {
        "details": "The caller must send enough ETH to cover the messaging fee.",
        "params": {
          "_extraOptions": "Additional messaging options.",
          "_targetContractAddress": "The address of the contract on the target chain containing the `data` variable.",
          "_targetEid": "The target chain's Endpoint ID."
        },
        "returns": {
          "receipt": "The LayerZero messaging receipt for the request."
        }
      },
      "renounceOwnership()": {
        "details": "Leaves the contract without owner. It will not be possible to call `onlyOwner` functions. Can only be called by the current owner. NOTE: Renouncing ownership will leave the contract without an owner, thereby disabling any functionality that is only available to the owner."
      },
      "setDelegate(address)": {
        "details": "Only the owner/admin of the OApp can call this function.Provides the ability for a delegate to set configs, on behalf of the OApp, directly on the Endpoint contract.",
        "params": {
          "_delegate": "The address of the delegate to be set."
        }
      },
      "setEnforcedOptions((uint32,uint16,bytes)[])": {
        "details": "Sets the enforced options for specific endpoint and message type combinations.Only the owner/admin of the OApp can call this function.Provides a way for the OApp to enforce things like paying for PreCrime, AND/OR minimum dst lzReceive gas amounts etc.These enforced options can vary as the potential options/execution on the remote may differ as per the msgType. eg. Amount of lzReceive() gas necessary to deliver a lzCompose() message adds overhead you dont want to pay if you are only making a standard LayerZero message ie. lzReceive() WITHOUT sendCompose().",
        "params": {
          "_enforcedOptions": "An array of EnforcedOptionParam structures specifying enforced options."
        }
      },
      "setPeer(uint32,bytes32)": {
        "details": "Only the owner/admin of the OApp can call this function.Indicates that the peer is trusted to send LayerZero messages to this OApp.Set this to bytes32(0) to remove the peer address.Peer is a bytes32 to accommodate non-evm chains.",
        "params": {
          "_eid": "The endpoint ID.",
          "_peer": "The address of the peer to be associated with the corresponding endpoint."
        }
      },
      "setReadChannel(uint32,bool)": {
        "details": "Only callable by the owner.",
        "params": {
          "_active": "Flag to activate or deactivate the channel.",
          "_channelId": "The channel ID to set."
        }
      },
      "transferOwnership(address)": {
        "details": "Transfers ownership of the contract to a new account (`newOwner`). Can only be called by the current owner."
      }
    },
    "title": "ReadPublic",
    "version": 1
  },
  "userdoc": {
    "events": {
      "DataReceived(uint256)": {
        "notice": "Emitted when the data is received."
      }
    },
    "kind": "user",
    "methods": {
      "READ_CHANNEL()": {
        "notice": "LayerZero read channel ID."
      },
      "READ_TYPE()": {
        "notice": "Message type for the read operation."
      },
      "allowInitializePath((uint32,bytes32,uint64))": {
        "notice": "Checks if the path initialization is allowed based on the provided origin."
      },
      "combineOptions(uint32,uint16,bytes)": {
        "notice": "Combines options for a given endpoint and message type."
      },
      "constructor": {
        "notice": "Constructor to initialize the OAppRead contract."
      },
      "endpoint()": {
        "notice": "Retrieves the LayerZero endpoint associated with the OApp."
      },
      "isComposeMsgSender((uint32,bytes32,uint64),bytes,address)": {
        "notice": "Indicates whether an address is an approved composeMsg sender to the Endpoint."
      },
      "nextNonce(uint32,bytes32)": {
        "notice": "Retrieves the next nonce for a given source endpoint and sender address."
      },
      "oAppVersion()": {
        "notice": "Retrieves the OApp version information."
      },
      "peers(uint32)": {
        "notice": "Retrieves the peer (OApp) associated with a corresponding endpoint."
      },
      "quoteReadFee(address,uint32,bytes)": {
        "notice": "Estimates the messaging fee required to perform the read operation."
      },
      "readData(address,uint32,bytes)": {
        "notice": "Sends a read request to fetch the public state variable `data`."
      },
      "setDelegate(address)": {
        "notice": "Sets the delegate address for the OApp."
      },
      "setPeer(uint32,bytes32)": {
        "notice": "Sets the peer address (OApp instance) for a corresponding endpoint."
      },
      "setReadChannel(uint32,bool)": {
        "notice": "Sets the LayerZero read channel."
      }
    },
    "notice": "An OAppRead contract example to read a public state variable from another chain.",
    "version": 1
  },
  "storageLayout": {
    "storage": [
      {
        "astId": 2625,
        "contract": "contracts/OAppRead.sol:ReadPublic",
        "label": "_owner",
        "offset": 0,
        "slot": "0",
        "type": "t_address"
      },
      {
        "astId": 938,
        "contract": "contracts/OAppRead.sol:ReadPublic",
        "label": "peers",
        "offset": 0,
        "slot": "1",
        "type": "t_mapping(t_uint32,t_bytes32)"
      },
      {
        "astId": 1582,
        "contract": "contracts/OAppRead.sol:ReadPublic",
        "label": "enforcedOptions",
        "offset": 0,
        "slot": "2",
        "type": "t_mapping(t_uint32,t_mapping(t_uint16,t_bytes_storage))"
      },
      {
        "astId": 5379,
        "contract": "contracts/OAppRead.sol:ReadPublic",
        "label": "READ_CHANNEL",
        "offset": 0,
        "slot": "3",
        "type": "t_uint32"
      }
    ],
    "types": {
      "t_address": {
        "encoding": "inplace",
        "label": "address",
        "numberOfBytes": "20"
      },
      "t_bytes32": {
        "encoding": "inplace",
        "label": "bytes32",
        "numberOfBytes": "32"
      },
      "t_bytes_storage": {
        "encoding": "bytes",
        "label": "bytes",
        "numberOfBytes": "32"
      },
      "t_mapping(t_uint16,t_bytes_storage)": {
        "encoding": "mapping",
        "key": "t_uint16",
        "label": "mapping(uint16 => bytes)",
        "numberOfBytes": "32",
        "value": "t_bytes_storage"
      },
      "t_mapping(t_uint32,t_bytes32)": {
        "encoding": "mapping",
        "key": "t_uint32",
        "label": "mapping(uint32 => bytes32)",
        "numberOfBytes": "32",
        "value": "t_bytes32"
      },
      "t_mapping(t_uint32,t_mapping(t_uint16,t_bytes_storage))": {
        "encoding": "mapping",
        "key": "t_uint32",
        "label": "mapping(uint32 => mapping(uint16 => bytes))",
        "numberOfBytes": "32",
        "value": "t_mapping(t_uint16,t_bytes_storage)"
      },
      "t_uint16": {
        "encoding": "inplace",
        "label": "uint16",
        "numberOfBytes": "2"
      },
      "t_uint32": {
        "encoding": "inplace",
        "label": "uint32",
        "numberOfBytes": "4"
      }
    }
  }
}