{
  "address": "0x0110970B0BF4597D669C32d686E15ad610EC795B",
  "abi": [
    {
      "inputs": [
        {
          "internalType": "string",
          "name": "_name",
          "type": "string"
        },
        {
          "internalType": "string",
          "name": "_symbol",
          "type": "string"
        },
        {
          "internalType": "address",
          "name": "_lzEndpoint",
          "type": "address"
        },
        {
          "internalType": "address",
          "name": "_owner",
          "type": "address"
        }
      ],
      "stateMutability": "nonpayable",
      "type": "constructor"
    },
    {
      "inputs": [
        {
          "internalType": "address",
          "name": "spender",
          "type": "address"
        },
        {
          "internalType": "uint256",
          "name": "allowance",
          "type": "uint256"
        },
        {
          "internalType": "uint256",
          "name": "needed",
          "type": "uint256"
        }
      ],
      "name": "ERC20InsufficientAllowance",
      "type": "error"
    },
    {
      "inputs": [
        {
          "internalType": "address",
          "name": "sender",
          "type": "address"
        },
        {
          "internalType": "uint256",
          "name": "balance",
          "type": "uint256"
        },
        {
          "internalType": "uint256",
          "name": "needed",
          "type": "uint256"
        }
      ],
      "name": "ERC20InsufficientBalance",
      "type": "error"
    },
    {
      "inputs": [
        {
          "internalType": "address",
          "name": "approver",
          "type": "address"
        }
      ],
      "name": "ERC20InvalidApprover",
      "type": "error"
    },
    {
      "inputs": [
        {
          "internalType": "address",
          "name": "receiver",
          "type": "address"
        }
      ],
      "name": "ERC20InvalidReceiver",
      "type": "error"
    },
    {
      "inputs": [
        {
          "internalType": "address",
          "name": "sender",
          "type": "address"
        }
      ],
      "name": "ERC20InvalidSender",
      "type": "error"
    },
    {
      "inputs": [
        {
          "internalType": "address",
          "name": "spender",
          "type": "address"
        }
      ],
      "name": "ERC20InvalidSpender",
      "type": "error"
    },
    {
      "inputs": [],
      "name": "InvalidDelegate",
      "type": "error"
    },
    {
      "inputs": [],
      "name": "InvalidEndpointCall",
      "type": "error"
    },
    {
      "inputs": [],
      "name": "InvalidLocalDecimals",
      "type": "error"
    },
    {
      "inputs": [
        {
          "internalType": "bytes",
          "name": "options",
          "type": "bytes"
        }
      ],
      "name": "InvalidOptions",
      "type": "error"
    },
    {
      "inputs": [],
      "name": "LzTokenUnavailable",
      "type": "error"
    },
    {
      "inputs": [
        {
          "internalType": "uint32",
          "name": "eid",
          "type": "uint32"
        }
      ],
      "name": "NoPeer",
      "type": "error"
    },
    {
      "inputs": [
        {
          "internalType": "uint256",
          "name": "msgValue",
          "type": "uint256"
        }
      ],
      "name": "NotEnoughNative",
      "type": "error"
    },
    {
      "inputs": [
        {
          "internalType": "address",
          "name": "addr",
          "type": "address"
        }
      ],
      "name": "OnlyEndpoint",
      "type": "error"
    },
    {
      "inputs": [
        {
          "internalType": "uint32",
          "name": "eid",
          "type": "uint32"
        },
        {
          "internalType": "bytes32",
          "name": "sender",
          "type": "bytes32"
        }
      ],
      "name": "OnlyPeer",
      "type": "error"
    },
    {
      "inputs": [],
      "name": "OnlySelf",
      "type": "error"
    },
    {
      "inputs": [
        {
          "internalType": "address",
          "name": "owner",
          "type": "address"
        }
      ],
      "name": "OwnableInvalidOwner",
      "type": "error"
    },
    {
      "inputs": [
        {
          "internalType": "address",
          "name": "account",
          "type": "address"
        }
      ],
      "name": "OwnableUnauthorizedAccount",
      "type": "error"
    },
    {
      "inputs": [
        {
          "internalType": "address",
          "name": "token",
          "type": "address"
        }
      ],
      "name": "SafeERC20FailedOperation",
      "type": "error"
    },
    {
      "inputs": [
        {
          "internalType": "bytes",
          "name": "result",
          "type": "bytes"
        }
      ],
      "name": "SimulationResult",
      "type": "error"
    },
    {
      "inputs": [
        {
          "internalType": "uint256",
          "name": "amountLD",
          "type": "uint256"
        },
        {
          "internalType": "uint256",
          "name": "minAmountLD",
          "type": "uint256"
        }
      ],
      "name": "SlippageExceeded",
      "type": "error"
    },
    {
      "anonymous": false,
      "inputs": [
        {
          "indexed": true,
          "internalType": "address",
          "name": "owner",
          "type": "address"
        },
        {
          "indexed": true,
          "internalType": "address",
          "name": "spender",
          "type": "address"
        },
        {
          "indexed": false,
          "internalType": "uint256",
          "name": "value",
          "type": "uint256"
        }
      ],
      "name": "Approval",
      "type": "event"
    },
    {
      "anonymous": false,
      "inputs": [
        {
          "components": [
            {
              "internalType": "uint32",
              "name": "eid",
              "type": "uint32"
            },
            {
              "internalType": "uint16",
              "name": "msgType",
              "type": "uint16"
            },
            {
              "internalType": "bytes",
              "name": "options",
              "type": "bytes"
            }
          ],
          "indexed": false,
          "internalType": "struct EnforcedOptionParam[]",
          "name": "_enforcedOptions",
          "type": "tuple[]"
        }
      ],
      "name": "EnforcedOptionSet",
      "type": "event"
    },
    {
      "anonymous": false,
      "inputs": [
        {
          "indexed": false,
          "internalType": "address",
          "name": "inspector",
          "type": "address"
        }
      ],
      "name": "MsgInspectorSet",
      "type": "event"
    },
    {
      "anonymous": false,
      "inputs": [
        {
          "indexed": true,
          "internalType": "bytes32",
          "name": "guid",
          "type": "bytes32"
        },
        {
          "indexed": false,
          "internalType": "uint32",
          "name": "srcEid",
          "type": "uint32"
        },
        {
          "indexed": true,
          "internalType": "address",
          "name": "toAddress",
          "type": "address"
        },
        {
          "indexed": false,
          "internalType": "uint256",
          "name": "amountReceivedLD",
          "type": "uint256"
        }
      ],
      "name": "OFTReceived",
      "type": "event"
    },
    {
      "anonymous": false,
      "inputs": [
        {
          "indexed": true,
          "internalType": "bytes32",
          "name": "guid",
          "type": "bytes32"
        },
        {
          "indexed": false,
          "internalType": "uint32",
          "name": "dstEid",
          "type": "uint32"
        },
        {
          "indexed": true,
          "internalType": "address",
          "name": "fromAddress",
          "type": "address"
        },
        {
          "indexed": false,
          "internalType": "uint256",
          "name": "amountSentLD",
          "type": "uint256"
        },
        {
          "indexed": false,
          "internalType": "uint256",
          "name": "amountReceivedLD",
          "type": "uint256"
        }
      ],
      "name": "OFTSent",
      "type": "event"
    },
    {
      "anonymous": false,
      "inputs": [
        {
          "indexed": true,
          "internalType": "address",
          "name": "previousOwner",
          "type": "address"
        },
        {
          "indexed": true,
          "internalType": "address",
          "name": "newOwner",
          "type": "address"
        }
      ],
      "name": "OwnershipTransferred",
      "type": "event"
    },
    {
      "anonymous": false,
      "inputs": [
        {
          "indexed": false,
          "internalType": "uint32",
          "name": "eid",
          "type": "uint32"
        },
        {
          "indexed": false,
          "internalType": "bytes32",
          "name": "peer",
          "type": "bytes32"
        }
      ],
      "name": "PeerSet",
      "type": "event"
    },
    {
      "anonymous": false,
      "inputs": [
        {
          "indexed": false,
          "internalType": "address",
          "name": "preCrimeAddress",
          "type": "address"
        }
      ],
      "name": "PreCrimeSet",
      "type": "event"
    },
    {
      "anonymous": false,
      "inputs": [
        {
          "indexed": true,
          "internalType": "address",
          "name": "from",
          "type": "address"
        },
        {
          "indexed": true,
          "internalType": "address",
          "name": "to",
          "type": "address"
        },
        {
          "indexed": false,
          "internalType": "uint256",
          "name": "value",
          "type": "uint256"
        }
      ],
      "name": "Transfer",
      "type": "event"
    },
    {
      "inputs": [],
      "name": "SEND",
      "outputs": [
        {
          "internalType": "uint16",
          "name": "",
          "type": "uint16"
        }
      ],
      "stateMutability": "view",
      "type": "function"
    },
    {
      "inputs": [],
      "name": "SEND_AND_CALL",
      "outputs": [
        {
          "internalType": "uint16",
          "name": "",
          "type": "uint16"
        }
      ],
      "stateMutability": "view",
      "type": "function"
    },
    {
      "inputs": [
        {
          "components": [
            {
              "internalType": "uint32",
              "name": "srcEid",
              "type": "uint32"
            },
            {
              "internalType": "bytes32",
              "name": "sender",
              "type": "bytes32"
            },
            {
              "internalType": "uint64",
              "name": "nonce",
              "type": "uint64"
            }
          ],
          "internalType": "struct Origin",
          "name": "origin",
          "type": "tuple"
        }
      ],
      "name": "allowInitializePath",
      "outputs": [
        {
          "internalType": "bool",
          "name": "",
          "type": "bool"
        }
      ],
      "stateMutability": "view",
      "type": "function"
    },
    {
      "inputs": [
        {
          "internalType": "address",
          "name": "owner",
          "type": "address"
        },
        {
          "internalType": "address",
          "name": "spender",
          "type": "address"
        }
      ],
      "name": "allowance",
      "outputs": [
        {
          "internalType": "uint256",
          "name": "",
          "type": "uint256"
        }
      ],
      "stateMutability": "view",
      "type": "function"
    },
    {
      "inputs": [],
      "name": "approvalRequired",
      "outputs": [
        {
          "internalType": "bool",
          "name": "",
          "type": "bool"
        }
      ],
      "stateMutability": "pure",
      "type": "function"
    },
    {
      "inputs": [
        {
          "internalType": "address",
          "name": "spender",
          "type": "address"
        },
        {
          "internalType": "uint256",
          "name": "value",
          "type": "uint256"
        }
      ],
      "name": "approve",
      "outputs": [
        {
          "internalType": "bool",
          "name": "",
          "type": "bool"
        }
      ],
      "stateMutability": "nonpayable",
      "type": "function"
    },
    {
      "inputs": [
        {
          "internalType": "address",
          "name": "account",
          "type": "address"
        }
      ],
      "name": "balanceOf",
      "outputs": [
        {
          "internalType": "uint256",
          "name": "",
          "type": "uint256"
        }
      ],
      "stateMutability": "view",
      "type": "function"
    },
    {
      "inputs": [
        {
          "internalType": "uint32",
          "name": "_eid",
          "type": "uint32"
        },
        {
          "internalType": "uint16",
          "name": "_msgType",
          "type": "uint16"
        },
        {
          "internalType": "bytes",
          "name": "_extraOptions",
          "type": "bytes"
        }
      ],
      "name": "combineOptions",
      "outputs": [
        {
          "internalType": "bytes",
          "name": "",
          "type": "bytes"
        }
      ],
      "stateMutability": "view",
      "type": "function"
    },
    {
      "inputs": [],
      "name": "decimalConversionRate",
      "outputs": [
        {
          "internalType": "uint256",
          "name": "",
          "type": "uint256"
        }
      ],
      "stateMutability": "view",
      "type": "function"
    },
    {
      "inputs": [],
      "name": "decimals",
      "outputs": [
        {
          "internalType": "uint8",
          "name": "",
          "type": "uint8"
        }
      ],
      "stateMutability": "view",
      "type": "function"
    },
    {
      "inputs": [],
      "name": "endpoint",
      "outputs": [
        {
          "internalType": "contract ILayerZeroEndpointV2",
          "name": "",
          "type": "address"
        }
      ],
      "stateMutability": "view",
      "type": "function"
    },
    {
      "inputs": [
        {
          "internalType": "uint32",
          "name": "eid",
          "type": "uint32"
        },
        {
          "internalType": "uint16",
          "name": "msgType",
          "type": "uint16"
        }
      ],
      "name": "enforcedOptions",
      "outputs": [
        {
          "internalType": "bytes",
          "name": "enforcedOption",
          "type": "bytes"
        }
      ],
      "stateMutability": "view",
      "type": "function"
    },
    {
      "inputs": [
        {
          "components": [
            {
              "internalType": "uint32",
              "name": "srcEid",
              "type": "uint32"
            },
            {
              "internalType": "bytes32",
              "name": "sender",
              "type": "bytes32"
            },
            {
              "internalType": "uint64",
              "name": "nonce",
              "type": "uint64"
            }
          ],
          "internalType": "struct Origin",
          "name": "",
          "type": "tuple"
        },
        {
          "internalType": "bytes",
          "name": "",
          "type": "bytes"
        },
        {
          "internalType": "address",
          "name": "_sender",
          "type": "address"
        }
      ],
      "name": "isComposeMsgSender",
      "outputs": [
        {
          "internalType": "bool",
          "name": "",
          "type": "bool"
        }
      ],
      "stateMutability": "view",
      "type": "function"
    },
    {
      "inputs": [
        {
          "internalType": "uint32",
          "name": "_eid",
          "type": "uint32"
        },
        {
          "internalType": "bytes32",
          "name": "_peer",
          "type": "bytes32"
        }
      ],
      "name": "isPeer",
      "outputs": [
        {
          "internalType": "bool",
          "name": "",
          "type": "bool"
        }
      ],
      "stateMutability": "view",
      "type": "function"
    },
    {
      "inputs": [
        {
          "components": [
            {
              "internalType": "uint32",
              "name": "srcEid",
              "type": "uint32"
            },
            {
              "internalType": "bytes32",
              "name": "sender",
              "type": "bytes32"
            },
            {
              "internalType": "uint64",
              "name": "nonce",
              "type": "uint64"
            }
          ],
          "internalType": "struct Origin",
          "name": "_origin",
          "type": "tuple"
        },
        {
          "internalType": "bytes32",
          "name": "_guid",
          "type": "bytes32"
        },
        {
          "internalType": "bytes",
          "name": "_message",
          "type": "bytes"
        },
        {
          "internalType": "address",
          "name": "_executor",
          "type": "address"
        },
        {
          "internalType": "bytes",
          "name": "_extraData",
          "type": "bytes"
        }
      ],
      "name": "lzReceive",
      "outputs": [],
      "stateMutability": "payable",
      "type": "function"
    },
    {
      "inputs": [
        {
          "components": [
            {
              "components": [
                {
                  "internalType": "uint32",
                  "name": "srcEid",
                  "type": "uint32"
                },
                {
                  "internalType": "bytes32",
                  "name": "sender",
                  "type": "bytes32"
                },
                {
                  "internalType": "uint64",
                  "name": "nonce",
                  "type": "uint64"
                }
              ],
              "internalType": "struct Origin",
              "name": "origin",
              "type": "tuple"
            },
            {
              "internalType": "uint32",
              "name": "dstEid",
              "type": "uint32"
            },
            {
              "internalType": "address",
              "name": "receiver",
              "type": "address"
            },
            {
              "internalType": "bytes32",
              "name": "guid",
              "type": "bytes32"
            },
            {
              "internalType": "uint256",
              "name": "value",
              "type": "uint256"
            },
            {
              "internalType": "address",
              "name": "executor",
              "type": "address"
            },
            {
              "internalType": "bytes",
              "name": "message",
              "type": "bytes"
            },
            {
              "internalType": "bytes",
              "name": "extraData",
              "type": "bytes"
            }
          ],
          "internalType": "struct InboundPacket[]",
          "name": "_packets",
          "type": "tuple[]"
        }
      ],
      "name": "lzReceiveAndRevert",
      "outputs": [],
      "stateMutability": "payable",
      "type": "function"
    },
    {
      "inputs": [
        {
          "components": [
            {
              "internalType": "uint32",
              "name": "srcEid",
              "type": "uint32"
            },
            {
              "internalType": "bytes32",
              "name": "sender",
              "type": "bytes32"
            },
            {
              "internalType": "uint64",
              "name": "nonce",
              "type": "uint64"
            }
          ],
          "internalType": "struct Origin",
          "name": "_origin",
          "type": "tuple"
        },
        {
          "internalType": "bytes32",
          "name": "_guid",
          "type": "bytes32"
        },
        {
          "internalType": "bytes",
          "name": "_message",
          "type": "bytes"
        },
        {
          "internalType": "address",
          "name": "_executor",
          "type": "address"
        },
        {
          "internalType": "bytes",
          "name": "_extraData",
          "type": "bytes"
        }
      ],
      "name": "lzReceiveSimulate",
      "outputs": [],
      "stateMutability": "payable",
      "type": "function"
    },
    {
      "inputs": [
        {
          "internalType": "address",
          "name": "to",
          "type": "address"
        },
        {
          "internalType": "uint256",
          "name": "amount",
          "type": "uint256"
        }
      ],
      "name": "mint",
      "outputs": [],
      "stateMutability": "nonpayable",
      "type": "function"
    },
    {
      "inputs": [],
      "name": "msgInspector",
      "outputs": [
        {
          "internalType": "address",
          "name": "",
          "type": "address"
        }
      ],
      "stateMutability": "view",
      "type": "function"
    },
    {
      "inputs": [],
      "name": "name",
      "outputs": [
        {
          "internalType": "string",
          "name": "",
          "type": "string"
        }
      ],
      "stateMutability": "view",
      "type": "function"
    },
    {
      "inputs": [
        {
          "internalType": "uint32",
          "name": "",
          "type": "uint32"
        },
        {
          "internalType": "bytes32",
          "name": "",
          "type": "bytes32"
        }
      ],
      "name": "nextNonce",
      "outputs": [
        {
          "internalType": "uint64",
          "name": "nonce",
          "type": "uint64"
        }
      ],
      "stateMutability": "view",
      "type": "function"
    },
    {
      "inputs": [],
      "name": "oApp",
      "outputs": [
        {
          "internalType": "address",
          "name": "",
          "type": "address"
        }
      ],
      "stateMutability": "view",
      "type": "function"
    },
    {
      "inputs": [],
      "name": "oAppVersion",
      "outputs": [
        {
          "internalType": "uint64",
          "name": "senderVersion",
          "type": "uint64"
        },
        {
          "internalType": "uint64",
          "name": "receiverVersion",
          "type": "uint64"
        }
      ],
      "stateMutability": "pure",
      "type": "function"
    },
    {
      "inputs": [],
      "name": "oftVersion",
      "outputs": [
        {
          "internalType": "bytes4",
          "name": "interfaceId",
          "type": "bytes4"
        },
        {
          "internalType": "uint64",
          "name": "version",
          "type": "uint64"
        }
      ],
      "stateMutability": "pure",
      "type": "function"
    },
    {
      "inputs": [],
      "name": "owner",
      "outputs": [
        {
          "internalType": "address",
          "name": "",
          "type": "address"
        }
      ],
      "stateMutability": "view",
      "type": "function"
    },
    {
      "inputs": [
        {
          "internalType": "uint32",
          "name": "eid",
          "type": "uint32"
        }
      ],
      "name": "peers",
      "outputs": [
        {
          "internalType": "bytes32",
          "name": "peer",
          "type": "bytes32"
        }
      ],
      "stateMutability": "view",
      "type": "function"
    },
    {
      "inputs": [],
      "name": "preCrime",
      "outputs": [
        {
          "internalType": "address",
          "name": "",
          "type": "address"
        }
      ],
      "stateMutability": "view",
      "type": "function"
    },
    {
      "inputs": [
        {
          "components": [
            {
              "internalType": "uint32",
              "name": "dstEid",
              "type": "uint32"
            },
            {
              "internalType": "bytes32",
              "name": "to",
              "type": "bytes32"
            },
            {
              "internalType": "uint256",
              "name": "amountLD",
              "type": "uint256"
            },
            {
              "internalType": "uint256",
              "name": "minAmountLD",
              "type": "uint256"
            },
            {
              "internalType": "bytes",
              "name": "extraOptions",
              "type": "bytes"
            },
            {
              "internalType": "bytes",
              "name": "composeMsg",
              "type": "bytes"
            },
            {
              "internalType": "bytes",
              "name": "oftCmd",
              "type": "bytes"
            }
          ],
          "internalType": "struct SendParam",
          "name": "_sendParam",
          "type": "tuple"
        }
      ],
      "name": "quoteOFT",
      "outputs": [
        {
          "components": [
            {
              "internalType": "uint256",
              "name": "minAmountLD",
              "type": "uint256"
            },
            {
              "internalType": "uint256",
              "name": "maxAmountLD",
              "type": "uint256"
            }
          ],
          "internalType": "struct OFTLimit",
          "name": "oftLimit",
          "type": "tuple"
        },
        {
          "components": [
            {
              "internalType": "int256",
              "name": "feeAmountLD",
              "type": "int256"
            },
            {
              "internalType": "string",
              "name": "description",
              "type": "string"
            }
          ],
          "internalType": "struct OFTFeeDetail[]",
          "name": "oftFeeDetails",
          "type": "tuple[]"
        },
        {
          "components": [
            {
              "internalType": "uint256",
              "name": "amountSentLD",
              "type": "uint256"
            },
            {
              "internalType": "uint256",
              "name": "amountReceivedLD",
              "type": "uint256"
            }
          ],
          "internalType": "struct OFTReceipt",
          "name": "oftReceipt",
          "type": "tuple"
        }
      ],
      "stateMutability": "view",
      "type": "function"
    },
    {
      "inputs": [
        {
          "components": [
            {
              "internalType": "uint32",
              "name": "dstEid",
              "type": "uint32"
            },
            {
              "internalType": "bytes32",
              "name": "to",
              "type": "bytes32"
            },
            {
              "internalType": "uint256",
              "name": "amountLD",
              "type": "uint256"
            },
            {
              "internalType": "uint256",
              "name": "minAmountLD",
              "type": "uint256"
            },
            {
              "internalType": "bytes",
              "name": "extraOptions",
              "type": "bytes"
            },
            {
              "internalType": "bytes",
              "name": "composeMsg",
              "type": "bytes"
            },
            {
              "internalType": "bytes",
              "name": "oftCmd",
              "type": "bytes"
            }
          ],
          "internalType": "struct SendParam",
          "name": "_sendParam",
          "type": "tuple"
        },
        {
          "internalType": "bool",
          "name": "_payInLzToken",
          "type": "bool"
        }
      ],
      "name": "quoteSend",
      "outputs": [
        {
          "components": [
            {
              "internalType": "uint256",
              "name": "nativeFee",
              "type": "uint256"
            },
            {
              "internalType": "uint256",
              "name": "lzTokenFee",
              "type": "uint256"
            }
          ],
          "internalType": "struct MessagingFee",
          "name": "msgFee",
          "type": "tuple"
        }
      ],
      "stateMutability": "view",
      "type": "function"
    },
    {
      "inputs": [],
      "name": "renounceOwnership",
      "outputs": [],
      "stateMutability": "nonpayable",
      "type": "function"
    },
    {
      "inputs": [
        {
          "components": [
            {
              "internalType": "uint32",
              "name": "dstEid",
              "type": "uint32"
            },
            {
              "internalType": "bytes32",
              "name": "to",
              "type": "bytes32"
            },
            {
              "internalType": "uint256",
              "name": "amountLD",
              "type": "uint256"
            },
            {
              "internalType": "uint256",
              "name": "minAmountLD",
              "type": "uint256"
            },
            {
              "internalType": "bytes",
              "name": "extraOptions",
              "type": "bytes"
            },
            {
              "internalType": "bytes",
              "name": "composeMsg",
              "type": "bytes"
            },
            {
              "internalType": "bytes",
              "name": "oftCmd",
              "type": "bytes"
            }
          ],
          "internalType": "struct SendParam",
          "name": "_sendParam",
          "type": "tuple"
        },
        {
          "components": [
            {
              "internalType": "uint256",
              "name": "nativeFee",
              "type": "uint256"
            },
            {
              "internalType": "uint256",
              "name": "lzTokenFee",
              "type": "uint256"
            }
          ],
          "internalType": "struct MessagingFee",
          "name": "_fee",
          "type": "tuple"
        },
        {
          "internalType": "address",
          "name": "_refundAddress",
          "type": "address"
        }
      ],
      "name": "send",
      "outputs": [
        {
          "components": [
            {
              "internalType": "bytes32",
              "name": "guid",
              "type": "bytes32"
            },
            {
              "internalType": "uint64",
              "name": "nonce",
              "type": "uint64"
            },
            {
              "components": [
                {
                  "internalType": "uint256",
                  "name": "nativeFee",
                  "type": "uint256"
                },
                {
                  "internalType": "uint256",
                  "name": "lzTokenFee",
                  "type": "uint256"
                }
              ],
              "internalType": "struct MessagingFee",
              "name": "fee",
              "type": "tuple"
            }
          ],
          "internalType": "struct MessagingReceipt",
          "name": "msgReceipt",
          "type": "tuple"
        },
        {
          "components": [
            {
              "internalType": "uint256",
              "name": "amountSentLD",
              "type": "uint256"
            },
            {
              "internalType": "uint256",
              "name": "amountReceivedLD",
              "type": "uint256"
            }
          ],
          "internalType": "struct OFTReceipt",
          "name": "oftReceipt",
          "type": "tuple"
        }
      ],
      "stateMutability": "payable",
      "type": "function"
    },
    {
      "inputs": [
        {
          "internalType": "address",
          "name": "_delegate",
          "type": "address"
        }
      ],
      "name": "setDelegate",
      "outputs": [],
      "stateMutability": "nonpayable",
      "type": "function"
    },
    {
      "inputs": [
        {
          "components": [
            {
              "internalType": "uint32",
              "name": "eid",
              "type": "uint32"
            },
            {
              "internalType": "uint16",
              "name": "msgType",
              "type": "uint16"
            },
            {
              "internalType": "bytes",
              "name": "options",
              "type": "bytes"
            }
          ],
          "internalType": "struct EnforcedOptionParam[]",
          "name": "_enforcedOptions",
          "type": "tuple[]"
        }
      ],
      "name": "setEnforcedOptions",
      "outputs": [],
      "stateMutability": "nonpayable",
      "type": "function"
    },
    {
      "inputs": [
        {
          "internalType": "address",
          "name": "_msgInspector",
          "type": "address"
        }
      ],
      "name": "setMsgInspector",
      "outputs": [],
      "stateMutability": "nonpayable",
      "type": "function"
    },
    {
      "inputs": [
        {
          "internalType": "uint32",
          "name": "_eid",
          "type": "uint32"
        },
        {
          "internalType": "bytes32",
          "name": "_peer",
          "type": "bytes32"
        }
      ],
      "name": "setPeer",
      "outputs": [],
      "stateMutability": "nonpayable",
      "type": "function"
    },
    {
      "inputs": [
        {
          "internalType": "address",
          "name": "_preCrime",
          "type": "address"
        }
      ],
      "name": "setPreCrime",
      "outputs": [],
      "stateMutability": "nonpayable",
      "type": "function"
    },
    {
      "inputs": [],
      "name": "sharedDecimals",
      "outputs": [
        {
          "internalType": "uint8",
          "name": "",
          "type": "uint8"
        }
      ],
      "stateMutability": "view",
      "type": "function"
    },
    {
      "inputs": [],
      "name": "symbol",
      "outputs": [
        {
          "internalType": "string",
          "name": "",
          "type": "string"
        }
      ],
      "stateMutability": "view",
      "type": "function"
    },
    {
      "inputs": [],
      "name": "token",
      "outputs": [
        {
          "internalType": "address",
          "name": "",
          "type": "address"
        }
      ],
      "stateMutability": "view",
      "type": "function"
    },
    {
      "inputs": [],
      "name": "totalSupply",
      "outputs": [
        {
          "internalType": "uint256",
          "name": "",
          "type": "uint256"
        }
      ],
      "stateMutability": "view",
      "type": "function"
    },
    {
      "inputs": [
        {
          "internalType": "address",
          "name": "to",
          "type": "address"
        },
        {
          "internalType": "uint256",
          "name": "value",
          "type": "uint256"
        }
      ],
      "name": "transfer",
      "outputs": [
        {
          "internalType": "bool",
          "name": "",
          "type": "bool"
        }
      ],
      "stateMutability": "nonpayable",
      "type": "function"
    },
    {
      "inputs": [
        {
          "internalType": "address",
          "name": "from",
          "type": "address"
        },
        {
          "internalType": "address",
          "name": "to",
          "type": "address"
        },
        {
          "internalType": "uint256",
          "name": "value",
          "type": "uint256"
        }
      ],
      "name": "transferFrom",
      "outputs": [
        {
          "internalType": "bool",
          "name": "",
          "type": "bool"
        }
      ],
      "stateMutability": "nonpayable",
      "type": "function"
    },
    {
      "inputs": [
        {
          "internalType": "address",
          "name": "newOwner",
          "type": "address"
        }
      ],
      "name": "transferOwnership",
      "outputs": [],
      "stateMutability": "nonpayable",
      "type": "function"
    }
  ],
  "transactionHash": "0x3d65e172615ec384dcddf3f8146646ebd133a2eda34dace6fc8e3debc4b33e36",
  "args": [
    "Yushaku",
    "YSK",
    "0x6EDCE65403992e310A62460808c4b910D972f10f",
    "0xd23714A6662eA86271765acF906AECA80EF7d6Fa"
  ],
  "numDeployments": 1,
  "solcInputHash": "5983f89c4190c8968836bb4e30224aa7",
  "bytecode": "0x60c06040523480156200001157600080fd5b5060405162005f7638038062005f76833981810160405281019062000037919062000572565b8383838383836200004d620002a460201b60201c565b8484818181818d600073ffffffffffffffffffffffffffffffffffffffff168173ffffffffffffffffffffffffffffffffffffffff1603620000c95760006040517f1e4fbdf7000000000000000000000000000000000000000000000000000000008152600401620000c0919062000633565b60405180910390fd5b620000da81620002ad60201b60201c565b508173ffffffffffffffffffffffffffffffffffffffff1660808173ffffffffffffffffffffffffffffffffffffffff1681525050600073ffffffffffffffffffffffffffffffffffffffff168173ffffffffffffffffffffffffffffffffffffffff160362000176576040517fb586360400000000000000000000000000000000000000000000000000000000815260040160405180910390fd5b60805173ffffffffffffffffffffffffffffffffffffffff1663ca5eb5e1826040518263ffffffff1660e01b8152600401620001b3919062000633565b600060405180830381600087803b158015620001ce57600080fd5b505af1158015620001e3573d6000803e3d6000fd5b5050505050505050620001fb6200037160201b60201c565b60ff168360ff1610156200023b576040517f1e9714b000000000000000000000000000000000000000000000000000000000815260040160405180910390fd5b6200024b6200037160201b60201c565b836200025891906200068c565b600a62000266919062000826565b60a08181525050505050816008908162000281919062000ab8565b50806009908162000293919062000ab8565b505050505050505050505062000b9f565b60006012905090565b60008060009054906101000a900473ffffffffffffffffffffffffffffffffffffffff169050816000806101000a81548173ffffffffffffffffffffffffffffffffffffffff021916908373ffffffffffffffffffffffffffffffffffffffff1602179055508173ffffffffffffffffffffffffffffffffffffffff168173ffffffffffffffffffffffffffffffffffffffff167f8be0079c531659141344cd1fd0a4f28419497f9722a3daafe3b4186f6b6457e060405160405180910390a35050565b60006006905090565b6000604051905090565b600080fd5b600080fd5b600080fd5b600080fd5b6000601f19601f8301169050919050565b7f4e487b7100000000000000000000000000000000000000000000000000000000600052604160045260246000fd5b620003e38262000398565b810181811067ffffffffffffffff82111715620004055762000404620003a9565b5b80604052505050565b60006200041a6200037a565b9050620004288282620003d8565b919050565b600067ffffffffffffffff8211156200044b576200044a620003a9565b5b620004568262000398565b9050602081019050919050565b60005b838110156200048357808201518184015260208101905062000466565b60008484015250505050565b6000620004a6620004a0846200042d565b6200040e565b905082815260208101848484011115620004c557620004c462000393565b5b620004d284828562000463565b509392505050565b600082601f830112620004f257620004f16200038e565b5b8151620005048482602086016200048f565b91505092915050565b600073ffffffffffffffffffffffffffffffffffffffff82169050919050565b60006200053a826200050d565b9050919050565b6200054c816200052d565b81146200055857600080fd5b50565b6000815190506200056c8162000541565b92915050565b600080600080608085870312156200058f576200058e62000384565b5b600085015167ffffffffffffffff811115620005b057620005af62000389565b5b620005be87828801620004da565b945050602085015167ffffffffffffffff811115620005e257620005e162000389565b5b620005f087828801620004da565b935050604062000603878288016200055b565b925050606062000616878288016200055b565b91505092959194509250565b6200062d816200052d565b82525050565b60006020820190506200064a600083018462000622565b92915050565b600060ff82169050919050565b7f4e487b7100000000000000000000000000000000000000000000000000000000600052601160045260246000fd5b6000620006998262000650565b9150620006a68362000650565b9250828203905060ff811115620006c257620006c16200065d565b5b92915050565b60008160011c9050919050565b6000808291508390505b60018511156200072757808604811115620006ff57620006fe6200065d565b5b60018516156200070f5780820291505b80810290506200071f85620006c8565b9450620006df565b94509492505050565b60008262000742576001905062000815565b8162000752576000905062000815565b81600181146200076b57600281146200077657620007ac565b600191505062000815565b60ff8411156200078b576200078a6200065d565b5b8360020a915084821115620007a557620007a46200065d565b5b5062000815565b5060208310610133831016604e8410600b8410161715620007e65782820a905083811115620007e057620007df6200065d565b5b62000815565b620007f58484846001620006d5565b925090508184048111156200080f576200080e6200065d565b5b81810290505b9392505050565b6000819050919050565b600062000833826200081c565b9150620008408362000650565b92506200086f7fffffffffffffffffffffffffffffffffffffffffffffffffffffffffffffffff848462000730565b905092915050565b600081519050919050565b7f4e487b7100000000000000000000000000000000000000000000000000000000600052602260045260246000fd5b60006002820490506001821680620008ca57607f821691505b602082108103620008e057620008df62000882565b5b50919050565b60008190508160005260206000209050919050565b60006020601f8301049050919050565b600082821b905092915050565b6000600883026200094a7fffffffffffffffffffffffffffffffffffffffffffffffffffffffffffffffff826200090b565b6200095686836200090b565b95508019841693508086168417925050509392505050565b6000819050919050565b600062000999620009936200098d846200081c565b6200096e565b6200081c565b9050919050565b6000819050919050565b620009b58362000978565b620009cd620009c482620009a0565b84845462000918565b825550505050565b600090565b620009e4620009d5565b620009f1818484620009aa565b505050565b5b8181101562000a195762000a0d600082620009da565b600181019050620009f7565b5050565b601f82111562000a685762000a3281620008e6565b62000a3d84620008fb565b8101602085101562000a4d578190505b62000a6562000a5c85620008fb565b830182620009f6565b50505b505050565b600082821c905092915050565b600062000a8d6000198460080262000a6d565b1980831691505092915050565b600062000aa8838362000a7a565b9150826002028217905092915050565b62000ac38262000877565b67ffffffffffffffff81111562000adf5762000ade620003a9565b5b62000aeb8254620008b1565b62000af882828562000a1d565b600060209050601f83116001811462000b30576000841562000b1b578287015190505b62000b27858262000a9a565b86555062000b97565b601f19841662000b4086620008e6565b60005b8281101562000b6a5784890151825560018201915060208501945060208101905062000b43565b8683101562000b8a578489015162000b86601f89168262000a7a565b8355505b6001600288020188555050505b505050505050565b60805160a05161536462000c126000396000818161120d015281816126db015281816126fc015281816127a60152612b05015260008181610cf501528181611002015281816116cd01528181611b340152818161204901528181612c0401528181612de10152612edc01526153646000f3fe60806040526004361061025c5760003560e01c8063715018a611610144578063bb0b6a53116100b6578063d045a0dc1161007a578063d045a0dc1461093e578063d42438851461095a578063dd62ed3e14610983578063f2fde38b146109c0578063fc0c546a146109e9578063ff7bd03d14610a145761025c565b8063bb0b6a531461084e578063bc70b3541461088b578063bd815db0146108c8578063c7c7f5b3146108e4578063ca5eb5e1146109155761025c565b806395d89b411161010857806395d89b411461073c578063963efcaa146107675780639f68b96414610792578063a9059cbb146107bd578063b731ea0a146107fa578063b98bd070146108255761025c565b8063715018a6146106555780637d25a05e1461066c57806382413eac146106a9578063857749b0146106e65780638da5cb5b146107115761025c565b806323b872dd116101dd57806352ae2879116101a157806352ae28791461051f5780635535d4611461054a5780635a0dfe4d146105875780635e280f11146105c45780636fc1b31e146105ef57806370a08231146106185761025c565b806323b872dd14610428578063313ce567146104655780633400288b146104905780633b6f743b146104b957806340c10f19146104f65761025c565b8063134d4f2511610224578063134d4f251461034f578063156a0d0f1461037a57806317442b70146103a657806318160ddd146103d25780631f5e1334146103fd5761025c565b806306fdde0314610261578063095ea7b31461028c5780630d35b415146102c9578063111ecdad1461030857806313137d6514610333575b600080fd5b34801561026d57600080fd5b50610276610a51565b6040516102839190613177565b60405180910390f35b34801561029857600080fd5b506102b360048036038101906102ae9190613241565b610ae3565b6040516102c0919061329c565b60405180910390f35b3480156102d557600080fd5b506102f060048036038101906102eb91906132db565b610b06565b6040516102ff939291906134f3565b60405180910390f35b34801561031457600080fd5b5061031d610cb6565b60405161032a9190613540565b60405180910390f35b61034d60048036038101906103489190613615565b610cdc565b005b34801561035b57600080fd5b50610364610dfe565b60405161037191906136ee565b60405180910390f35b34801561038657600080fd5b5061038f610e03565b60405161039d929190613767565b60405180910390f35b3480156103b257600080fd5b506103bb610e31565b6040516103c9929190613790565b60405180910390f35b3480156103de57600080fd5b506103e7610e40565b6040516103f491906137c8565b60405180910390f35b34801561040957600080fd5b50610412610e4a565b60405161041f91906136ee565b60405180910390f35b34801561043457600080fd5b5061044f600480360381019061044a91906137e3565b610e4f565b60405161045c919061329c565b60405180910390f35b34801561047157600080fd5b5061047a610e7e565b6040516104879190613852565b60405180910390f35b34801561049c57600080fd5b506104b760048036038101906104b291906138a9565b610e87565b005b3480156104c557600080fd5b506104e060048036038101906104db9190613915565b610e9d565b6040516104ed91906139a0565b60405180910390f35b34801561050257600080fd5b5061051d60048036038101906105189190613241565b610f09565b005b34801561052b57600080fd5b50610534610f1f565b6040516105419190613540565b60405180910390f35b34801561055657600080fd5b50610571600480360381019061056c91906139e7565b610f27565b60405161057e9190613a7c565b60405180910390f35b34801561059357600080fd5b506105ae60048036038101906105a991906138a9565b610fd4565b6040516105bb919061329c565b60405180910390f35b3480156105d057600080fd5b506105d9611000565b6040516105e69190613afd565b60405180910390f35b3480156105fb57600080fd5b5061061660048036038101906106119190613b18565b611024565b005b34801561062457600080fd5b5061063f600480360381019061063a9190613b18565b6110a7565b60405161064c91906137c8565b60405180910390f35b34801561066157600080fd5b5061066a6110f0565b005b34801561067857600080fd5b50610693600480360381019061068e91906138a9565b611104565b6040516106a09190613b45565b60405180910390f35b3480156106b557600080fd5b506106d060048036038101906106cb9190613b60565b61110c565b6040516106dd919061329c565b60405180910390f35b3480156106f257600080fd5b506106fb611147565b6040516107089190613852565b60405180910390f35b34801561071d57600080fd5b50610726611150565b6040516107339190613540565b60405180910390f35b34801561074857600080fd5b50610751611179565b60405161075e9190613177565b60405180910390f35b34801561077357600080fd5b5061077c61120b565b60405161078991906137c8565b60405180910390f35b34801561079e57600080fd5b506107a761122f565b6040516107b4919061329c565b60405180910390f35b3480156107c957600080fd5b506107e460048036038101906107df9190613241565b611234565b6040516107f1919061329c565b60405180910390f35b34801561080657600080fd5b5061080f611257565b60405161081c9190613540565b60405180910390f35b34801561083157600080fd5b5061084c60048036038101906108479190613c2a565b61127d565b005b34801561085a57600080fd5b5061087560048036038101906108709190613c77565b61129e565b6040516108829190613cb3565b60405180910390f35b34801561089757600080fd5b506108b260048036038101906108ad9190613cce565b6112b6565b6040516108bf9190613a7c565b60405180910390f35b6108e260048036038101906108dd9190613d98565b6114c3565b005b6108fe60048036038101906108f99190613e04565b61169c565b60405161090c929190613f02565b60405180910390f35b34801561092157600080fd5b5061093c60048036038101906109379190613b18565b6116c3565b005b61095860048036038101906109539190613615565b611759565b005b34801561096657600080fd5b50610981600480360381019061097c9190613b18565b6117d6565b005b34801561098f57600080fd5b506109aa60048036038101906109a59190613f2b565b611859565b6040516109b791906137c8565b60405180910390f35b3480156109cc57600080fd5b506109e760048036038101906109e29190613b18565b6118e0565b005b3480156109f557600080fd5b506109fe611966565b604051610a0b9190613540565b60405180910390f35b348015610a2057600080fd5b50610a3b6004803603810190610a369190613f6b565b61196e565b604051610a48919061329c565b60405180910390f35b606060088054610a6090613fc7565b80601f0160208091040260200160405190810160405280929190818152602001828054610a8c90613fc7565b8015610ad95780601f10610aae57610100808354040283529160200191610ad9565b820191906000526020600020905b815481529060010190602001808311610abc57829003601f168201915b5050505050905090565b600080610aee6119af565b9050610afb8185856119b7565b600191505092915050565b610b0e61304b565b6060610b18613065565b6000803073ffffffffffffffffffffffffffffffffffffffff1663fc0c546a6040518163ffffffff1660e01b8152600401602060405180830381865afa158015610b66573d6000803e3d6000fd5b505050506040513d601f19601f82011682018060405250810190610b8a919061400d565b73ffffffffffffffffffffffffffffffffffffffff166318160ddd6040518163ffffffff1660e01b8152600401602060405180830381865afa158015610bd4573d6000803e3d6000fd5b505050506040513d601f19601f82011682018060405250810190610bf8919061404f565b90506040518060400160405280838152602001828152509450600067ffffffffffffffff811115610c2c57610c2b61407c565b5b604051908082528060200260200182016040528015610c6557816020015b610c5261307f565b815260200190600190039081610c4a5790505b509350600080610c90886040013589606001358a6000016020810190610c8b9190613c77565b6119c9565b915091506040518060400160405280838152602001828152509450505050509193909250565b600460009054906101000a900473ffffffffffffffffffffffffffffffffffffffff1681565b3373ffffffffffffffffffffffffffffffffffffffff167f000000000000000000000000000000000000000000000000000000000000000073ffffffffffffffffffffffffffffffffffffffff1614610d6c57336040517f91ac5e4f000000000000000000000000000000000000000000000000000000008152600401610d639190613540565b60405180910390fd5b8660200135610d8c886000016020810190610d879190613c77565b611a29565b14610de657866000016020810190610da49190613c77565b87602001356040517fc26bebcc000000000000000000000000000000000000000000000000000000008152600401610ddd9291906140ba565b60405180910390fd5b610df587878787878787611a9e565b50505050505050565b600281565b6000807f02e49c2c000000000000000000000000000000000000000000000000000000006001915091509091565b60008060016002915091509091565b6000600754905090565b600181565b600080610e5a6119af565b9050610e67858285611c34565b610e72858585611cc9565b60019150509392505050565b60006012905090565b610e8f611dbd565b610e998282611e44565b5050565b610ea5613099565b6000610ecc84604001358560600135866000016020810190610ec79190613c77565b6119c9565b915050600080610edc8684611ea5565b91509150610efe866000016020810190610ef69190613c77565b83838861203f565b935050505092915050565b610f11611dbd565b610f1b8282612122565b5050565b600030905090565b6003602052816000526040600020602052806000526040600020600091509150508054610f5390613fc7565b80601f0160208091040260200160405190810160405280929190818152602001828054610f7f90613fc7565b8015610fcc5780601f10610fa157610100808354040283529160200191610fcc565b820191906000526020600020905b815481529060010190602001808311610faf57829003601f168201915b505050505081565b600081600160008563ffffffff1663ffffffff1681526020019081526020016000205414905092915050565b7f000000000000000000000000000000000000000000000000000000000000000081565b61102c611dbd565b80600460006101000a81548173ffffffffffffffffffffffffffffffffffffffff021916908373ffffffffffffffffffffffffffffffffffffffff1602179055507ff0be4f1e87349231d80c36b33f9e8639658eeaf474014dee15a3e6a4d44141978160405161109c9190613540565b60405180910390a150565b6000600560008373ffffffffffffffffffffffffffffffffffffffff1673ffffffffffffffffffffffffffffffffffffffff168152602001908152602001600020549050919050565b6110f8611dbd565b61110260006121a4565b565b600092915050565b60003073ffffffffffffffffffffffffffffffffffffffff168273ffffffffffffffffffffffffffffffffffffffff16149050949350505050565b60006006905090565b60008060009054906101000a900473ffffffffffffffffffffffffffffffffffffffff16905090565b60606009805461118890613fc7565b80601f01602080910402602001604051908101604052809291908181526020018280546111b490613fc7565b80156112015780601f106111d657610100808354040283529160200191611201565b820191906000526020600020905b8154815290600101906020018083116111e457829003601f168201915b5050505050905090565b7f000000000000000000000000000000000000000000000000000000000000000081565b600090565b60008061123f6119af565b905061124c818585611cc9565b600191505092915050565b600260009054906101000a900473ffffffffffffffffffffffffffffffffffffffff1681565b611285611dbd565b61129a8282906112959190614321565b612268565b5050565b60016020528060005260406000206000915090505481565b60606000600360008763ffffffff1663ffffffff16815260200190815260200160002060008661ffff1661ffff16815260200190815260200160002080546112fd90613fc7565b80601f016020809104026020016040519081016040528092919081815260200182805461132990613fc7565b80156113765780601f1061134b57610100808354040283529160200191611376565b820191906000526020600020905b81548152906001019060200180831161135957829003601f168201915b5050505050905060008151036113d35783838080601f016020809104026020016040519081016040528093929190818152602001838380828437600081840152601f19601f820116905080830192505050505050509150506114bb565b600084849050036113e757809150506114bb565b6002848490501061147c5761143f84848080601f016020809104026020016040519081016040528093929190818152602001838380828437600081840152601f19601f82011690508083019250505050505050612383565b808484600290809261145393929190614340565b604051602001611465939291906143dc565b6040516020818303038152906040529150506114bb565b83836040517f9a6d49cd0000000000000000000000000000000000000000000000000000000081526004016114b292919061442f565b60405180910390fd5b949350505050565b60005b828290508110156115eb57368383838181106114e5576114e4614453565b5b90506020028101906114f79190614491565b905061151f8160000160000160208101906115129190613c77565b8260000160200135610fd4565b61152957506115de565b3073ffffffffffffffffffffffffffffffffffffffff1663d045a0dc8260c00135836000018460a001358580610100019061156491906144ba565b8760e00160208101906115779190613b18565b8880610120019061158891906144ba565b6040518963ffffffff1660e01b81526004016115aa97969594939291906145f7565b6000604051808303818588803b1580156115c357600080fd5b505af11580156115d7573d6000803e3d6000fd5b5050505050505b80806001019150506114c6565b503373ffffffffffffffffffffffffffffffffffffffff16638e9e70996040518163ffffffff1660e01b8152600401600060405180830381865afa158015611637573d6000803e3d6000fd5b505050506040513d6000823e3d601f19601f8201168201806040525081019061166091906146cc565b6040517f8351eea70000000000000000000000000000000000000000000000000000000081526004016116939190613a7c565b60405180910390fd5b6116a46130b3565b6116ac613065565b6116b78585856123dd565b91509150935093915050565b6116cb611dbd565b7f000000000000000000000000000000000000000000000000000000000000000073ffffffffffffffffffffffffffffffffffffffff1663ca5eb5e1826040518263ffffffff1660e01b81526004016117249190613540565b600060405180830381600087803b15801561173e57600080fd5b505af1158015611752573d6000803e3d6000fd5b5050505050565b3073ffffffffffffffffffffffffffffffffffffffff163373ffffffffffffffffffffffffffffffffffffffff16146117be576040517f14d4a4e800000000000000000000000000000000000000000000000000000000815260040160405180910390fd5b6117cd878787878787876124e8565b50505050505050565b6117de611dbd565b80600260006101000a81548173ffffffffffffffffffffffffffffffffffffffff021916908373ffffffffffffffffffffffffffffffffffffffff1602179055507fd48d879cef83a1c0bdda516f27b13ddb1b3f8bbac1c9e1511bb2a659c24277608160405161184e9190613540565b60405180910390a150565b6000600660008473ffffffffffffffffffffffffffffffffffffffff1673ffffffffffffffffffffffffffffffffffffffff16815260200190815260200160002060008373ffffffffffffffffffffffffffffffffffffffff1673ffffffffffffffffffffffffffffffffffffffff16815260200190815260200160002054905092915050565b6118e8611dbd565b600073ffffffffffffffffffffffffffffffffffffffff168173ffffffffffffffffffffffffffffffffffffffff160361195a5760006040517f1e4fbdf70000000000000000000000000000000000000000000000000000000081526004016119519190613540565b60405180910390fd5b611963816121a4565b50565b600030905090565b600081602001356001600084600001602081019061198c9190613c77565b63ffffffff1663ffffffff16815260200190815260200160002054149050919050565b600033905090565b6119c48383836001612500565b505050565b6000806119d5856126d7565b915081905083811015611a215780846040517f71c4efed000000000000000000000000000000000000000000000000000000008152600401611a18929190614715565b60405180910390fd5b935093915050565b600080600160008463ffffffff1663ffffffff1681526020019081526020016000205490506000801b8103611a9557826040517ff6ff4fb7000000000000000000000000000000000000000000000000000000008152600401611a8c919061473e565b60405180910390fd5b80915050919050565b6000611ab2611aad8787612737565b612763565b90506000611ae482611acc611ac78a8a612770565b6127a2565b8b6000016020810190611adf9190613c77565b6127e1565b9050611af08787612830565b15611bc6576000611b308a6040016020810190611b0d9190614759565b8b6000016020810190611b209190613c77565b84611b2b8c8c612844565b6128a7565b90507f000000000000000000000000000000000000000000000000000000000000000073ffffffffffffffffffffffffffffffffffffffff16637cb59012848b6000856040518563ffffffff1660e01b8152600401611b9294939291906147c1565b600060405180830381600087803b158015611bac57600080fd5b505af1158015611bc0573d6000803e3d6000fd5b50505050505b8173ffffffffffffffffffffffffffffffffffffffff16887fefed6d3500546b29533b128a29e3a94d70788727f0507505ac12eaf2e578fd9c8b6000016020810190611c129190613c77565b84604051611c2192919061480d565b60405180910390a3505050505050505050565b6000611c408484611859565b90507fffffffffffffffffffffffffffffffffffffffffffffffffffffffffffffffff811015611cc35781811015611cb3578281836040517ffb8f41b2000000000000000000000000000000000000000000000000000000008152600401611caa93929190614836565b60405180910390fd5b611cc284848484036000612500565b5b50505050565b600073ffffffffffffffffffffffffffffffffffffffff168373ffffffffffffffffffffffffffffffffffffffff1603611d3b5760006040517f96c6fd1e000000000000000000000000000000000000000000000000000000008152600401611d329190613540565b60405180910390fd5b600073ffffffffffffffffffffffffffffffffffffffff168273ffffffffffffffffffffffffffffffffffffffff1603611dad5760006040517fec442f05000000000000000000000000000000000000000000000000000000008152600401611da49190613540565b60405180910390fd5b611db88383836128d9565b505050565b611dc56119af565b73ffffffffffffffffffffffffffffffffffffffff16611de3611150565b73ffffffffffffffffffffffffffffffffffffffff1614611e4257611e066119af565b6040517f118cdaa7000000000000000000000000000000000000000000000000000000008152600401611e399190613540565b60405180910390fd5b565b80600160008463ffffffff1663ffffffff168152602001908152602001600020819055507f238399d427b947898edb290f5ff0f9109849b1c3ba196a42e35f00c50a54b98b8282604051611e999291906140ba565b60405180910390a15050565b6060806000611f138560200135611ebb86612b01565b878060a00190611ecb91906144ba565b8080601f016020809104026020016040519081016040528093929190818152602001838380828437600081840152601f19601f82011690508083019250505050505050612b36565b8092508194505050600081611f29576001611f2c565b60025b9050611f5a866000016020810190611f449190613c77565b82888060800190611f5591906144ba565b6112b6565b92506000600460009054906101000a900473ffffffffffffffffffffffffffffffffffffffff169050600073ffffffffffffffffffffffffffffffffffffffff168173ffffffffffffffffffffffffffffffffffffffff1614612035578073ffffffffffffffffffffffffffffffffffffffff1663043a78eb86866040518363ffffffff1660e01b8152600401611ff292919061486d565b602060405180830381865afa15801561200f573d6000803e3d6000fd5b505050506040513d601f19601f8201168201806040525081019061203391906148b9565b505b5050509250929050565b612047613099565b7f000000000000000000000000000000000000000000000000000000000000000073ffffffffffffffffffffffffffffffffffffffff1663ddc28c586040518060a001604052808863ffffffff1681526020016120a389611a29565b8152602001878152602001868152602001851515815250306040518363ffffffff1660e01b81526004016120d89291906149bc565b6040805180830381865afa1580156120f4573d6000803e3d6000fd5b505050506040513d601f19601f820116820180604052508101906121189190614a3c565b9050949350505050565b600073ffffffffffffffffffffffffffffffffffffffff168273ffffffffffffffffffffffffffffffffffffffff16036121945760006040517fec442f0500000000000000000000000000000000000000000000000000000000815260040161218b9190613540565b60405180910390fd5b6121a0600083836128d9565b5050565b60008060009054906101000a900473ffffffffffffffffffffffffffffffffffffffff169050816000806101000a81548173ffffffffffffffffffffffffffffffffffffffff021916908373ffffffffffffffffffffffffffffffffffffffff1602179055508173ffffffffffffffffffffffffffffffffffffffff168173ffffffffffffffffffffffffffffffffffffffff167f8be0079c531659141344cd1fd0a4f28419497f9722a3daafe3b4186f6b6457e060405160405180910390a35050565b60005b81518110156123485761229b82828151811061228a57612289614453565b5b602002602001015160400151612383565b8181815181106122ae576122ad614453565b5b602002602001015160400151600360008484815181106122d1576122d0614453565b5b60200260200101516000015163ffffffff1663ffffffff168152602001908152602001600020600084848151811061230c5761230b614453565b5b60200260200101516020015161ffff1661ffff168152602001908152602001600020908161233a9190614c0b565b50808060010191505061226b565b507fbe4864a8e820971c0247f5992e2da559595f7bf076a21cb5928d443d2a13b674816040516123789190614dfe565b60405180910390a150565b600060028201519050600361ffff168161ffff16146123d957816040517f9a6d49cd0000000000000000000000000000000000000000000000000000000081526004016123d09190613a7c565b60405180910390fd5b5050565b6123e56130b3565b6123ed613065565b60008061241633886040013589606001358a60000160208101906124119190613c77565b612ba5565b915091506000806124278984611ea5565b9150915061245a8960000160208101906124419190613c77565b83838b8036038101906124549190614e70565b8b612bce565b955060405180604001604052808581526020018481525094503373ffffffffffffffffffffffffffffffffffffffff1686600001517f85496b760a4b7f8d66384b9df21b381f5d1b1e79f229a47aaf4c232edc2fe59a8b60000160208101906124c39190613c77565b87876040516124d493929190614e9d565b60405180910390a350505050935093915050565b6124f787878787878787611a9e565b50505050505050565b600073ffffffffffffffffffffffffffffffffffffffff168473ffffffffffffffffffffffffffffffffffffffff16036125725760006040517fe602df050000000000000000000000000000000000000000000000000000000081526004016125699190613540565b60405180910390fd5b600073ffffffffffffffffffffffffffffffffffffffff168373ffffffffffffffffffffffffffffffffffffffff16036125e45760006040517f94280d620000000000000000000000000000000000000000000000000000000081526004016125db9190613540565b60405180910390fd5b81600660008673ffffffffffffffffffffffffffffffffffffffff1673ffffffffffffffffffffffffffffffffffffffff16815260200190815260200160002060008573ffffffffffffffffffffffffffffffffffffffff1673ffffffffffffffffffffffffffffffffffffffff1681526020019081526020016000208190555080156126d1578273ffffffffffffffffffffffffffffffffffffffff168473ffffffffffffffffffffffffffffffffffffffff167f8c5be1e5ebec7d5bd14f71427d1e84f3dd0314c0f7b2291e5b200ac8c7c3b925846040516126c891906137c8565b60405180910390a35b50505050565b60007f00000000000000000000000000000000000000000000000000000000000000007f0000000000000000000000000000000000000000000000000000000000000000836127269190614f32565b6127309190614f63565b9050919050565b60008282600090602060ff169261275093929190614340565b9061275b9190614fb0565b905092915050565b60008160001c9050919050565b60008282602060ff1690602860ff169261278c93929190614340565b90612797919061503b565b60c01c905092915050565b60007f00000000000000000000000000000000000000000000000000000000000000008267ffffffffffffffff166127da9190614f63565b9050919050565b60008073ffffffffffffffffffffffffffffffffffffffff168473ffffffffffffffffffffffffffffffffffffffff160361281c5761dead93505b6128268484612122565b8290509392505050565b6000602860ff168383905011905092915050565b60608282602860ff1690809261285c93929190614340565b8080601f016020809104026020016040519081016040528093929190818152602001838380828437600081840152601f19601f82011690508083019250505050505050905092915050565b6060848484846040516020016128c09493929190615127565b6040516020818303038152906040529050949350505050565b600073ffffffffffffffffffffffffffffffffffffffff168373ffffffffffffffffffffffffffffffffffffffff160361292b57806007600082825461291f9190615171565b92505081905550612a00565b6000600560008573ffffffffffffffffffffffffffffffffffffffff1673ffffffffffffffffffffffffffffffffffffffff168152602001908152602001600020549050818110156129b8578381836040517fe450d38c0000000000000000000000000000000000000000000000000000000081526004016129af93929190614836565b60405180910390fd5b818103600560008673ffffffffffffffffffffffffffffffffffffffff1673ffffffffffffffffffffffffffffffffffffffff16815260200190815260200160002081905550505b600073ffffffffffffffffffffffffffffffffffffffff168273ffffffffffffffffffffffffffffffffffffffff1603612a495780600760008282540392505081905550612a97565b80600560008473ffffffffffffffffffffffffffffffffffffffff1673ffffffffffffffffffffffffffffffffffffffff168152602001908152602001600020600082825401925050819055505b8173ffffffffffffffffffffffffffffffffffffffff168373ffffffffffffffffffffffffffffffffffffffff167fddf252ad1be2c89b69c2b068fc378daa952ba7f163c4a11628f55a4df523b3ef83604051612af491906137c8565b60405180910390a3505050565b60007f000000000000000000000000000000000000000000000000000000000000000082612b2f9190614f32565b9050919050565b6060600080835111905080612b6c578484604051602001612b589291906151c6565b604051602081830303815290604052612b9b565b8484612b7733612cea565b85604051602001612b8b94939291906151f2565b6040516020818303038152906040525b9150935093915050565b600080612bb38585856119c9565b8092508193505050612bc58683612d0d565b94509492505050565b612bd66130b3565b6000612be58460000151612d8f565b9050600084602001511115612c0257612c018460200151612ddd565b5b7f000000000000000000000000000000000000000000000000000000000000000073ffffffffffffffffffffffffffffffffffffffff16632637a450826040518060a001604052808b63ffffffff168152602001612c5f8c611a29565b81526020018a815260200189815260200160008960200151111515815250866040518463ffffffff1660e01b8152600401612c9b9291906149bc565b60806040518083038185885af1158015612cb9573d6000803e3d6000fd5b50505050506040513d601f19601f82011682018060405250810190612cde91906152ca565b91505095945050505050565b60008173ffffffffffffffffffffffffffffffffffffffff1660001b9050919050565b600073ffffffffffffffffffffffffffffffffffffffff168273ffffffffffffffffffffffffffffffffffffffff1603612d7f5760006040517f96c6fd1e000000000000000000000000000000000000000000000000000000008152600401612d769190613540565b60405180910390fd5b612d8b826000836128d9565b5050565b6000813414612dd557346040517f9f704120000000000000000000000000000000000000000000000000000000008152600401612dcc91906137c8565b60405180910390fd5b819050919050565b60007f000000000000000000000000000000000000000000000000000000000000000073ffffffffffffffffffffffffffffffffffffffff1663e4fe1d946040518163ffffffff1660e01b8152600401602060405180830381865afa158015612e4a573d6000803e3d6000fd5b505050506040513d601f19601f82011682018060405250810190612e6e919061400d565b9050600073ffffffffffffffffffffffffffffffffffffffff168173ffffffffffffffffffffffffffffffffffffffff1603612ed6576040517f5373352a00000000000000000000000000000000000000000000000000000000815260040160405180910390fd5b612f23337f0000000000000000000000000000000000000000000000000000000000000000848473ffffffffffffffffffffffffffffffffffffffff16612f27909392919063ffffffff16565b5050565b612fa3848573ffffffffffffffffffffffffffffffffffffffff166323b872dd868686604051602401612f5c939291906152f7565b604051602081830303815290604052915060e01b6020820180517bffffffffffffffffffffffffffffffffffffffffffffffffffffffff8381831617835250505050612fa9565b50505050565b600080602060008451602086016000885af180612fcc576040513d6000823e3d81fd5b3d925060005191505060008214612fe7576001811415613003565b60008473ffffffffffffffffffffffffffffffffffffffff163b145b1561304557836040517f5274afe700000000000000000000000000000000000000000000000000000000815260040161303c9190613540565b60405180910390fd5b50505050565b604051806040016040528060008152602001600081525090565b604051806040016040528060008152602001600081525090565b604051806040016040528060008152602001606081525090565b604051806040016040528060008152602001600081525090565b604051806060016040528060008019168152602001600067ffffffffffffffff1681526020016130e1613099565b81525090565b600081519050919050565b600082825260208201905092915050565b60005b83811015613121578082015181840152602081019050613106565b60008484015250505050565b6000601f19601f8301169050919050565b6000613149826130e7565b61315381856130f2565b9350613163818560208601613103565b61316c8161312d565b840191505092915050565b60006020820190508181036000830152613191818461313e565b905092915050565b6000604051905090565b600080fd5b600080fd5b600073ffffffffffffffffffffffffffffffffffffffff82169050919050565b60006131d8826131ad565b9050919050565b6131e8816131cd565b81146131f357600080fd5b50565b600081359050613205816131df565b92915050565b6000819050919050565b61321e8161320b565b811461322957600080fd5b50565b60008135905061323b81613215565b92915050565b60008060408385031215613258576132576131a3565b5b6000613266858286016131f6565b92505060206132778582860161322c565b9150509250929050565b60008115159050919050565b61329681613281565b82525050565b60006020820190506132b1600083018461328d565b92915050565b600080fd5b600060e082840312156132d2576132d16132b7565b5b81905092915050565b6000602082840312156132f1576132f06131a3565b5b600082013567ffffffffffffffff81111561330f5761330e6131a8565b5b61331b848285016132bc565b91505092915050565b61332d8161320b565b82525050565b6040820160008201516133496000850182613324565b50602082015161335c6020850182613324565b50505050565b600081519050919050565b600082825260208201905092915050565b6000819050602082019050919050565b6000819050919050565b6133a18161338e565b82525050565b600082825260208201905092915050565b60006133c3826130e7565b6133cd81856133a7565b93506133dd818560208601613103565b6133e68161312d565b840191505092915050565b60006040830160008301516134096000860182613398565b506020830151848203602086015261342182826133b8565b9150508091505092915050565b600061343a83836133f1565b905092915050565b6000602082019050919050565b600061345a82613362565b613464818561336d565b9350836020820285016134768561337e565b8060005b858110156134b25784840389528151613493858261342e565b945061349e83613442565b925060208a0199505060018101905061347a565b50829750879550505050505092915050565b6040820160008201516134da6000850182613324565b5060208201516134ed6020850182613324565b50505050565b600060a0820190506135086000830186613333565b818103604083015261351a818561344f565b905061352960608301846134c4565b949350505050565b61353a816131cd565b82525050565b60006020820190506135556000830184613531565b92915050565b600060608284031215613571576135706132b7565b5b81905092915050565b6000819050919050565b61358d8161357a565b811461359857600080fd5b50565b6000813590506135aa81613584565b92915050565b600080fd5b600080fd5b600080fd5b60008083601f8401126135d5576135d46135b0565b5b8235905067ffffffffffffffff8111156135f2576135f16135b5565b5b60208301915083600182028301111561360e5761360d6135ba565b5b9250929050565b600080600080600080600060e0888a031215613634576136336131a3565b5b60006136428a828b0161355b565b97505060606136538a828b0161359b565b965050608088013567ffffffffffffffff811115613674576136736131a8565b5b6136808a828b016135bf565b955095505060a06136938a828b016131f6565b93505060c088013567ffffffffffffffff8111156136b4576136b36131a8565b5b6136c08a828b016135bf565b925092505092959891949750929550565b600061ffff82169050919050565b6136e8816136d1565b82525050565b600060208201905061370360008301846136df565b92915050565b60007fffffffff0000000000000000000000000000000000000000000000000000000082169050919050565b61373e81613709565b82525050565b600067ffffffffffffffff82169050919050565b61376181613744565b82525050565b600060408201905061377c6000830185613735565b6137896020830184613758565b9392505050565b60006040820190506137a56000830185613758565b6137b26020830184613758565b9392505050565b6137c28161320b565b82525050565b60006020820190506137dd60008301846137b9565b92915050565b6000806000606084860312156137fc576137fb6131a3565b5b600061380a868287016131f6565b935050602061381b868287016131f6565b925050604061382c8682870161322c565b9150509250925092565b600060ff82169050919050565b61384c81613836565b82525050565b60006020820190506138676000830184613843565b92915050565b600063ffffffff82169050919050565b6138868161386d565b811461389157600080fd5b50565b6000813590506138a38161387d565b92915050565b600080604083850312156138c0576138bf6131a3565b5b60006138ce85828601613894565b92505060206138df8582860161359b565b9150509250929050565b6138f281613281565b81146138fd57600080fd5b50565b60008135905061390f816138e9565b92915050565b6000806040838503121561392c5761392b6131a3565b5b600083013567ffffffffffffffff81111561394a576139496131a8565b5b613956858286016132bc565b925050602061396785828601613900565b9150509250929050565b6040820160008201516139876000850182613324565b50602082015161399a6020850182613324565b50505050565b60006040820190506139b56000830184613971565b92915050565b6139c4816136d1565b81146139cf57600080fd5b50565b6000813590506139e1816139bb565b92915050565b600080604083850312156139fe576139fd6131a3565b5b6000613a0c85828601613894565b9250506020613a1d858286016139d2565b9150509250929050565b600081519050919050565b600082825260208201905092915050565b6000613a4e82613a27565b613a588185613a32565b9350613a68818560208601613103565b613a718161312d565b840191505092915050565b60006020820190508181036000830152613a968184613a43565b905092915050565b6000819050919050565b6000613ac3613abe613ab9846131ad565b613a9e565b6131ad565b9050919050565b6000613ad582613aa8565b9050919050565b6000613ae782613aca565b9050919050565b613af781613adc565b82525050565b6000602082019050613b126000830184613aee565b92915050565b600060208284031215613b2e57613b2d6131a3565b5b6000613b3c848285016131f6565b91505092915050565b6000602082019050613b5a6000830184613758565b92915050565b60008060008060a08587031215613b7a57613b796131a3565b5b6000613b888782880161355b565b945050606085013567ffffffffffffffff811115613ba957613ba86131a8565b5b613bb5878288016135bf565b93509350506080613bc8878288016131f6565b91505092959194509250565b60008083601f840112613bea57613be96135b0565b5b8235905067ffffffffffffffff811115613c0757613c066135b5565b5b602083019150836020820283011115613c2357613c226135ba565b5b9250929050565b60008060208385031215613c4157613c406131a3565b5b600083013567ffffffffffffffff811115613c5f57613c5e6131a8565b5b613c6b85828601613bd4565b92509250509250929050565b600060208284031215613c8d57613c8c6131a3565b5b6000613c9b84828501613894565b91505092915050565b613cad8161357a565b82525050565b6000602082019050613cc86000830184613ca4565b92915050565b60008060008060608587031215613ce857613ce76131a3565b5b6000613cf687828801613894565b9450506020613d07878288016139d2565b935050604085013567ffffffffffffffff811115613d2857613d276131a8565b5b613d34878288016135bf565b925092505092959194509250565b60008083601f840112613d5857613d576135b0565b5b8235905067ffffffffffffffff811115613d7557613d746135b5565b5b602083019150836020820283011115613d9157613d906135ba565b5b9250929050565b60008060208385031215613daf57613dae6131a3565b5b600083013567ffffffffffffffff811115613dcd57613dcc6131a8565b5b613dd985828601613d42565b92509250509250929050565b600060408284031215613dfb57613dfa6132b7565b5b81905092915050565b600080600060808486031215613e1d57613e1c6131a3565b5b600084013567ffffffffffffffff811115613e3b57613e3a6131a8565b5b613e47868287016132bc565b9350506020613e5886828701613de5565b9250506060613e69868287016131f6565b9150509250925092565b613e7c8161357a565b82525050565b613e8b81613744565b82525050565b604082016000820151613ea76000850182613324565b506020820151613eba6020850182613324565b50505050565b608082016000820151613ed66000850182613e73565b506020820151613ee96020850182613e82565b506040820151613efc6040850182613e91565b50505050565b600060c082019050613f176000830185613ec0565b613f2460808301846134c4565b9392505050565b60008060408385031215613f4257613f416131a3565b5b6000613f50858286016131f6565b9250506020613f61858286016131f6565b9150509250929050565b600060608284031215613f8157613f806131a3565b5b6000613f8f8482850161355b565b91505092915050565b7f4e487b7100000000000000000000000000000000000000000000000000000000600052602260045260246000fd5b60006002820490506001821680613fdf57607f821691505b602082108103613ff257613ff1613f98565b5b50919050565b600081519050614007816131df565b92915050565b600060208284031215614023576140226131a3565b5b600061403184828501613ff8565b91505092915050565b60008151905061404981613215565b92915050565b600060208284031215614065576140646131a3565b5b60006140738482850161403a565b91505092915050565b7f4e487b7100000000000000000000000000000000000000000000000000000000600052604160045260246000fd5b6140b48161386d565b82525050565b60006040820190506140cf60008301856140ab565b6140dc6020830184613ca4565b9392505050565b6140ec8261312d565b810181811067ffffffffffffffff8211171561410b5761410a61407c565b5b80604052505050565b600061411e613199565b905061412a82826140e3565b919050565b600067ffffffffffffffff82111561414a5761414961407c565b5b602082029050602081019050919050565b600080fd5b600080fd5b600080fd5b600067ffffffffffffffff8211156141855761418461407c565b5b61418e8261312d565b9050602081019050919050565b82818337600083830152505050565b60006141bd6141b88461416a565b614114565b9050828152602081018484840111156141d9576141d8614165565b5b6141e484828561419b565b509392505050565b600082601f830112614201576142006135b0565b5b81356142118482602086016141aa565b91505092915050565b6000606082840312156142305761422f61415b565b5b61423a6060614114565b9050600061424a84828501613894565b600083015250602061425e848285016139d2565b602083015250604082013567ffffffffffffffff81111561428257614281614160565b5b61428e848285016141ec565b60408301525092915050565b60006142ad6142a88461412f565b614114565b905080838252602082019050602084028301858111156142d0576142cf6135ba565b5b835b8181101561431757803567ffffffffffffffff8111156142f5576142f46135b0565b5b808601614302898261421a565b855260208501945050506020810190506142d2565b5050509392505050565b600061432e36848461429a565b905092915050565b600080fd5b600080fd5b6000808585111561435457614353614336565b5b838611156143655761436461433b565b5b6001850283019150848603905094509492505050565b600081905092915050565b600061439182613a27565b61439b818561437b565b93506143ab818560208601613103565b80840191505092915050565b60006143c3838561437b565b93506143d083858461419b565b82840190509392505050565b60006143e88286614386565b91506143f58284866143b7565b9150819050949350505050565b600061440e8385613a32565b935061441b83858461419b565b6144248361312d565b840190509392505050565b6000602082019050818103600083015261444a818486614402565b90509392505050565b7f4e487b7100000000000000000000000000000000000000000000000000000000600052603260045260246000fd5b600080fd5b600080fd5b600080fd5b600082356001610140038336030381126144ae576144ad614482565b5b80830191505092915050565b600080833560016020038436030381126144d7576144d6614482565b5b80840192508235915067ffffffffffffffff8211156144f9576144f8614487565b5b6020830192506001820236038313156145155761451461448c565b5b509250929050565b600061452c6020840184613894565b905092915050565b61453d8161386d565b82525050565b6000614552602084018461359b565b905092915050565b61456381613744565b811461456e57600080fd5b50565b6000813590506145808161455a565b92915050565b60006145956020840184614571565b905092915050565b606082016145ae600083018361451d565b6145bb6000850182614534565b506145c96020830183614543565b6145d66020850182613e73565b506145e46040830183614586565b6145f16040850182613e82565b50505050565b600060e08201905061460c600083018a61459d565b6146196060830189613ca4565b818103608083015261462c818789614402565b905061463b60a0830186613531565b81810360c083015261464e818486614402565b905098975050505050505050565b600061466f61466a8461416a565b614114565b90508281526020810184848401111561468b5761468a614165565b5b614696848285613103565b509392505050565b600082601f8301126146b3576146b26135b0565b5b81516146c384826020860161465c565b91505092915050565b6000602082840312156146e2576146e16131a3565b5b600082015167ffffffffffffffff811115614700576146ff6131a8565b5b61470c8482850161469e565b91505092915050565b600060408201905061472a60008301856137b9565b61473760208301846137b9565b9392505050565b600060208201905061475360008301846140ab565b92915050565b60006020828403121561476f5761476e6131a3565b5b600061477d84828501614571565b91505092915050565b6000819050919050565b60006147ab6147a66147a184614786565b613a9e565b6136d1565b9050919050565b6147bb81614790565b82525050565b60006080820190506147d66000830187613531565b6147e36020830186613ca4565b6147f060408301856147b2565b81810360608301526148028184613a43565b905095945050505050565b600060408201905061482260008301856140ab565b61482f60208301846137b9565b9392505050565b600060608201905061484b6000830186613531565b61485860208301856137b9565b61486560408301846137b9565b949350505050565b600060408201905081810360008301526148878185613a43565b9050818103602083015261489b8184613a43565b90509392505050565b6000815190506148b3816138e9565b92915050565b6000602082840312156148cf576148ce6131a3565b5b60006148dd848285016148a4565b91505092915050565b600082825260208201905092915050565b600061490282613a27565b61490c81856148e6565b935061491c818560208601613103565b6149258161312d565b840191505092915050565b61493981613281565b82525050565b600060a0830160008301516149576000860182614534565b50602083015161496a6020860182613e73565b506040830151848203604086015261498282826148f7565b9150506060830151848203606086015261499c82826148f7565b91505060808301516149b16080860182614930565b508091505092915050565b600060408201905081810360008301526149d6818561493f565b90506149e56020830184613531565b9392505050565b600060408284031215614a0257614a0161415b565b5b614a0c6040614114565b90506000614a1c8482850161403a565b6000830152506020614a308482850161403a565b60208301525092915050565b600060408284031215614a5257614a516131a3565b5b6000614a60848285016149ec565b91505092915050565b60008190508160005260206000209050919050565b60006020601f8301049050919050565b600082821b905092915050565b600060088302614acb7fffffffffffffffffffffffffffffffffffffffffffffffffffffffffffffffff82614a8e565b614ad58683614a8e565b95508019841693508086168417925050509392505050565b6000614b08614b03614afe8461320b565b613a9e565b61320b565b9050919050565b6000819050919050565b614b2283614aed565b614b36614b2e82614b0f565b848454614a9b565b825550505050565b600090565b614b4b614b3e565b614b56818484614b19565b505050565b5b81811015614b7a57614b6f600082614b43565b600181019050614b5c565b5050565b601f821115614bbf57614b9081614a69565b614b9984614a7e565b81016020851015614ba8578190505b614bbc614bb485614a7e565b830182614b5b565b50505b505050565b600082821c905092915050565b6000614be260001984600802614bc4565b1980831691505092915050565b6000614bfb8383614bd1565b9150826002028217905092915050565b614c1482613a27565b67ffffffffffffffff811115614c2d57614c2c61407c565b5b614c378254613fc7565b614c42828285614b7e565b600060209050601f831160018114614c755760008415614c63578287015190505b614c6d8582614bef565b865550614cd5565b601f198416614c8386614a69565b60005b82811015614cab57848901518255600182019150602085019450602081019050614c86565b86831015614cc85784890151614cc4601f891682614bd1565b8355505b6001600288020188555050505b505050505050565b600081519050919050565b600082825260208201905092915050565b6000819050602082019050919050565b614d12816136d1565b82525050565b6000606083016000830151614d306000860182614534565b506020830151614d436020860182614d09565b5060408301518482036040860152614d5b82826148f7565b9150508091505092915050565b6000614d748383614d18565b905092915050565b6000602082019050919050565b6000614d9482614cdd565b614d9e8185614ce8565b935083602082028501614db085614cf9565b8060005b85811015614dec5784840389528151614dcd8582614d68565b9450614dd883614d7c565b925060208a01995050600181019050614db4565b50829750879550505050505092915050565b60006020820190508181036000830152614e188184614d89565b905092915050565b600060408284031215614e3657614e3561415b565b5b614e406040614114565b90506000614e508482850161322c565b6000830152506020614e648482850161322c565b60208301525092915050565b600060408284031215614e8657614e856131a3565b5b6000614e9484828501614e20565b91505092915050565b6000606082019050614eb260008301866140ab565b614ebf60208301856137b9565b614ecc60408301846137b9565b949350505050565b7f4e487b7100000000000000000000000000000000000000000000000000000000600052601260045260246000fd5b7f4e487b7100000000000000000000000000000000000000000000000000000000600052601160045260246000fd5b6000614f3d8261320b565b9150614f488361320b565b925082614f5857614f57614ed4565b5b828204905092915050565b6000614f6e8261320b565b9150614f798361320b565b9250828202614f878161320b565b91508282048414831517614f9e57614f9d614f03565b5b5092915050565b600082905092915050565b6000614fbc8383614fa5565b82614fc7813561357a565b92506020821015615007576150027fffffffffffffffffffffffffffffffffffffffffffffffffffffffffffffffff83602003600802614a8e565b831692505b505092915050565b60007fffffffffffffffff00000000000000000000000000000000000000000000000082169050919050565b60006150478383614fa5565b82615052813561500f565b925060088210156150925761508d7fffffffffffffffff00000000000000000000000000000000000000000000000083600803600802614a8e565b831692505b505092915050565b60008160c01b9050919050565b60006150b28261509a565b9050919050565b6150ca6150c582613744565b6150a7565b82525050565b60008160e01b9050919050565b60006150e8826150d0565b9050919050565b6151006150fb8261386d565b6150dd565b82525050565b6000819050919050565b61512161511c8261320b565b615106565b82525050565b600061513382876150b9565b60088201915061514382866150ef565b6004820191506151538285615110565b6020820191506151638284614386565b915081905095945050505050565b600061517c8261320b565b91506151878361320b565b925082820190508082111561519f5761519e614f03565b5b92915050565b6000819050919050565b6151c06151bb8261357a565b6151a5565b82525050565b60006151d282856151af565b6020820191506151e282846150b9565b6008820191508190509392505050565b60006151fe82876151af565b60208201915061520e82866150b9565b60088201915061521e82856151af565b60208201915061522e8284614386565b915081905095945050505050565b60008151905061524b81613584565b92915050565b6000815190506152608161455a565b92915050565b60006080828403121561527c5761527b61415b565b5b6152866060614114565b905060006152968482850161523c565b60008301525060206152aa84828501615251565b60208301525060406152be848285016149ec565b60408301525092915050565b6000608082840312156152e0576152df6131a3565b5b60006152ee84828501615266565b91505092915050565b600060608201905061530c6000830186613531565b6153196020830185613531565b61532660408301846137b9565b94935050505056fea26469706673582212204e3d4165bbd372f56caab666a13edb298e4380edbd4bf362a55fae90177bc74564736f6c63430008160033",
  "devdoc": {
    "errors": {
      "ERC20InsufficientAllowance(address,uint256,uint256)": [
        {
          "details": "Indicates a failure with the `spender`s `allowance`. Used in transfers.",
          "params": {
            "allowance": "Amount of tokens a `spender` is allowed to operate with.",
            "needed": "Minimum amount required to perform a transfer.",
            "spender": "Address that may be allowed to operate on tokens without being their owner."
          }
        }
      ],
      "ERC20InsufficientBalance(address,uint256,uint256)": [
        {
          "details": "Indicates an error related to the current `balance` of a `sender`. Used in transfers.",
          "params": {
            "balance": "Current balance for the interacting account.",
            "needed": "Minimum amount required to perform a transfer.",
            "sender": "Address whose tokens are being transferred."
          }
        }
      ],
      "ERC20InvalidApprover(address)": [
        {
          "details": "Indicates a failure with the `approver` of a token to be approved. Used in approvals.",
          "params": {
            "approver": "Address initiating an approval operation."
          }
        }
      ],
      "ERC20InvalidReceiver(address)": [
        {
          "details": "Indicates a failure with the token `receiver`. Used in transfers.",
          "params": {
            "receiver": "Address to which tokens are being transferred."
          }
        }
      ],
      "ERC20InvalidSender(address)": [
        {
          "details": "Indicates a failure with the token `sender`. Used in transfers.",
          "params": {
            "sender": "Address whose tokens are being transferred."
          }
        }
      ],
      "ERC20InvalidSpender(address)": [
        {
          "details": "Indicates a failure with the `spender` to be approved. Used in approvals.",
          "params": {
            "spender": "Address that may be allowed to operate on tokens without being their owner."
          }
        }
      ],
      "OwnableInvalidOwner(address)": [
        {
          "details": "The owner is not a valid owner account. (eg. `address(0)`)"
        }
      ],
      "OwnableUnauthorizedAccount(address)": [
        {
          "details": "The caller account is not authorized to perform an operation."
        }
      ],
      "SafeERC20FailedOperation(address)": [
        {
          "details": "An operation with an ERC-20 token failed."
        }
      ]
    },
    "events": {
      "Approval(address,address,uint256)": {
        "details": "Emitted when the allowance of a `spender` for an `owner` is set by a call to {approve}. `value` is the new allowance."
      },
      "PreCrimeSet(address)": {
        "details": "Emitted when the preCrime contract address is set.",
        "params": {
          "preCrimeAddress": "The address of the preCrime contract."
        }
      },
      "Transfer(address,address,uint256)": {
        "details": "Emitted when `value` tokens are moved from one account (`from`) to another (`to`). Note that `value` may be zero."
      }
    },
    "kind": "dev",
    "methods": {
      "allowInitializePath((uint32,bytes32,uint64))": {
        "details": "This indicates to the endpoint that the OApp has enabled msgs for this particular path to be received.This defaults to assuming if a peer has been set, its initialized. Can be overridden by the OApp if there is other logic to determine this.",
        "params": {
          "origin": "The origin information containing the source endpoint and sender address."
        },
        "returns": {
          "_0": "Whether the path has been initialized."
        }
      },
      "allowance(address,address)": {
        "details": "See {IERC20-allowance}."
      },
      "approvalRequired()": {
        "details": "In the case of OFT where the contract IS the token, approval is NOT required.",
        "returns": {
          "_0": "requiresApproval Needs approval of the underlying token implementation."
        }
      },
      "approve(address,uint256)": {
        "details": "See {IERC20-approve}. NOTE: If `value` is the maximum `uint256`, the allowance is not updated on `transferFrom`. This is semantically equivalent to an infinite approval. Requirements: - `spender` cannot be the zero address."
      },
      "balanceOf(address)": {
        "details": "See {IERC20-balanceOf}."
      },
      "combineOptions(uint32,uint16,bytes)": {
        "details": "If there is an enforced lzReceive option: - {gasLimit: 200k, msg.value: 1 ether} AND a caller supplies a lzReceive option: {gasLimit: 100k, msg.value: 0.5 ether} - The resulting options will be {gasLimit: 300k, msg.value: 1.5 ether} when the message is executed on the remote lzReceive() function.This presence of duplicated options is handled off-chain in the verifier/executor.",
        "params": {
          "_eid": "The endpoint ID.",
          "_extraOptions": "Additional options passed by the caller.",
          "_msgType": "The OAPP message type."
        },
        "returns": {
          "_0": "options The combination of caller specified options AND enforced options."
        }
      },
      "decimals()": {
        "details": "Returns the number of decimals used to get its user representation. For example, if `decimals` equals `2`, a balance of `505` tokens should be displayed to a user as `5.05` (`505 / 10 ** 2`). Tokens usually opt for a value of 18, imitating the relationship between Ether and Wei. This is the default value returned by this function, unless it's overridden. NOTE: This information is only used for _display_ purposes: it in no way affects any of the arithmetic of the contract, including {IERC20-balanceOf} and {IERC20-transfer}."
      },
      "isComposeMsgSender((uint32,bytes32,uint64),bytes,address)": {
        "details": "_origin The origin information containing the source endpoint and sender address.  - srcEid: The source chain endpoint ID.  - sender: The sender address on the src chain.  - nonce: The nonce of the message._message The lzReceive payload.Applications can optionally choose to implement separate composeMsg senders that are NOT the bridging layer.The default sender IS the OAppReceiver implementer.",
        "params": {
          "_sender": "The sender address."
        },
        "returns": {
          "_0": "isSender Is a valid sender."
        }
      },
      "isPeer(uint32,bytes32)": {
        "details": "Check if the peer is considered 'trusted' by the OApp.Enables OAppPreCrimeSimulator to check whether a potential Inbound Packet is from a trusted source.",
        "params": {
          "_eid": "The endpoint ID to check.",
          "_peer": "The peer to check."
        },
        "returns": {
          "_0": "Whether the peer passed is considered 'trusted' by the OApp."
        }
      },
      "lzReceive((uint32,bytes32,uint64),bytes32,bytes,address,bytes)": {
        "details": "Entry point for receiving messages or packets from the endpoint.Entry point for receiving msg/packet from the LayerZero endpoint.",
        "params": {
          "_executor": "The address of the executor for the received message.",
          "_extraData": "Additional arbitrary data provided by the corresponding executor.",
          "_guid": "The unique identifier for the received LayerZero message.",
          "_message": "The payload of the received message.",
          "_origin": "The origin information containing the source endpoint and sender address.  - srcEid: The source chain endpoint ID.  - sender: The sender address on the src chain.  - nonce: The nonce of the message."
        }
      },
      "lzReceiveAndRevert(((uint32,bytes32,uint64),uint32,address,bytes32,uint256,address,bytes,bytes)[])": {
        "details": "Interface for pre-crime simulations. Always reverts at the end with the simulation results.WARNING: MUST revert at the end with the simulation results.Gives the preCrime implementation the ability to mock sending packets to the lzReceive function, WITHOUT actually executing them.",
        "params": {
          "_packets": "An array of InboundPacket objects representing received packets to be delivered."
        }
      },
      "lzReceiveSimulate((uint32,bytes32,uint64),bytes32,bytes,address,bytes)": {
        "details": "Is effectively an internal function because msg.sender must be address(this). Allows resetting the call stack for 'internal' calls.",
        "params": {
          "_executor": "The executor address for the packet.",
          "_extraData": "Additional data for the packet.",
          "_guid": "The unique identifier of the packet.",
          "_message": "The message payload of the packet.",
          "_origin": "The origin information containing the source endpoint and sender address.  - srcEid: The source chain endpoint ID.  - sender: The sender address on the src chain.  - nonce: The nonce of the message."
        }
      },
      "name()": {
        "details": "Returns the name of the token."
      },
      "nextNonce(uint32,bytes32)": {
        "details": "_srcEid The source endpoint ID._sender The sender address.The path nonce starts from 1. If 0 is returned it means that there is NO nonce ordered enforcement.Is required by the off-chain executor to determine the OApp expects msg execution is ordered.This is also enforced by the OApp.By default this is NOT enabled. ie. nextNonce is hardcoded to return 0.",
        "returns": {
          "nonce": "The next nonce."
        }
      },
      "oApp()": {
        "details": "Retrieves the address of the OApp contract.The simulator contract is the base contract for the OApp by default.If the simulator is a separate contract, override this function.",
        "returns": {
          "_0": "The address of the OApp contract."
        }
      },
      "oAppVersion()": {
        "returns": {
          "receiverVersion": "The version of the OAppReceiver.sol implementation.",
          "senderVersion": "The version of the OAppSender.sol implementation."
        }
      },
      "oftVersion()": {
        "details": "interfaceId: This specific interface ID is '0x02e49c2c'.version: Indicates a cross-chain compatible msg encoding with other OFTs.If a new feature is added to the OFT cross-chain msg encoding, the version will be incremented. ie. localOFT version(x,1) CAN send messages to remoteOFT version(x,1)",
        "returns": {
          "interfaceId": "The interface ID.",
          "version": "The version."
        }
      },
      "owner()": {
        "details": "Returns the address of the current owner."
      },
      "quoteOFT((uint32,bytes32,uint256,uint256,bytes,bytes,bytes))": {
        "params": {
          "_sendParam": "The parameters for the send operation."
        },
        "returns": {
          "oftFeeDetails": "The details of OFT fees.",
          "oftLimit": "The OFT limit information.",
          "oftReceipt": "The OFT receipt information."
        }
      },
      "quoteSend((uint32,bytes32,uint256,uint256,bytes,bytes,bytes),bool)": {
        "details": "MessagingFee: LayerZero msg fee  - nativeFee: The native fee.  - lzTokenFee: The lzToken fee.",
        "params": {
          "_payInLzToken": "Flag indicating whether the caller is paying in the LZ token.",
          "_sendParam": "The parameters for the send() operation."
        },
        "returns": {
          "msgFee": "The calculated LayerZero messaging fee from the send() operation."
        }
      },
      "renounceOwnership()": {
        "details": "Leaves the contract without owner. It will not be possible to call `onlyOwner` functions. Can only be called by the current owner. NOTE: Renouncing ownership will leave the contract without an owner, thereby disabling any functionality that is only available to the owner."
      },
      "send((uint32,bytes32,uint256,uint256,bytes,bytes,bytes),(uint256,uint256),address)": {
        "details": "Executes the send operation.MessagingReceipt: LayerZero msg receipt  - guid: The unique identifier for the sent message.  - nonce: The nonce of the sent message.  - fee: The LayerZero fee incurred for the message.",
        "params": {
          "_fee": "The calculated fee for the send() operation.      - nativeFee: The native fee.      - lzTokenFee: The lzToken fee.",
          "_refundAddress": "The address to receive any excess funds.",
          "_sendParam": "The parameters for the send operation."
        },
        "returns": {
          "msgReceipt": "The receipt for the send operation.",
          "oftReceipt": "The OFT receipt information."
        }
      },
      "setDelegate(address)": {
        "details": "Only the owner/admin of the OApp can call this function.Provides the ability for a delegate to set configs, on behalf of the OApp, directly on the Endpoint contract.",
        "params": {
          "_delegate": "The address of the delegate to be set."
        }
      },
      "setEnforcedOptions((uint32,uint16,bytes)[])": {
        "details": "Sets the enforced options for specific endpoint and message type combinations.Only the owner/admin of the OApp can call this function.Provides a way for the OApp to enforce things like paying for PreCrime, AND/OR minimum dst lzReceive gas amounts etc.These enforced options can vary as the potential options/execution on the remote may differ as per the msgType. eg. Amount of lzReceive() gas necessary to deliver a lzCompose() message adds overhead you dont want to pay if you are only making a standard LayerZero message ie. lzReceive() WITHOUT sendCompose().",
        "params": {
          "_enforcedOptions": "An array of EnforcedOptionParam structures specifying enforced options."
        }
      },
      "setMsgInspector(address)": {
        "details": "Sets the message inspector address for the OFT.This is an optional contract that can be used to inspect both 'message' and 'options'.Set it to address(0) to disable it, or set it to a contract address to enable it.",
        "params": {
          "_msgInspector": "The address of the message inspector."
        }
      },
      "setPeer(uint32,bytes32)": {
        "details": "Only the owner/admin of the OApp can call this function.Indicates that the peer is trusted to send LayerZero messages to this OApp.Set this to bytes32(0) to remove the peer address.Peer is a bytes32 to accommodate non-evm chains.",
        "params": {
          "_eid": "The endpoint ID.",
          "_peer": "The address of the peer to be associated with the corresponding endpoint."
        }
      },
      "setPreCrime(address)": {
        "details": "Sets the preCrime contract address.",
        "params": {
          "_preCrime": "The address of the preCrime contract."
        }
      },
      "sharedDecimals()": {
        "details": "Retrieves the shared decimals of the OFT.Sets an implicit cap on the amount of tokens, over uint64.max() will need some sort of outbound cap / totalSupply cap Lowest common decimal denominator between chains. Defaults to 6 decimal places to provide up to 18,446,744,073,709.551615 units (max uint64). For tokens exceeding this totalSupply(), they will need to override the sharedDecimals function with something smaller. ie. 4 sharedDecimals would be 1,844,674,407,370,955.1615",
        "returns": {
          "_0": "The shared decimals of the OFT."
        }
      },
      "symbol()": {
        "details": "Returns the symbol of the token, usually a shorter version of the name."
      },
      "token()": {
        "details": "Retrieves the address of the underlying ERC20 implementation.In the case of OFT, address(this) and erc20 are the same contract.",
        "returns": {
          "_0": "The address of the OFT token."
        }
      },
      "totalSupply()": {
        "details": "See {IERC20-totalSupply}."
      },
      "transfer(address,uint256)": {
        "details": "See {IERC20-transfer}. Requirements: - `to` cannot be the zero address. - the caller must have a balance of at least `value`."
      },
      "transferFrom(address,address,uint256)": {
        "details": "See {IERC20-transferFrom}. Skips emitting an {Approval} event indicating an allowance update. This is not required by the ERC. See {xref-ERC20-_approve-address-address-uint256-bool-}[_approve]. NOTE: Does not update the allowance if the current allowance is the maximum `uint256`. Requirements: - `from` and `to` cannot be the zero address. - `from` must have a balance of at least `value`. - the caller must have allowance for ``from``'s tokens of at least `value`."
      },
      "transferOwnership(address)": {
        "details": "Transfers ownership of the contract to a new account (`newOwner`). Can only be called by the current owner."
      }
    },
    "version": 1
  },
  "userdoc": {
    "kind": "user",
    "methods": {
      "allowInitializePath((uint32,bytes32,uint64))": {
        "notice": "Checks if the path initialization is allowed based on the provided origin."
      },
      "approvalRequired()": {
        "notice": "Indicates whether the OFT contract requires approval of the 'token()' to send."
      },
      "combineOptions(uint32,uint16,bytes)": {
        "notice": "Combines options for a given endpoint and message type."
      },
      "endpoint()": {
        "notice": "Retrieves the LayerZero endpoint associated with the OApp."
      },
      "isComposeMsgSender((uint32,bytes32,uint64),bytes,address)": {
        "notice": "Indicates whether an address is an approved composeMsg sender to the Endpoint."
      },
      "nextNonce(uint32,bytes32)": {
        "notice": "Retrieves the next nonce for a given source endpoint and sender address."
      },
      "oAppVersion()": {
        "notice": "Retrieves the OApp version information."
      },
      "oftVersion()": {
        "notice": "Retrieves interfaceID and the version of the OFT."
      },
      "peers(uint32)": {
        "notice": "Retrieves the peer (OApp) associated with a corresponding endpoint."
      },
      "quoteOFT((uint32,bytes32,uint256,uint256,bytes,bytes,bytes))": {
        "notice": "Provides the fee breakdown and settings data for an OFT. Unused in the default implementation."
      },
      "quoteSend((uint32,bytes32,uint256,uint256,bytes,bytes,bytes),bool)": {
        "notice": "Provides a quote for the send() operation."
      },
      "setDelegate(address)": {
        "notice": "Sets the delegate address for the OApp."
      },
      "setPeer(uint32,bytes32)": {
        "notice": "Sets the peer address (OApp instance) for a corresponding endpoint."
      }
    },
    "notice": "OFT is an ERC-20 token that extends the OFTCore contract.",
    "version": 1
  },
  "storageLayout": {
    "storage": [
      {
        "astId": 5241,
        "contract": "contracts/YSK.sol:YSK",
        "label": "_owner",
        "offset": 0,
        "slot": "0",
        "type": "t_address"
      },
      {
        "astId": 1390,
        "contract": "contracts/YSK.sol:YSK",
        "label": "peers",
        "offset": 0,
        "slot": "1",
        "type": "t_mapping(t_uint32,t_bytes32)"
      },
      {
        "astId": 3057,
        "contract": "contracts/YSK.sol:YSK",
        "label": "preCrime",
        "offset": 0,
        "slot": "2",
        "type": "t_address"
      },
      {
        "astId": 2006,
        "contract": "contracts/YSK.sol:YSK",
        "label": "enforcedOptions",
        "offset": 0,
        "slot": "3",
        "type": "t_mapping(t_uint32,t_mapping(t_uint16,t_bytes_storage))"
      },
      {
        "astId": 3677,
        "contract": "contracts/YSK.sol:YSK",
        "label": "msgInspector",
        "offset": 0,
        "slot": "4",
        "type": "t_address"
      },
      {
        "astId": 5630,
        "contract": "contracts/YSK.sol:YSK",
        "label": "_balances",
        "offset": 0,
        "slot": "5",
        "type": "t_mapping(t_address,t_uint256)"
      },
      {
        "astId": 5636,
        "contract": "contracts/YSK.sol:YSK",
        "label": "_allowances",
        "offset": 0,
        "slot": "6",
        "type": "t_mapping(t_address,t_mapping(t_address,t_uint256))"
      },
      {
        "astId": 5638,
        "contract": "contracts/YSK.sol:YSK",
        "label": "_totalSupply",
        "offset": 0,
        "slot": "7",
        "type": "t_uint256"
      },
      {
        "astId": 5640,
        "contract": "contracts/YSK.sol:YSK",
        "label": "_name",
        "offset": 0,
        "slot": "8",
        "type": "t_string_storage"
      },
      {
        "astId": 5642,
        "contract": "contracts/YSK.sol:YSK",
        "label": "_symbol",
        "offset": 0,
        "slot": "9",
        "type": "t_string_storage"
      }
    ],
    "types": {
      "t_address": {
        "encoding": "inplace",
        "label": "address",
        "numberOfBytes": "20"
      },
      "t_bytes32": {
        "encoding": "inplace",
        "label": "bytes32",
        "numberOfBytes": "32"
      },
      "t_bytes_storage": {
        "encoding": "bytes",
        "label": "bytes",
        "numberOfBytes": "32"
      },
      "t_mapping(t_address,t_mapping(t_address,t_uint256))": {
        "encoding": "mapping",
        "key": "t_address",
        "label": "mapping(address => mapping(address => uint256))",
        "numberOfBytes": "32",
        "value": "t_mapping(t_address,t_uint256)"
      },
      "t_mapping(t_address,t_uint256)": {
        "encoding": "mapping",
        "key": "t_address",
        "label": "mapping(address => uint256)",
        "numberOfBytes": "32",
        "value": "t_uint256"
      },
      "t_mapping(t_uint16,t_bytes_storage)": {
        "encoding": "mapping",
        "key": "t_uint16",
        "label": "mapping(uint16 => bytes)",
        "numberOfBytes": "32",
        "value": "t_bytes_storage"
      },
      "t_mapping(t_uint32,t_bytes32)": {
        "encoding": "mapping",
        "key": "t_uint32",
        "label": "mapping(uint32 => bytes32)",
        "numberOfBytes": "32",
        "value": "t_bytes32"
      },
      "t_mapping(t_uint32,t_mapping(t_uint16,t_bytes_storage))": {
        "encoding": "mapping",
        "key": "t_uint32",
        "label": "mapping(uint32 => mapping(uint16 => bytes))",
        "numberOfBytes": "32",
        "value": "t_mapping(t_uint16,t_bytes_storage)"
      },
      "t_string_storage": {
        "encoding": "bytes",
        "label": "string",
        "numberOfBytes": "32"
      },
      "t_uint16": {
        "encoding": "inplace",
        "label": "uint16",
        "numberOfBytes": "2"
      },
      "t_uint256": {
        "encoding": "inplace",
        "label": "uint256",
        "numberOfBytes": "32"
      },
      "t_uint32": {
        "encoding": "inplace",
        "label": "uint32",
        "numberOfBytes": "4"
      }
    }
  }
}